:020000040000fa
:080000001003040000000000e1
:020000040000fa
:10000800660800005e0800006c0800005208000046
:10001800580800006c0800006c0800006c0800001c
:100028006c0800006c0800006c0800003e07000027
:100038006c0800006c0800006c080000fe07000057
:10004800020800006c0800006c080000be050000f3
:100058000a0700000a0400006c0800006c08000091
:100068006c080000220800006c0800006c08000002
:10007800b60700000a0800006c0800006c080000c1
:100088006c0800006c0800006c08000006080000fe
:10009800a4070000ce0700009604000086050000b3
:1000a8006c0800006c0800006c0800006c08000078
:1000b8006c0800006c0800006c0800006c08000068
:1000c8006c0800006c0800006c0800006c08000058
:1000d8006c0800006c0800006c080000a80700000d
:1000e8006c0800006c0800003a0800006c0800006a
:1000f8006c080000e60700006c0800006c080000af
:100108006c0800006c0800006c0800006c08000017
:100118006c0800006c0800006c0800006c08000007
:100128006c0800006c0800006c0800006c080000f7
:100138006c0800006c0800006c0800006c080000e7
:100148006c0800006c0800006c0800006c080000d7
:100158006c0800006c0800006c0800006c080000c7
:100168006c0800006c0800006c0800006c080000b7
:100178006c0800006c0800006c0800006c080000a7
:100188006c0800006c0800006c0800006c08000097
:100198006c0800006c0800006c0800006c08000087
:1001a8006c0800006c0800006c0800006c08000077
:1001b8006c0800006c0800006c0800006c08000067
:1001c8006c0800006c0800006c0800006c08000057
:1001d8006c0800006c0800006c0800006c08000047
:1001e8006c0800006c0800006c0800006c08000037
:1001f8006c0800006c0800006c0800006c08000027
:100208006c0800006c0800006c0800006c08000016
:100218006c0800006c0800006c0800006c08000006
:100228006c0800006c0800006c0800006c080000f6
:100238006c0800006c0800006c0800006c080000e6
:100248006c0800006c0800006c0800006c080000d6
:100258006c0800006c0800006c0800006c080000c6
:020000040000fa
:1004000070c0b3005744070011c0b300220320009e
:10041000030020000040eb001a4a07006041200062
:10042000713a81000008b800e208200003002000b3
:100430003b030700803a8900913a89000001be0021
:1004400000242400f100200035030700a03a8900b1
:100450000001d10064c0b3008001780021c0b30066
:1004600070c0b3003f433700401f2000703a89003e
:10047000e3ff070011c0b3002203200003002000a7
:100480000040eb00ff490700322ea80023cea90050
:1004900023aea9000040eb000b4a0700e14f5000db
:1004a000fcff320010c0b300e04a0700c228a900d8
:1004b0002288a80040b022000008eb006000b800cd
:1004c0003058890041588900000006004fe7a90014
:1004d0004f87a800f10f2f00723a800082806000e1
:1004e0000130b300713a8800e14f50000200320041
:1004f0004fe7a900000006004fe7a8000000060033
:10050000322ea800000000000000000000000000e3
:1005100000000000000000000000000000000000db
:1005200000000000000000000000000000000000cb
:1005300000000000000000000000000000000000bb
:1005400000000000000000000000000000000000ab
:10055000000000000000000000000000000000009b
:10056000000000000000000000000000322ea80083
:1005700000000000000000000000060020c0b300e2
:1005800063f0b7000288a900000006004822ef00cf
:100590004002ab00feff3200411280000000eb0081
:1005a0004822ef004002ab00feff32004412800000
:1005b0008002eb004829dd00c821de0083017100c4
:1005c0004821dd0002007000838070004822ef00a7
:1005d0004002ab00feff3200421280006112b80000
:1005e000040170008581700080ff2f000200600010
:0805f000830078000000060002
:020000040000fa
:0405f80000000600f9
:020000040000fa
:100600004d530000485000004858000030300000b2
:020000040000fa
:08061000312e00003330000020
:020000040000fa
:08061800322e0000303000001a
:020000040000fa
:10062000af4c23000e2927000e01880000000000b7
:10063000000020000000e000020032000001200065
:100640002002880014000700a50207000000e00057
:1006500003003a00207a2900010020000200370040
:100660000000200001002000810f70000100320016
:100670000f000700000020000000e0000200320030
:100680000000020000000000d098020000000000fe
:100690000040da000000fe00800b24000000e000b3
:1006a00002003200002020009001880000000600b7
:1006b000a1028800800478000000eb001f003700d2
:1006c000e284440054a0b4009905ba00e2844400d6
:1006d00054a0b4009906ba00e284440054a0b400c7
:1006e0000006eb00476fde00fd07b200ae01880098
:1006f000636ce10003003a000ad801000000eb003f
:100700000e003700606ce10008003a00004deb007d
:100710000a05e800020039003420ec000af0a000cd
:100720008b05e900f9ff3e00040037006168e10035
:10073000010032000086eb000b00070019c7ba0069
:100740000e04e0001905ba0003003a000a00e000b8
:10075000dbff3a0000000600fe07b200ae02880090
:100760008a047800f5ff37000cd0a300e20f4d009b
:100770001c003b0089027800354dba000a05e800ec
:10078000020039003420ec000af0a0008b05e900db
:100790000f003200254dba000a05e80002003900ba
:1007a0003420ec000af0a0008b05e90008003200bc
:1007b0000c00e0000600320015cdba000a05e80082
:1007c000020039003420ec000af0a0008b05e9009b
:1007d0008984e80054a0b4000b00e000e2ff3a0076
:1007e000000006009902ba00055d78008b05e9005b
:1007f000f7ff3200c82ade00055d78008b05e900ae
:10080000f3ff32000c00e000f1ff320019ddba0006
:10081000eeff3700809fbe00821f7800849fbe00dd
:1008200080ba22001004e00015003a00a2ba2200ab
:10083000924078000104e00016003200e1cf500041
:1008400024003200e2cf50002d0032008180fb00f6
:10085000610ab90062024200e0824a0004024200da
:1008600085824a00040040000118800001087800d9
:100870000049eb0031c0b30090ba22000148780073
:1008800001a8a9004f02be004f0178004f00be0032
:100890000040060000188000605d890010c0b300b1
:1008a00000497800d000200040198800f0cf2f00c8
:1008b0002223b6002143a8002023a90001a8a900f3
:1008c0004f02be004f0178004f00be0000400600fe
:1008d000f0ff370001188000715d890020c0b3006f
:1008e00000497800f000200040198800f0cf2f0068
:1008f0002223b6002143a8002023a900efff3700e0
:1009000000188000805d890030c0b3000049780085
:100910003000200040198800f0cf2f002223b600bd
:100920002143a8002023a900e4ff3700809fbe00d8
:10093000829fbe00849fbe00861f7800f078220050
:100940001004e00016003a00a6082100548480003c
:10095000b31180006120b8008002b0000180b000b7
:10096000420821000000410003487800124078004e
:100970000004e00020003a00b0c5b300c10a210025
:10098000914f10003c00320003c8a9004f037800cb
:100990004f02be004f01be004f00be0000400600e7
:1009a000a108210050848000b3118000c20a2100f8
:1009b00000014100034978008008e8006208210036
:1009c0001200e80030848800034b2000830f5000a1
:1009d000edff36000009eb008008eb0003c8a9001a
:1009e0004f0378004f02be004f01be004f00be0013
:1009f00000400600eaff3700e14f5000e2ff3a00f6
:100a0000d0c5b30080cf510026003200b0c5b3007e
:100a100080cf510031003200e00f2000800f5200e3
:100a20000a003e00040be800600821001008e800fe
:100a300003c8a9004f0378004f02be004f01be005b
:100a40004f00be0000400600d5ff37000049eb0014
:100a5000000beb00600821000008eb0003c8a900b0
:100a60004f0378004f02be004f01be004f00be0092
:100a700000400600caff37001000200050848800a4
:100a8000004978003084880003c8a9004f0378002b
:100a90004f02be004f01be004f00be0000400600e6
:100aa000bfff370030c0b30000497800000beb00f7
:100ab000600821001008e80020c0b3007ef0b700f5
:100ac00003c8a9004f0378004f02be004f01be00cb
:100ad0004f00be0000400600b1ff3700c00a2100f1
:100ae000034878001000200050848800308488007b
:100af00003c8a9004f0378004f02be004f01be009b
:100b00004f00be0000400600a5ff3700809fbe00da
:100b1000821f7800f07822001004e0000a003a00fa
:100b2000025621001200e80000ab8800e1552100c8
:100b3000910f500008003900c05521000048eb001b
:100b40000009eb008008eb0003e8a9004f017800e2
:100b50004f00be00004006002156210000804000ea
:100b60001080fb00a011880003e8a9004f01780065
:100b70004f00be0000400600f7ff3700809fbe0018
:100b8000829fbe00849fbe00861f7800f0782200fe
:100b90001004e00016003a0086a12100c4d08000b5
:100ba000331180006120b8008002b0000180b000e5
:100bb00022a1210000004100034878001240780083
:100bc0000004e0001f003a00b0c5b300a1a321005b
:100bd000914f10006b0032000168a9004f037800ac
:100be0004f02be004f01be004f00be000040060095
:100bf000301180008040780081f0b7000080fb0059
:100c0000a01188007fd0bf00e14f50002e003200bd
:100c100021003900e24f500043003200e34f500002
:100c2000350032007f70ef000168a9004f037800a3
:100c30004f02be004f01be004f00be000040060044
:100c4000ebff3700e14f5000e3ff3a00d1c5b3009e
:100c500081cf510056003200b0c5b30080cf5100a3
:100c600060003200e00f2000800f52003a003e008a
:100c7000040be80040a121001008e8000168a90069
:100c80004f0378004f02be004f01be004f00be0070
:100c900000400600d6ff3700b0c2b30080cf50003e
:100ca000cdff3a0010c0b3007ff0b7000168a90083
:100cb0004f0378004f02be004f01be004f00be0040
:100cc00000400600caff3700d0c2b30080cf5000fa
:100cd000d4ff3a0020c0b3007ff0b7000168a9003c
:100ce0004f0378004f02be004f01be004f00be0010
:100cf00000400600beff3700f0c3b30080cf5000b5
:100d0000c8ff3a0010c0b30080f0b7000168a90026
:100d10004f0378004f02be004f01be004f00be00df
:100d200000400600b2ff370030c2b30080cf500051
:100d3000bcff3a0030c0b3007ff0b7000168a900e3
:100d40004f0378004f02be004f01be004f00be00af
:100d500000400600a6ff37000049eb00000beb0047
:100d600040a121000008eb000168a9004f037800b2
:100d70004f02be004f01be004f00be000040060003
:100d80009bff370010002000c0d088000049780089
:100d9000a0d088000168a9004f0378004f02be0070
:100da0004f01be004f00be000040060090ff37001c
:100db00031c0b30001497800000beb0041a12100d4
:100dc0009108e8007ef0b7000168a9004f037800a1
:100dd0004f02be004f01be004f00be0000400600a3
:100de00083ff3700a0a321000348780010002000f3
:100df000c0d08800a0d088000168a9004f03780007
:100e00004f02be004f01be004f00be000040060072
:100e100077ff3700809fbe00821f7800e2ee21003e
:100e20001200e80070f78800c1ee2100910f500019
:100e300009003900a0ee21000048eb000009eb009a
:100e40008008eb00522ea9000188a9004f0178000c
:100e50004f00be000040060001ef2100008040006e
:100e60001080fb00201188000188a9004f01780044
:100e70004f00be0000400600f7ff3700809fbe0015
:100e8000829fbe00849fbe00869fbe00881f7800a0
:100e90008a9fbe008210ec0010848800713e200002
:100ea000810f500006003600c071220012002000a1
:100eb0000300200010084100509049008230ef00ec
:100ec0000000eb00e4b52200a5b5220028c0b30065
:100ed0006601b8008200420016c0b300914f1300b3
:100ee0000b0032000000e800ed0f5000f8ff3a0060
:100ef0000068a9004f05be004f0478004f03be00f4
:100f00004f02be004f01be004f00be000040060071
:100f1000028142000085eb008085eb003203450032
:100f2000a2834d000689be00e00f5300e08f5b00f6
:100f3000ecff3a00884878000000e800ed0f500010
:100f4000e3ff3a00eaff37000388a90000400600eb
:100f5000809fbe0011c0b300d07922000148780004
:100f600005e8a9004f00be00004006003600f8006a
:100f7000809fbe00829fbe00849fbe00869fbe00f1
:100f80007efd07004f03be004f02be004f01be00b2
:100f90004f00be003600f900004006003600f800a1
:100fa000809fbe00829fbe00849fbe00869fbe00c1
:100fb0009c4507004f03be004f02be004f01be001c
:100fc0004f00be003600f900004006003600f80071
:100fd000809fbe00829fbe00849fbe00869fbe0091
:100fe0006a4507004f03be004f02be004f01be001e
:100ff0004f00be003600f9000040060000e8a900de
:10100000004006000108a900004006000368a9008e
:10101000004006003600f800809fbe00829fbe00a0
:10102000849fbe00869fbe00754707004f03be0029
:101030004f02be004f01be004f00be003600f90057
:10104000004006003600f800809fbe00829fbe0070
:10105000849fbe00869fbe006f4407004f03be0002
:101060004f02be004f01be004f00be003600f90027
:10107000004006003600f800809fbe00829fbe0040
:10108000849fbe00869fbe00654407004f03be00dc
:101090004f02be004f01be004f00be003600f900f7
:1010a00000400600000000000000000000400600b4
:1010b00000000000000000000040060000000000ea
:1010c00000000000c028ef00004006000000000003
:1010d00000000000004006000040da000000fe00b2
:1010e00000000500839f68000100e00002003d0051
:1010f00060001000e08018000300e00002003d00e6
:1011000060011100e0811900050007004f00e000b8
:1011100002003b0060001000e080180000000600a4
:101120006022b800060220000000d0008180d200ba
:101130000482d2008582d2000000a0000202520088
:1011400083825a00030031000202420083824a0077
:101150000000a1000603e900f3ff3a0000000600ca
:10116000889fbe008a9fbe0030044200b0844a00bf
:1011700030054b0090854b006000b1000898be0020
:101180000a90be000440e10005c8e10006d0e1007d
:1011900007d8e10002003100680040001008e800b4
:1011a0004f05be004f04be0000000600889fbe0031
:1011b0008a9fbe00100478009004900020059000e3
:1011c000b00590000418540005985c0006185d00f6
:1011d00007985d00110020000440e10005c8e1000f
:1011e00006d0e10007d8e100010039008000eb00e3
:1011f000108810004f05be004f04be00000006001e
:101200001200fa00889fbe008a9fbe008c9fbe001d
:10121000e0b79f00f1b79f0082bf9f0093bf9f0080
:101220000605be000404be000000eb00d0b79f001e
:10123000c0b79f00b0b79f00a0b79f0090b79f00b6
:10124000000678005fb19700cfb09700820141009f
:101250003fb097000200e00004003d0037000700a7
:101260007e805700beff07000300370033000700f1
:101270007e805700cdff0700dfb697000d00e0002d
:101280000c0035006fb29700ffb297000fbb9700bc
:101290009fbb970010002000010020006011b800e3
:1012a0000002720081827200020373008383730064
:1012b0001b0007000c06e80001042000810f560007
:1012c000e0ff3a000d00e00004003d000802be000f
:1012d0000a03be007e805700a1ff07005fa89700a9
:1012e0000000e00005003a001fb29700afb297007f
:1012f0003fb39700cfb39700090007006fb0970086
:10130000ffb097000fb997009fb997004f06be0036
:101310004f05be004f04be000080fa00000006002a
:101320000100070000000600a4b79f00b5b79f00aa
:10133000c6b79f00d7b79f00000006004f09de0028
:1013400082817100b3b79f004f01de0081804000b1
:1013500082807000a1b79f008fb097004f09de0018
:10136000000040000200700090b79f007fa8970027
:101370004f01de00818040008280700081b79f00b5
:101380000d0007004f3ade0000004000040070002e
:10139000f0af9f00080007000402420085824a0067
:1013a00006034b0087834b00dfff07000802be00e7
:1013b0000a03be00000006002fb29700bfb29700dc
:1013c0004fb39700dfb3970000000600881f780036
:1013d00018002000881f780089ff07008f87e90028
:1013e0004f04780000000600801feb0084ff070018
:1013f0008f87e90000000600889fbe008a9fbe001c
:10140000e00f5000e08f5800e00f5900e08f5900c6
:101410000c003d006044b8006055b8000000540066
:1014200081805c0002015d0083815d001800200066
:101430001500070008003d00180007000004eb003d
:10144000050037000004eb000f00070002003d001c
:101450001200070018002000dcff07000800e00071
:10146000060032006022b8006033b800000052006d
:1014700081805a0002015b0083815b004f05be0042
:101480004f04be0000000600e00f5200e08f5a003b
:10149000e00f5b00e08f5b00000006006044b800d6
:1014a0006055b8000402540085825c0006035d00ac
:1014b00087835d0000000600889fbe008a9fbe00f3
:1014c0008c1f7800e00f5000e08f5800e00f5900ab
:1014d000e08f59000d003d006044b8006055b80031
:1014e0000000540081805c0002015d0083815d008a
:1014f0001c0020000820e10009a8e1000ab0e1007a
:101500000bb8e1000d003d00080037000006eb00bd
:10151000e00f5200e08f5a00e00f5b00e08f5b00ad
:1015200006003d006044b8006055b8000402540055
:1015300085825c0006035d0087835d00aaff0700cb
:101540000c00e000060032006022b8006033b800f2
:101550000000520081805a0002015b0083815b0021
:101560004f0678004f05be004f04be000000060085
:10157000889fbe008a9fbe008c1f78000006eb008b
:10158000e00f5000e08f5800e00f5900e08f590045
:1015900007003d006044b8006055b80000005400ea
:1015a00081805c0002015d0083815d001c002000e1
:1015b000e00f5200e08f5a00e00f5b00e08f5b000d
:1015c00007003d006044b8006055b80004025400b4
:1015d00085825c0006035d0087835d000c00a2002d
:1015e0000c0007000c00e000060032006022b8008a
:1015f0006033b8000000520081805a0002015b0095
:1016000083815b004f0678004f05be004f04be008b
:1016100000000600889fbe008a9fbe008c9fbe000f
:101620000404b8000506b8008904460060854e0031
:101630000606b8000a054600e0854e000706b80019
:101640008b054600040eb800890446000a854e004a
:10165000e0854d00050eb8000a0546008b854e005a
:10166000060eb8008b0546000416b8000a054600b1
:101670008b854e000516b8008b054600041eb80089
:101680008b0546000800be000a01be004f06be00e2
:0c1690004f05be004f04be000000060025
:020000040000fa
:10169c0097030000000000001a0600000000000084
:1016ac00290a000000000000951000000000000056
:1016bc00891a0000000000009d29000000000000b5
:1016cc00f83f000000000000646000000000000013
:1016dc005e8e0000000000001cce00000000000028
:1016ec007b24000001000000d596000001000000e2
:1016fc00af2a0000020000004ce5000002000000d0
:10170c0012cb000003000000e1de0000040000002a
:10171c0052210000060000000a90000007000000a3
:10172c002725000009000000fbd600000a0000007d
:10173c00119800000c000000a95700000e000000da
:10174c0098020000100000009384000011000000bb
:10175c00bec900001200000058c0000013000000b9
:10176c00555a000014000000b38e00001400000055
:10177c00555a00001400000058c00000130000006f
:10178c00bec900001200000093840000110000008c
:10179c009802000010000000a95700000e00000085
:1017ac00119800000c000000fbd600000a0000009d
:1017bc0027250000090000000a9000000700000027
:1017cc005321000006000000e1de000004000000d0
:1017dc0012cb0000030000004ce5000002000000ea
:1017ec00b02a000002000000d796000001000000a3
:1017fc00802400000100000025ce00000000000045
:10180c00708e0000000000008860000000000000e6
:10181c003c40000000000000192a000000000000fd
:10182c00691b0000000000002312000000000000f3
:10183c00da0c000000000000ad0a000000000000ff
:10184c00360b000000000000820e000000000000bb
:10185c001215000000000000dc1f0000000000005a
:10186c0054300000000000007b4800000000000025
:10187c00df6a000000000000a29a000000000000d7
:10188c0063db0000000000002331000001000000b9
:10189c0005a0000001000000f92b00000200000070
:1018ac004ed800000200000029a700000300000031
:1018bc00fe9800000400000007ac000005000000ca
:1018cc00dedb0000060000003c21000008000000e8
:1018dc000d72000009000000bfc100000a000000ea
:1018ec00f20100000c0000006e2300000d0000004f
:1018fc004f1700000e00000042d000000e00000048
:10190c00c04300000f000000066b00000f00000039
:10191c00c04300000f00000042d000000e00000089
:10192c004f1700000e0000006e2300000d00000099
:10193c00f20100000c000000bfc100000a00000012
:10194c000d720000090000003c210000080000009e
:10195c00dedb00000600000007ac00000500000004
:10196c00fe9800000400000029a7000003000000fe
:10197c004ed8000002000000fa2b0000020000000c
:10198c0007a000000100000026310000010000004b
:10199c0069db000000000000ad9a000000000000b0
:1019ac00f36a0000000000009e48000000000000e8
:1019bc0090300000000000003f20000000000000fc
:1019cc00b2150000000000007d0f000000000000b8
:1019dc00b30c000000000000de0c00000000000052
:1019ec00f60f0000000000005c1600000000000074
:1019fc00dd20000000000000af30000000000000ff
:101a0c007347000000000000326700000000000077
:101a1c00509200000000000074cb00000000000099
:101a2c005c15000001000000a8720000010000001d
:101a3c008ae5000001000000716f00000200000048
:101a4c00a91000000300000005c8000003000000fe
:101a5c0094920000040000007e6b00000500000062
:101a6c00094c000006000000d42b00000700000009
:101a7c004c010000080000004ac2000008000000f1
:101a8c00df640000090000002ce0000009000000e9
:101a9c002b2d00000a000000594700000a0000002e
:101aac002b2d00000a0000002ce0000009000000b3
:101abc00df640000090000004ac2000008000000ba
:101acc004c01000008000000d42b000007000000af
:101adc00094c0000060000007e6b000005000000b1
:101aec00949200000400000005c8000003000000f0
:101afc00a910000003000000716f0000020000003c
:101b0c0089e5000001000000a77200000100000040
:101b1c0059150000010000006ecb00000000000011
:101b2c0044920000000000001a6700000000000052
:101b3c0045470000000000005b3000000000000082
:101b4c0047200000000000005315000000000000ba
:101b5c002a0e000000000000d10900000000000067
:101b6c009f0700000000000032070000000000008a
:101b7c006e08000000000000700b00000000000068
:101b8c0094100000000000006c1800000000000021
:101b9c00c5230000000000009f330000000000007f
:101bac002b49000000000000bc6500000000000094
:101bbc00af8a00000000000054b9000000000000d3
:101bcc00c5f2000000000000b93700000100000061
:101bdc00558800000100000003e400000100000033
:101bec004a49000002000000bfb5000002000000de
:101bfc000426000003000000ea950000030000002a
:101c0c00a600000004000000256100000400000094
:101c1c0070b200000400000016f000000400000088
:101c2c009516000005000000ad2300000500000023
:101c3c00951600000500000016f0000004000000de
:101c4c0070b20000040000002561000004000000d8
:101c5c00a700000004000000ec9500000300000049
:101c6c000726000003000000c5b5000002000000bc
:101c7c00554900000200000017e4000001000000bc
:101c8c007a88000001000000fb3700000100000012
:101c9c0037f300000000000016ba0000000000003e
:101cac00f18b000000000000c8670000000000007d
:101cbc00704c000000000000ba380000000000006a
:101ccc00962b0000000000002524000000000000fe
:101cdc00ca210000000000002b24000000000000be
:101cec00322b000000000000003700000000000054
:101cfc00e047000000000000305e00000000000023
:101d0c00487a000000000000619c00000000000008
:101d1c0075c40000000000002bf200000000000061
:101d2c00bc24000001000000eb5a00000100000080
:101d3c000893000001000000f8ca00000100000038
:101d4c00550000000200000093300000020000006b
:101d5c0038590000020000000b780000020000005f
:101d6c004b8b000002000000d69100000200000026
:101d7c004b8b0000020000000b78000002000000fa
:101d8c0038590000020000009230000002000000f0
:101d9c005300000002000000f5ca00000100000022
:101dac000293000001000000df5a00000100000057
:101dbc00a52400000100000001f20000000000005a
:101dcc002ac4000000000000dc9b000000000000a2
:101ddc006279000000000000a95c00000000000017
:101dec005645000000000000db320000000000003f
:101dfc008f24000000000000c31900000000000048
:101e0c00cc110000000000000c0c000000000000d1
:101e1c00ff07000000000000340500000000000077
:101e2c00510300000000000013020000000000003d
:101e3c004501000000000000c3000000000000008d
:101e4c0073000000000000004200000000000000d1
:101e5c00250000000000000015000000000000003c
:101e6c000b00000000000000060000000000000055
:101e7c000300000000000000020000000000000051
:101e8c000100000000000000000000000000000045
:101e9c000000000000000000000000000000000036
:101eac00ca210000000000002b24000000000000ec
:101ebc00322b000000000000003700000000000082
:101ecc00e047000000000000305e00000000000051
:101edc00487a000000000000619c00000000000037
:101eec0075c40000000000002bf200000000000090
:101efc00bc24000001000000eb5a000001000000af
:101f0c000893000001000000f8ca00000100000066
:101f1c005500000002000000933000000200000099
:101f2c0038590000020000000b780000020000008d
:101f3c004b8b000002000000d69100000200000054
:101f4c004b8b0000020000000b7800000200000028
:101f5c00385900000200000092300000020000001e
:101f6c005300000002000000f5ca00000100000050
:101f7c000293000001000000df5a00000100000085
:101f8c00a52400000100000001f200000000000088
:101f9c002ac4000000000000dc9b000000000000d0
:101fac006279000000000000a95c00000000000045
:101fbc005645000000000000db320000000000006d
:101fcc008f24000000000000c31900000000000076
:101fdc00cc110000000000000c0c00000000000000
:101fec00ff070000000000003405000000000000a6
:101ffc00510300000000000013020000000000006c
:10200c004501000000000000c300000000000000bb
:10201c0073000000000000004200000000000000ff
:10202c00250000000000000015000000000000006a
:10203c000b00000000000000060000000000000083
:10204c00030000000000000002000000000000007f
:10205c000100000000000000000000000000000073
:10206c000000000000000000000000000000000064
:10207c00000000000000000045010000000000000e
:10208c00c30000000000000073000000000000000e
:10209c0042000000000000002500000000000000cd
:1020ac0015000000000000000b0000000000000004
:1020bc00060000000000000003000000000000000b
:1020cc000200000000000000010000000000000001
:1020dc0000000000000000000000000000000000f4
:1020ec000000000000000000ca21000000000000f9
:1020fc002b24000000000000322b00000000000028
:10210c000037000000000000e04700000000000065
:10211c00305e000000000000487a00000000000063
:10212c00619c00000000000075c40000000000006d
:10213c002bf2000000000000bc2400000100000095
:10214c00eb5a0000010000000893000001000000a1
:10215c00f8ca000001000000550000000200000059
:10216c00933000000200000038590000020000000b
:10217c000b780000020000004b8b000002000000f6
:10218c00d6910000020000004b8b00000200000002
:10219c000b7800000200000038590000020000001b
:1021ac00923000000200000053000000020000000a
:1021bc00f5ca0000010000000293000001000000bd
:1021cc00df5a000001000000a524000001000000ff
:1021dc0001f20000000000002ac400000000000012
:1021ec00dc9b000000000000627900000000000091
:1021fc00a95c000000000000564500000000000033
:10220c00db320000000000008f2400000000000002
:10221c00c319000000000000cc11000000000000f9
:10222c000c0c000000000000ff0700000000000084
:10223c003405000000000000510300000000000005
:10224c001302000000000000450100000000000027
:10225c00c30000000000000073000000000000003c
:10226c0042000000000000002500000000000000fb
:10227c0015000000000000000b0000000000000032
:10228c000600000000000000030000000000000039
:10229c00020000000000000001000000000000002f
:1022ac000000000000000000000000000000000022
:1022bc000000000000000000000000000000000012
:1022cc000000000000000000000000000000000002
:1022dc0000000000000000004501000000000000ac
:1022ec00c3000000000000007300000000000000ac
:1022fc00420000000000000025000000000000006b
:10230c0015000000000000000b00000000000000a1
:10231c0006000000000000000300000000000000a8
:10232c00020000000000000001000000000000009e
:10233c000000000000000000000000000000000091
:10234c000000000000000000ca2100000000000096
:10235c002b24000000000000322b000000000000c5
:10236c000037000000000000e04700000000000003
:10237c00305e000000000000487a00000000000001
:10238c00619c00000000000075c40000000000000b
:10239c002bf2000000000000bc2400000100000033
:1023ac00eb5a00000100000008930000010000003f
:1023bc00f8ca0000010000005500000002000000f7
:1023cc0093300000020000003859000002000000a9
:1023dc000b780000020000004b8b00000200000094
:1023ec00d6910000020000004b8b000002000000a0
:1023fc000b780000020000003859000002000000b9
:10240c0092300000020000005300000002000000a7
:10241c00f5ca00000100000002930000010000005a
:10242c00df5a000001000000a5240000010000009c
:10243c0001f20000000000002ac4000000000000af
:10244c00dc9b00000000000062790000000000002e
:10245c00a95c0000000000005645000000000000d0
:10246c00db320000000000008f24000000000000a0
:10247c00c319000000000000cc1100000000000097
:10248c000c0c000000000000ff0700000000000022
:10249c0034050000000000005103000000000000a3
:1024ac0013020000000000004501000000000000c5
:1024bc00c3000000000000007300000000000000da
:1024cc004200000000000000250000000000000099
:1024dc0015000000000000000b00000000000000d0
:1024ec0006000000000000000300000000000000d7
:1024fc0002000000000000000100000000000000cd
:10250c0000000000000000000000000000000000bf
:10251c0000000000000000000000000000000000af
:10252c00000000000000000000000000000000009f
:10253c000000000000000000450100000000000049
:10254c00c300000000000000730000000000000049
:10255c004200000000000000250000000000000008
:10256c0015000000000000000b000000000000003f
:10257c000600000000000000030000000000000046
:10258c00020000000000000001000000000000003c
:10259c00000000000000000000000000000000002f
:1025ac000000000000000000ca2100000000000034
:1025bc002b24000000000000322b00000000000063
:1025cc000037000000000000e047000000000000a1
:1025dc00305e000000000000487a0000000000009f
:1025ec00619c00000000000075c4000000000000a9
:1025fc002bf2000000000000bc24000001000000d1
:10260c00eb5a0000010000000893000001000000dc
:10261c00f8ca000001000000550000000200000094
:10262c009330000002000000385900000200000046
:10263c000b780000020000004b8b00000200000031
:10264c00d6910000020000004b8b0000020000003d
:10265c000b78000002000000385900000200000056
:10266c009230000002000000530000000200000045
:10267c00f5ca0000010000000293000001000000f8
:10268c00df5a000001000000a5240000010000003a
:10269c0001f20000000000002ac40000000000004d
:1026ac00dc9b0000000000006279000000000000cc
:1026bc00a95c00000000000056450000000000006e
:1026cc00db320000000000008f240000000000003e
:1026dc00c319000000000000cc1100000000000035
:1026ec000c0c000000000000ff07000000000000c0
:1026fc003405000000000000510300000000000041
:10270c001302000000000000450100000000000062
:10271c00c300000000000000730000000000000077
:10272c004200000000000000250000000000000036
:10273c0015000000000000000b000000000000006d
:10274c000600000000000000030000000000000074
:10275c00020000000000000001000000000000006a
:10276c00000000000000000000000000000000005d
:10277c00000000000000000000000000000000004d
:10278c00000000000000000000000000000000003d
:10279c0000000000000000004501000000000000e7
:1027ac00c3000000000000007300000000000000e7
:1027bc0042000000000000002500000000000000a6
:1027cc0015000000000000000b00000000000000dd
:1027dc0006000000000000000300000000000000e4
:1027ec0002000000000000000100000000000000da
:1027fc0000000000000000000000000000000000cd
:10280c000000000000000000ca21000000000000d1
:10281c002b24000000000000322b00000000000000
:10282c000037000000000000e0470000000000003e
:10283c00305e000000000000487a0000000000003c
:10284c00619c00000000000075c400000000000046
:10285c002bf2000000000000bc240000010000006e
:10286c00eb5a00000100000008930000010000007a
:10287c00f8ca000001000000550000000200000032
:10288c0093300000020000003859000002000000e4
:10289c000b780000020000004b8b000002000000cf
:1028ac00d6910000020000004b8b000002000000db
:1028bc000b780000020000003859000002000000f4
:1028cc0092300000020000005300000002000000e3
:1028dc00f5ca000001000000029300000100000096
:1028ec00df5a000001000000a524000001000000d8
:1028fc0001f20000000000002ac4000000000000eb
:10290c00dc9b000000000000627900000000000069
:10291c00a95c00000000000056450000000000000b
:10292c00db320000000000008f24000000000000db
:10293c00c319000000000000cc11000000000000d2
:10294c000c0c000000000000ff070000000000005d
:10295c0034050000000000005103000000000000de
:10296c001302000000000000450100000000000000
:10297c00c300000000000000730000000000000015
:10298c0042000000000000002500000000000000d4
:10299c0015000000000000000b000000000000000b
:1029ac000600000000000000030000000000000012
:1029bc000200000000000000010000000000000008
:1029cc0000000000000000000000000000000000fb
:1029dc0000000000000000000000000000000000eb
:1029ec0000000000000000000000000000000000db
:1029fc000000000000000000450100000000000085
:102a0c00c300000000000000730000000000000084
:102a1c004200000000000000250000000000000043
:102a2c0015000000000000000b000000000000007a
:102a3c000600000000000000030000000000000081
:102a4c000200000000000000010000000000000077
:102a5c00000000000000000000000000000000006a
:102a6c000000000000000000ca210000000000006f
:102a7c002b24000000000000322b0000000000009e
:102a8c000037000000000000e047000000000000dc
:102a9c00305e000000000000487a000000000000da
:102aac00619c00000000000075c4000000000000e4
:102abc002bf2000000000000bc240000010000000c
:102acc00eb5a000001000000089300000100000018
:102adc00f8ca0000010000005500000002000000d0
:102aec009330000002000000385900000200000082
:102afc000b780000020000004b8b0000020000006d
:102b0c00d6910000020000004b8b00000200000078
:102b1c000b78000002000000385900000200000091
:102b2c009230000002000000530000000200000080
:102b3c00f5ca000001000000029300000100000033
:102b4c00df5a000001000000a52400000100000075
:102b5c0001f20000000000002ac400000000000088
:102b6c00dc9b000000000000627900000000000007
:102b7c00a95c0000000000005645000000000000a9
:102b8c00db320000000000008f2400000000000079
:102b9c00c319000000000000cc1100000000000070
:102bac000c0c000000000000ff07000000000000fb
:102bbc00340500000000000051030000000000007c
:102bcc00130200000000000045010000000000009e
:102bdc00c3000000000000007300000000000000b3
:102bec004200000000000000250000000000000072
:102bfc0015000000000000000b00000000000000a9
:102c0c0006000000000000000300000000000000af
:102c1c0002000000000000000100000000000000a5
:102c2c000000000000000000000000000000000098
:102c3c000000000000000000000000000000000088
:102c4c0000000000000000000b000000000000006d
:102c5c00060000000000000003000000000000005f
:102c6c000200000000000000010000000000000055
:102c7c000000000000000000000000000000000048
:102c8c000000000000000000ca210000000000004d
:102c9c002b24000000000000322b0000000000007c
:102cac000037000000000000e047000000000000ba
:102cbc00305e000000000000487a000000000000b8
:102ccc00619c00000000000075c4000000000000c2
:102cdc002bf2000000000000bc24000001000000ea
:102cec00eb5a0000010000000893000001000000f6
:102cfc00f8ca0000010000005500000002000000ae
:102d0c00933000000200000038590000020000005f
:102d1c000b780000020000004b8b0000020000004a
:102d2c00d6910000020000004b8b00000200000056
:102d3c000b7800000200000038590000020000006f
:102d4c00923000000200000053000000020000005e
:102d5c00f5ca000001000000029300000100000011
:102d6c00df5a000001000000a52400000100000053
:102d7c0001f20000000000002ac400000000000066
:102d8c00dc9b0000000000006279000000000000e5
:102d9c00a95c000000000000564500000000000087
:102dac00db320000000000008f2400000000000057
:102dbc00c319000000000000cc110000000000004e
:102dcc000c0c000000000000ff07000000000000d9
:102ddc00340500000000000051030000000000005a
:102dec00130200000000000045010000000000007c
:102dfc00c300000000000000730000000000000091
:102e0c00420000000000000025000000000000004f
:102e1c0015000000000000000b0000000000000086
:102e2c00060000000000000003000000000000008d
:102e3c000200000000000000010000000000000083
:102e4c000000000000000000000000000000000076
:102e5c000000000000000000000000000000000066
:102e6c0000000000000000000b000000000000004b
:102e7c00060000000000000003000000000000003d
:102e8c000200000000000000010000000000000033
:102e9c000000000000000000000000000000000026
:102eac000000000000000000ca210000000000002b
:102ebc002b24000000000000322b0000000000005a
:102ecc000037000000000000e04700000000000098
:102edc00305e000000000000487a00000000000096
:102eec00619c00000000000075c4000000000000a0
:102efc002bf2000000000000bc24000001000000c8
:102f0c00eb5a0000010000000893000001000000d3
:102f1c00f8ca00000100000055000000020000008b
:102f2c00933000000200000038590000020000003d
:102f3c000b780000020000004b8b00000200000028
:102f4c00d6910000020000004b8b00000200000034
:102f5c000b7800000200000038590000020000004d
:102f6c00923000000200000053000000020000003c
:102f7c00f5ca0000010000000293000001000000ef
:102f8c00df5a000001000000a52400000100000031
:102f9c0001f20000000000002ac400000000000044
:102fac00dc9b0000000000006279000000000000c3
:102fbc00a95c000000000000564500000000000065
:102fcc00db320000000000008f2400000000000035
:102fdc00c319000000000000cc110000000000002c
:102fec000c0c000000000000ff07000000000000b7
:102ffc003405000000000000510300000000000038
:10300c001302000000000000450100000000000059
:10301c00c30000000000000073000000000000006e
:10302c00420000000000000025000000000000002d
:10303c0015000000000000000b0000000000000064
:10304c00060000000000000003000000000000006b
:10305c000200000000000000010000000000000061
:10306c000000000000000000000000000000000054
:10307c000000000000000000000000000000000044
:10308c0000000000000000000b0000000000000029
:10309c00060000000000000003000000000000001b
:1030ac000200000000000000010000000000000011
:1030bc000000000000000000000000000000000004
:1030cc000000000000000000ca2100000000000009
:1030dc002b24000000000000322b00000000000038
:1030ec000037000000000000e04700000000000076
:1030fc00305e000000000000487a00000000000074
:10310c00619c00000000000075c40000000000007d
:10311c002bf2000000000000bc24000001000000a5
:10312c00eb5a0000010000000893000001000000b1
:10313c00f8ca000001000000550000000200000069
:10314c00933000000200000038590000020000001b
:10315c000b780000020000004b8b00000200000006
:10316c00d6910000020000004b8b00000200000012
:10317c000b7800000200000038590000020000002b
:10318c00923000000200000053000000020000001a
:10319c00f5ca0000010000000293000001000000cd
:1031ac00df5a000001000000a5240000010000000f
:1031bc0001f20000000000002ac400000000000022
:1031cc00dc9b0000000000006279000000000000a1
:1031dc00a95c000000000000564500000000000043
:1031ec00db320000000000008f2400000000000013
:1031fc00c319000000000000cc110000000000000a
:10320c000c0c000000000000ff0700000000000094
:10321c003405000000000000510300000000000015
:10322c001302000000000000450100000000000037
:10323c00c30000000000000073000000000000004c
:10324c00420000000000000025000000000000000b
:10325c0015000000000000000b0000000000000042
:10326c000600000000000000030000000000000049
:10327c00020000000000000001000000000000003f
:10328c000000000000000000000000000000000032
:10329c000000000000000000000000000000000022
:1032ac0000000000000000000b0000000000000007
:1032bc0006000000000000000300000000000000f9
:1032cc0002000000000000000100000000000000ef
:1032dc0000000000000000000000000000000000e2
:1032ec000000000000000000ca21000000000000e7
:1032fc002b24000000000000322b00000000000016
:10330c000037000000000000e04700000000000053
:10331c00305e000000000000487a00000000000051
:10332c00619c00000000000075c40000000000005b
:10333c002bf2000000000000bc2400000100000083
:10334c00eb5a00000100000008930000010000008f
:10335c00f8ca000001000000550000000200000047
:10336c0093300000020000003859000002000000f9
:10337c000b780000020000004b8b000002000000e4
:10338c00d6910000020000004b8b000002000000f0
:10339c000b78000002000000385900000200000009
:1033ac0092300000020000005300000002000000f8
:1033bc00f5ca0000010000000293000001000000ab
:1033cc00df5a000001000000a524000001000000ed
:1033dc0001f20000000000002ac400000000000000
:1033ec00dc9b00000000000062790000000000007f
:1033fc00a95c000000000000564500000000000021
:10340c00db320000000000008f24000000000000f0
:10341c00c319000000000000cc11000000000000e7
:10342c000c0c000000000000ff0700000000000072
:10343c0034050000000000005103000000000000f3
:10344c001302000000000000450100000000000015
:10345c00c30000000000000073000000000000002a
:10346c0042000000000000002500000000000000e9
:10347c0015000000000000000b0000000000000020
:10348c000600000000000000030000000000000027
:10349c00020000000000000001000000000000001d
:1034ac000000000000000000000000000000000010
:1034bc000000000000000000000000000000000000
:1034cc000000000000000000970300000000000056
:1034dc001a06000000000000290a0000000000008d
:1034ec009510000000000000891a00000000000088
:1034fc009d29000000000000f83f000000000000c3
:10350c0064600000000000005e8e000000000000ff
:10351c001cce0000000000007b2400000100000015
:10352c00d596000001000000af2a00000200000048
:10353c004ce500000200000012cb0000030000006c
:10354c00e1de000004000000522100000600000033
:10355c000a90000007000000272500000900000069
:10356c00fbd600000a000000119800000c000000bf
:10357c00a95700000e000000980200001000000087
:10358c009384000011000000bec90000120000006e
:10359c0058c0000013000000555a00001400000031
:1035ac00b38e000014000000555a000014000000f7
:1035bc0058c0000013000000bec90000120000003b
:1035cc00938400001100000098020000100000001d
:1035dc00a95700000e000000119800000c0000001c
:1035ec00fbd600000a00000027250000090000009f
:1035fc000a900000070000005321000006000000a4
:10360c00e1de00000400000012cb0000030000000b
:10361c004ce5000002000000b02a0000020000008f
:10362c00d79600000100000080240000010000007b
:10363c0025ce000000000000708e0000000000008d
:10364c0088600000000000003c400000000000000a
:10365c00192a000000000000691b00000000000097
:10366c002312000000000000da0c00000000000033
:10367c00ad0a000000000000360b00000000000046
:10368c00820e000000000000121500000000000077
:10369c00dc1f00000000000054300000000000009f
:1036ac007b48000000000000df6a00000000000002
:1036bc00a29a00000000000063db00000000000084
:1036cc00233100000100000005a0000001000000f3
:1036dc00f92b0000020000004ed800000200000090
:1036ec0029a7000003000000fe9800000400000061
:1036fc0007ac000005000000dedb00000600000047
:10370c003c210000080000000d72000009000000c0
:10371c00bfc100000a000000f20100000c00000014
:10372c006e2300000d0000004f1700000e0000007b
:10373c0042d000000e000000c04300000f0000004b
:10374c00066b00000f000000c04300000f000000db
:10375c0042d000000e0000004f1700000e000000c9
:10376c006e2300000d000000f20100000c000000b0
:10377c00bfc100000a0000000d720000090000002b
:10378c003c21000008000000dedb00000600000009
:10379c0007ac000005000000fe98000004000000cb
:1037ac0029a70000030000004ed800000200000012
:1037bc00fa2b00000200000007a00000010000002e
:1037cc00263100000100000069db00000000000051
:1037dc00ad9a000000000000f36a00000000000039
:1037ec009e48000000000000903000000000000027
:1037fc003f20000000000000b21500000000000097
:10380c007d0f000000000000b30c00000000000061
:10381c00de0c000000000000f60f000000000000ad
:10382c005c16000000000000dd200000000000001d
:10383c00af300000000000007347000000000000e3
:10384c0032670000000000005092000000000000f1
:10385c0074cb0000000000005c15000001000000ab
:10386c00a8720000010000008ae5000001000000c1
:10387c00716f000002000000a9100000030000009e
:10388c0005c8000003000000949200000400000032
:10389c007e6b000005000000094c000006000000d3
:1038ac00d42b0000070000004c01000008000000b1
:1038bc004ac2000008000000df640000090000009c
:1038cc002ce00000090000002b2d00000a00000075
:1038dc00594700000a0000002b2d00000a000000d0
:1038ec002ce0000009000000df640000090000006b
:1038fc004ac20000080000004c0100000800000053
:10390c00d42b000007000000094c0000060000004a
:10391c007e6b000005000000949200000400000083
:10392c0005c8000003000000a910000003000000ff
:10393c00716f00000200000089e50000010000002a
:10394c00a7720000010000005915000001000000e2
:10395c006ecb00000000000044920000000000004c
:10396c001a6700000000000045470000000000003e
:10397c005b30000000000000472000000000000049
:10398c0053150000000000002a0e0000000000008b
:10399c00d1090000000000009f070000000000009b
:1039ac0032070000000000006e080000000000005c
:1039bc00700b0000000000009410000000000000dc
:1039cc006c18000000000000c5230000000000007f
:1039dc009f330000000000002b4900000000000095
:1039ec00bc65000000000000af8a00000000000071
:1039fc0054b9000000000000c5f2000000000000f7
:103a0c00b9370000010000005588000001000000db
:103a1c0003e40000010000004a490000020000001d
:103a2c00bfb50000020000000426000003000000e7
:103a3c00ea95000003000000a6000000040000004e
:103a4c00256100000400000070b2000004000000ba
:103a5c0016f00000040000009516000005000000a0
:103a6c00ad230000050000009516000005000000c5
:103a7c0016f000000400000070b20000040000000a
:103a8c002561000004000000a700000004000000f5
:103a9c00ec95000003000000072600000300000066
:103aac00c5b50000020000005549000002000000ee
:103abc0017e40000010000007a88000001000000fb
:103acc00fb3700000100000037f30000000000008d
:103adc0016ba000000000000f18b0000000000008e
:103aec00c867000000000000704c000000000000df
:103afc00ba38000000000000962b00000000000007
:103b0c002524000000000000ca2100000000000075
:103b1c002b24000000000000322b000000000000ed
:103b2c000037000000000000e0470000000000002b
:103b3c00305e000000000000487a00000000000029
:103b4c00619c00000000000075c400000000000033
:103b5c002bf2000000000000bc240000010000005b
:103b6c00eb5a000001000000089300000100000067
:103b7c00f8ca00000100000055000000020000001f
:103b8c0093300000020000003859000002000000d1
:103b9c000b780000020000004b8b000002000000bc
:103bac00d6910000020000004b8b000002000000c8
:103bbc000b780000020000003859000002000000e1
:103bcc0092300000020000005300000002000000d0
:103bdc0097030000000000001a060000000000001f
:103bec00290a0000000000009510000000000000f1
:103bfc00891a0000000000009d2900000000000050
:103c0c00f83f0000000000006460000000000000ad
:103c1c005e8e0000000000001cce000000000000c2
:103c2c007b24000001000000d5960000010000007c
:103c3c00af2a0000020000004ce50000020000006a
:103c4c0012cb000003000000e1de000004000000c5
:103c5c0052210000060000000a900000070000003e
:103c6c002725000009000000fbd600000a00000018
:103c7c00119800000c000000a95700000e00000075
:103c8c009802000010000000938400001100000056
:103c9c00bec900001200000058c000001300000054
:103cac00555a000014000000b48e000014000000ef
:103cbc00555a00001400000058c00000130000000a
:103ccc00bec9000012000000938400001100000027
:103cdc009802000010000000a95700000e00000020
:103cec00119800000c000000fbd600000a00000038
:103cfc0027250000090000000a90000007000000c2
:103d0c005321000006000000e1de0000040000006a
:103d1c0012cb0000030000004ce500000200000084
:103d2c00b02a000002000000d7960000010000003d
:103d3c00802400000100000025ce000000000000df
:103d4c00708e000000000000886000000000000081
:103d5c003c40000000000000192a00000000000098
:103d6c00691b00000000000023120000000000008e
:103d7c00da0c000000000000ad0a0000000000009a
:103d8c00360b000000000000820e00000000000056
:103d9c001215000000000000dc1f000000000000f5
:103dac0054300000000000007b48000000000000c0
:103dbc00df6a000000000000a29a00000000000072
:103dcc0063db000000000000233100000100000054
:103ddc0005a0000001000000f92b0000020000000b
:103dec004ed800000200000029a7000003000000cc
:103dfc00fe9800000400000007ac00000500000065
:103e0c00dedb0000060000003c2100000800000082
:103e1c000d72000009000000bfc100000a00000084
:103e2c00f20100000c0000006e2300000d000000e9
:103e3c004f1700000e00000042d000000e000000e2
:103e4c00c04300000f000000066b00000f000000d4
:103e5c00c04300000f00000042d000000e00000024
:103e6c004f1700000e0000006e2300000d00000034
:103e7c00f20100000c000000bfc100000a000000ad
:103e8c000d720000090000003c2100000800000039
:103e9c00dedb00000600000007ac0000050000009f
:103eac00fe9800000400000029a700000300000099
:103ebc004ed8000002000000fa2b000002000000a7
:103ecc0007a00000010000002631000001000000e6
:103edc0069db000000000000ad9a0000000000004b
:103eec00f36a0000000000009e4800000000000083
:103efc0090300000000000003f2000000000000097
:103f0c00b2150000000000007d0f00000000000052
:103f1c00b30c000000000000de0c000000000000ec
:103f2c00f60f0000000000005c160000000000000e
:103f3c00dd20000000000000af3000000000000099
:103f4c007347000000000000326700000000000012
:103f5c00509200000000000074cb00000000000034
:103f6c005c15000001000000a872000001000000b8
:103f7c008ae5000001000000716f000002000000e3
:103f8c00a91000000300000005c800000300000099
:103f9c0094920000040000007e6b000005000000fd
:103fac00094c000006000000d42b000007000000a4
:103fbc004c010000080000004ac20000080000008c
:103fcc00df640000090000002ce000000900000084
:103fdc002b2d00000a000000594700000a000000c9
:103fec002b2d00000a0000002ce00000090000004e
:103ffc00df640000090000004ac200000800000055
:10400c004c01000008000000d42b00000700000049
:10401c00094c0000060000007e6b0000050000004b
:10402c00949200000400000005c80000030000008a
:10403c00a910000003000000716f000002000000d6
:10404c0089e5000001000000a772000001000000db
:10405c0059150000010000006ecb000000000000ac
:10406c0044920000000000001a67000000000000ed
:10407c0045470000000000005b300000000000001d
:10408c004720000000000000531500000000000055
:10409c002a0e000000000000d10900000000000002
:1040ac009f07000000000000320700000000000025
:1040bc006e08000000000000700b00000000000003
:1040cc0094100000000000006c18000000000000bc
:1040dc00c5230000000000009f330000000000001a
:1040ec002b49000000000000bc650000000000002f
:1040fc00af8a00000000000054b90000000000006e
:10410c00c5f2000000000000b937000001000000fb
:10411c00558800000100000003e4000001000000cd
:10412c004a49000002000000bfb500000200000078
:10413c000426000003000000ea95000003000000c4
:10414c00a60000000400000025610000040000002f
:10415c0070b200000400000016f000000400000023
:10416c009516000005000000ad23000005000000be
:10417c00951600000500000016f000000400000079
:10418c0070b2000004000000256100000400000073
:10419c00a700000004000000ec95000003000000e4
:1041ac000726000003000000c5b500000200000057
:1041bc00554900000200000017e400000100000057
:1041cc007a88000001000000fb37000001000000ad
:1041dc0037f300000000000016ba000000000000d9
:1041ec00f18b000000000000c86700000000000018
:1041fc00704c000000000000ba3800000000000005
:10420c00962b000000000000252400000000000098
:10421c00ca210000000000002b2400000000000058
:10422c00322b0000000000000037000000000000ee
:10423c00e047000000000000305e000000000000bd
:10424c00487a000000000000619c000000000000a3
:10425c0075c40000000000002bf2000000000000fc
:10426c00bc24000001000000eb5a0000010000001b
:10427c000893000001000000f8ca000001000000d3
:10428c005500000002000000933000000200000006
:10429c0038590000020000000b78000002000000fa
:1042ac004b8b000002000000d691000002000000c1
:1042bc004b8b0000020000000b7800000200000095
:1042cc00385900000200000092300000020000008b
:1042dc005300000002000000f5ca000001000000bd
:1042ec000293000001000000df5a000001000000f2
:1042fc00a52400000100000001f2000000000000f5
:10430c002ac4000000000000dc9b0000000000003c
:10431c006279000000000000a95c000000000000b1
:10432c005645000000000000db32000000000000d9
:10433c008f24000000000000c319000000000000e2
:10434c00cc110000000000000c0c0000000000006c
:10435c00ff07000000000000340500000000000012
:10436c0051030000000000001302000000000000d8
:10437c004501000000000000c30000000000000028
:10438c00730000000000000042000000000000006c
:10439c0025000000000000001500000000000000d7
:1043ac000b000000000000000600000000000000f0
:1043bc0003000000000000000200000000000000ec
:1043cc0001000000000000000000000000000000e0
:1043dc0000000000000000000000000000000000d1
:1043ec00ca210000000000002b2400000000000087
:1043fc00322b00000000000000370000000000001d
:10440c00e047000000000000305e000000000000eb
:10441c00487a000000000000619c000000000000d1
:10442c0075c40000000000002bf20000000000002a
:10443c00bc24000001000000eb5a00000100000049
:10444c000893000001000000f8ca00000100000001
:10445c005500000002000000933000000200000034
:10446c0038590000020000000b7800000200000028
:10447c004b8b000002000000d691000002000000ef
:10448c004b8b0000020000000b78000002000000c3
:10449c0038590000020000009230000002000000b9
:1044ac005300000002000000f5ca000001000000eb
:1044bc000293000001000000df5a00000100000020
:1044cc00a52400000100000001f200000000000023
:1044dc002ac4000000000000dc9b0000000000006b
:1044ec006279000000000000a95c000000000000e0
:1044fc005645000000000000db3200000000000008
:10450c008f24000000000000c31900000000000010
:10451c00cc110000000000000c0c0000000000009a
:10452c00ff07000000000000340500000000000040
:10453c005103000000000000130200000000000006
:10454c004501000000000000c30000000000000056
:10455c00730000000000000042000000000000009a
:10456c002500000000000000150000000000000005
:10457c000b0000000000000006000000000000001e
:10458c00030000000000000002000000000000001a
:10459c00010000000000000000000000000000000e
:1045ac0000000000000000000000000000000000ff
:1045bc0000000000000000004501000000000000a9
:1045cc00c3000000000000007300000000000000a9
:1045dc004200000000000000250000000000000068
:1045ec0015000000000000000b000000000000009f
:1045fc0006000000000000000300000000000000a6
:10460c00020000000000000001000000000000009b
:10461c00000000000000000000000000000000008e
:10462c000000000000000000ca2100000000000093
:10463c002b24000000000000322b000000000000c2
:10464c000037000000000000e04700000000000000
:10465c00305e000000000000487a000000000000fe
:10466c00619c00000000000075c400000000000008
:10467c002bf2000000000000bc2400000100000030
:10468c00eb5a00000100000008930000010000003c
:10469c00f8ca0000010000005500000002000000f4
:1046ac0093300000020000003859000002000000a6
:1046bc000b780000020000004b8b00000200000091
:1046cc00d6910000020000004b8b0000020000009d
:1046dc000b780000020000003859000002000000b6
:1046ec0092300000020000005300000002000000a5
:1046fc00f5ca000001000000029300000100000058
:10470c00df5a000001000000a52400000100000099
:10471c0001f20000000000002ac4000000000000ac
:10472c00dc9b00000000000062790000000000002b
:10473c00a95c0000000000005645000000000000cd
:10474c00db320000000000008f240000000000009d
:10475c00c319000000000000cc1100000000000094
:10476c000c0c000000000000ff070000000000001f
:10477c0034050000000000005103000000000000a0
:10478c0013020000000000004501000000000000c2
:10479c00c3000000000000007300000000000000d7
:1047ac004200000000000000250000000000000096
:1047bc0015000000000000000b00000000000000cd
:1047cc0006000000000000000300000000000000d4
:1047dc0002000000000000000100000000000000ca
:1047ec0000000000000000000000000000000000bd
:1047fc0000000000000000000000000000000000ad
:10480c00000000000000000000000000000000009c
:10481c000000000000000000450100000000000046
:10482c00c300000000000000730000000000000046
:10483c004200000000000000250000000000000005
:10484c0015000000000000000b000000000000003c
:10485c000600000000000000030000000000000043
:10486c000200000000000000010000000000000039
:10487c00000000000000000000000000000000002c
:10488c000000000000000000ca2100000000000031
:10489c002b24000000000000322b00000000000060
:1048ac000037000000000000e0470000000000009e
:1048bc00305e000000000000487a0000000000009c
:1048cc00619c00000000000075c4000000000000a6
:1048dc002bf2000000000000bc24000001000000ce
:1048ec00eb5a0000010000000893000001000000da
:1048fc00f8ca000001000000550000000200000092
:10490c009330000002000000385900000200000043
:10491c000b780000020000004b8b0000020000002e
:10492c00d6910000020000004b8b0000020000003a
:10493c000b78000002000000385900000200000053
:10494c009230000002000000530000000200000042
:10495c00f5ca0000010000000293000001000000f5
:10496c00df5a000001000000a52400000100000037
:10497c0001f20000000000002ac40000000000004a
:10498c00dc9b0000000000006279000000000000c9
:10499c00a95c00000000000056450000000000006b
:1049ac00db320000000000008f240000000000003b
:1049bc00c319000000000000cc1100000000000032
:1049cc000c0c000000000000ff07000000000000bd
:1049dc00340500000000000051030000000000003e
:1049ec001302000000000000450100000000000060
:1049fc00c300000000000000730000000000000075
:104a0c004200000000000000250000000000000033
:104a1c0015000000000000000b000000000000006a
:104a2c000600000000000000030000000000000071
:104a3c000200000000000000010000000000000067
:104a4c00000000000000000000000000000000005a
:104a5c00000000000000000000000000000000004a
:104a6c00000000000000000000000000000000003a
:104a7c0000000000000000004501000000000000e4
:104a8c00c3000000000000007300000000000000e4
:104a9c0042000000000000002500000000000000a3
:104aac0015000000000000000b00000000000000da
:104abc0006000000000000000300000000000000e1
:104acc0002000000000000000100000000000000d7
:104adc0000000000000000000000000000000000ca
:104aec000000000000000000ca21000000000000cf
:104afc002b24000000000000322b000000000000fe
:104b0c000037000000000000e0470000000000003b
:104b1c00305e000000000000487a00000000000039
:104b2c00619c00000000000075c400000000000043
:104b3c002bf2000000000000bc240000010000006b
:104b4c00eb5a000001000000089300000100000077
:104b5c00f8ca00000100000055000000020000002f
:104b6c0093300000020000003859000002000000e1
:104b7c000b780000020000004b8b000002000000cc
:104b8c00d6910000020000004b8b000002000000d8
:104b9c000b780000020000003859000002000000f1
:104bac0092300000020000005300000002000000e0
:104bbc00f5ca000001000000029300000100000093
:104bcc00df5a000001000000a524000001000000d5
:104bdc0001f20000000000002ac4000000000000e8
:104bec00dc9b000000000000627900000000000067
:104bfc00a95c000000000000564500000000000009
:104c0c00db320000000000008f24000000000000d8
:104c1c00c319000000000000cc11000000000000cf
:104c2c000c0c000000000000ff070000000000005a
:104c3c0034050000000000005103000000000000db
:104c4c0013020000000000004501000000000000fd
:104c5c00c300000000000000730000000000000012
:104c6c0042000000000000002500000000000000d1
:104c7c0015000000000000000b0000000000000008
:104c8c00060000000000000003000000000000000f
:104c9c000200000000000000010000000000000005
:104cac0000000000000000000000000000000000f8
:104cbc0000000000000000000000000000000000e8
:104ccc0000000000000000000000000000000000d8
:104cdc000000000000000000450100000000000082
:104cec00c300000000000000730000000000000082
:104cfc004200000000000000250000000000000041
:104d0c0015000000000000000b0000000000000077
:104d1c00060000000000000003000000000000007e
:104d2c000200000000000000010000000000000074
:104d3c000000000000000000000000000000000067
:104d4c000000000000000000ca210000000000006c
:104d5c002b24000000000000322b0000000000009b
:104d6c000037000000000000e047000000000000d9
:104d7c00305e000000000000487a000000000000d7
:104d8c00619c00000000000075c4000000000000e1
:104d9c002bf2000000000000bc2400000100000009
:104dac00eb5a000001000000089300000100000015
:104dbc00f8ca0000010000005500000002000000cd
:104dcc00933000000200000038590000020000007f
:104ddc000b780000020000004b8b0000020000006a
:104dec00d6910000020000004b8b00000200000076
:104dfc000b7800000200000038590000020000008f
:104e0c00923000000200000053000000020000007d
:104e1c00f5ca000001000000029300000100000030
:104e2c00df5a000001000000a52400000100000072
:104e3c0001f20000000000002ac400000000000085
:104e4c00dc9b000000000000627900000000000004
:104e5c00a95c0000000000005645000000000000a6
:104e6c00db320000000000008f2400000000000076
:104e7c00c319000000000000cc110000000000006d
:104e8c000c0c000000000000ff07000000000000f8
:104e9c003405000000000000510300000000000079
:104eac00130200000000000045010000000000009b
:104ebc00c3000000000000007300000000000000b0
:104ecc00420000000000000025000000000000006f
:104edc0015000000000000000b00000000000000a6
:104eec0006000000000000000300000000000000ad
:104efc0002000000000000000100000000000000a3
:104f0c000000000000000000000000000000000095
:104f1c000000000000000000000000000000000085
:104f2c000000000000000000000000000000000075
:104f3c00000000000000000045010000000000001f
:104f4c00c30000000000000073000000000000001f
:104f5c0042000000000000002500000000000000de
:104f6c0015000000000000000b0000000000000015
:104f7c00060000000000000003000000000000001c
:104f8c000200000000000000010000000000000012
:104f9c000000000000000000000000000000000005
:104fac000000000000000000ca210000000000000a
:104fbc002b24000000000000322b00000000000039
:104fcc000037000000000000e04700000000000077
:104fdc00305e000000000000487a00000000000075
:104fec00619c00000000000075c40000000000007f
:104ffc002bf2000000000000bc24000001000000a7
:10500c00eb5a0000010000000893000001000000b2
:10501c00f8ca00000100000055000000020000006a
:10502c00933000000200000038590000020000001c
:10503c000b780000020000004b8b00000200000007
:10504c00d6910000020000004b8b00000200000013
:10505c000b7800000200000038590000020000002c
:10506c00923000000200000053000000020000001b
:10507c00f5ca0000010000000293000001000000ce
:10508c00df5a000001000000a52400000100000010
:10509c0001f20000000000002ac400000000000023
:1050ac00dc9b0000000000006279000000000000a2
:1050bc00a95c000000000000564500000000000044
:1050cc00db320000000000008f2400000000000014
:1050dc00c319000000000000cc110000000000000b
:1050ec000c0c000000000000ff0700000000000096
:1050fc003405000000000000510300000000000017
:10510c001302000000000000450100000000000038
:10511c00c30000000000000073000000000000004d
:10512c00420000000000000025000000000000000c
:10513c0015000000000000000b0000000000000043
:10514c00060000000000000003000000000000004a
:10515c000200000000000000010000000000000040
:10516c000000000000000000000000000000000033
:10517c000000000000000000000000000000000023
:10518c0000000000000000000b0000000000000008
:10519c0006000000000000000300000000000000fa
:1051ac0002000000000000000100000000000000f0
:1051bc0000000000000000000000000000000000e3
:1051cc000000000000000000ca21000000000000e8
:1051dc002b24000000000000322b00000000000017
:1051ec000037000000000000e04700000000000055
:1051fc00305e000000000000487a00000000000053
:10520c00619c00000000000075c40000000000005c
:10521c002bf2000000000000bc2400000100000084
:10522c00eb5a000001000000089300000100000090
:10523c00f8ca000001000000550000000200000048
:10524c0093300000020000003859000002000000fa
:10525c000b780000020000004b8b000002000000e5
:10526c00d6910000020000004b8b000002000000f1
:10527c000b7800000200000038590000020000000a
:10528c0092300000020000005300000002000000f9
:10529c00f5ca0000010000000293000001000000ac
:1052ac00df5a000001000000a524000001000000ee
:1052bc0001f20000000000002ac400000000000001
:1052cc00dc9b000000000000627900000000000080
:1052dc00a95c000000000000564500000000000022
:1052ec00db320000000000008f24000000000000f2
:1052fc00c319000000000000cc11000000000000e9
:10530c000c0c000000000000ff0700000000000073
:10531c0034050000000000005103000000000000f4
:10532c001302000000000000450100000000000016
:10533c00c30000000000000073000000000000002b
:10534c0042000000000000002500000000000000ea
:10535c0015000000000000000b0000000000000021
:10536c000600000000000000030000000000000028
:10537c00020000000000000001000000000000001e
:10538c000000000000000000000000000000000011
:10539c000000000000000000000000000000000001
:1053ac0000000000000000000b00000000000000e6
:1053bc0006000000000000000300000000000000d8
:1053cc0002000000000000000100000000000000ce
:1053dc0000000000000000000000000000000000c1
:1053ec000000000000000000ca21000000000000c6
:1053fc002b24000000000000322b000000000000f5
:10540c000037000000000000e04700000000000032
:10541c00305e000000000000487a00000000000030
:10542c00619c00000000000075c40000000000003a
:10543c002bf2000000000000bc2400000100000062
:10544c00eb5a00000100000008930000010000006e
:10545c00f8ca000001000000550000000200000026
:10546c0093300000020000003859000002000000d8
:10547c000b780000020000004b8b000002000000c3
:10548c00d6910000020000004b8b000002000000cf
:10549c000b780000020000003859000002000000e8
:1054ac0092300000020000005300000002000000d7
:1054bc00f5ca00000100000002930000010000008a
:1054cc00df5a000001000000a524000001000000cc
:1054dc0001f20000000000002ac4000000000000df
:1054ec00dc9b00000000000062790000000000005e
:1054fc00a95c000000000000564500000000000000
:10550c00db320000000000008f24000000000000cf
:10551c00c319000000000000cc11000000000000c6
:10552c000c0c000000000000ff0700000000000051
:10553c0034050000000000005103000000000000d2
:10554c0013020000000000004501000000000000f4
:10555c00c300000000000000730000000000000009
:10556c0042000000000000002500000000000000c8
:10557c0015000000000000000b00000000000000ff
:10558c000600000000000000030000000000000006
:10559c0002000000000000000100000000000000fc
:1055ac0000000000000000000000000000000000ef
:1055bc0000000000000000000000000000000000df
:1055cc0000000000000000000b00000000000000c4
:1055dc0006000000000000000300000000000000b6
:1055ec0002000000000000000100000000000000ac
:1055fc00000000000000000000000000000000009f
:10560c000000000000000000ca21000000000000a3
:10561c002b24000000000000322b000000000000d2
:10562c000037000000000000e04700000000000010
:10563c00305e000000000000487a0000000000000e
:10564c00619c00000000000075c400000000000018
:10565c002bf2000000000000bc2400000100000040
:10566c00eb5a00000100000008930000010000004c
:10567c00f8ca000001000000550000000200000004
:10568c0093300000020000003859000002000000b6
:10569c000b780000020000004b8b000002000000a1
:1056ac00d6910000020000004b8b000002000000ad
:1056bc000b780000020000003859000002000000c6
:1056cc0092300000020000005300000002000000b5
:1056dc00f5ca000001000000029300000100000068
:1056ec00df5a000001000000a524000001000000aa
:1056fc0001f20000000000002ac4000000000000bd
:10570c00dc9b00000000000062790000000000003b
:10571c00a95c0000000000005645000000000000dd
:10572c00db320000000000008f24000000000000ad
:10573c00c319000000000000cc11000000000000a4
:10574c000c0c000000000000ff070000000000002f
:10575c0034050000000000005103000000000000b0
:10576c0013020000000000004501000000000000d2
:10577c00c3000000000000007300000000000000e7
:10578c0042000000000000002500000000000000a6
:10579c0015000000000000000b00000000000000dd
:1057ac0006000000000000000300000000000000e4
:1057bc0002000000000000000100000000000000da
:1057cc0000000000000000000000000000000000cd
:1057dc0000000000000000000000000000000000bd
:1057ec0000000000000000000b00000000000000a2
:1057fc000600000000000000030000000000000094
:10580c000200000000000000010000000000000089
:10581c00000000000000000000000000000000007c
:10582c000000000000000000ca2100000000000081
:10583c002b24000000000000322b000000000000b0
:10584c000037000000000000e047000000000000ee
:10585c00305e000000000000487a000000000000ec
:10586c00619c00000000000075c4000000000000f6
:10587c002bf2000000000000bc240000010000001e
:10588c00eb5a00000100000008930000010000002a
:10589c00f8ca0000010000005500000002000000e2
:1058ac009330000002000000385900000200000094
:1058bc000b780000020000004b8b0000020000007f
:1058cc00d6910000020000004b8b0000020000008b
:1058dc000b780000020000003859000002000000a4
:1058ec009230000002000000530000000200000093
:1058fc00f5ca000001000000029300000100000046
:10590c00df5a000001000000a52400000100000087
:10591c0001f20000000000002ac40000000000009a
:10592c00dc9b000000000000627900000000000019
:10593c00a95c0000000000005645000000000000bb
:10594c00db320000000000008f240000000000008b
:10595c00c319000000000000cc1100000000000082
:10596c000c0c000000000000ff070000000000000d
:10597c00340500000000000051030000000000008e
:10598c0013020000000000004501000000000000b0
:10599c00c3000000000000007300000000000000c5
:1059ac004200000000000000250000000000000084
:1059bc0015000000000000000b00000000000000bb
:1059cc0006000000000000000300000000000000c2
:1059dc0002000000000000000100000000000000b8
:1059ec0000000000000000000000000000000000ab
:1059fc00000000000000000000000000000000009b
:105a0c0000000000000000009703000000000000f0
:105a1c001a06000000000000290a00000000000027
:105a2c009510000000000000891a00000000000022
:105a3c009d29000000000000f83f0000000000005d
:105a4c0064600000000000005e8e0000000000009a
:105a5c001cce0000000000007b24000001000000b0
:105a6c00d596000001000000af2a000002000000e3
:105a7c004ce500000200000012cb00000300000007
:105a8c00e1de0000040000005221000006000000ce
:105a9c000a90000007000000272500000900000004
:105aac00fbd600000a000000119800000c0000005a
:105abc00a95700000e000000980200001000000022
:105acc009384000011000000bec900001200000009
:105adc0058c0000013000000555a000014000000cc
:105aec00b38e000014000000555a00001400000092
:105afc0058c0000013000000bec9000012000000d6
:105b0c0093840000110000009802000010000000b7
:105b1c00a95700000e000000119800000c000000b6
:105b2c00fbd600000a000000272500000900000039
:105b3c000a9000000700000053210000060000003e
:105b4c00e1de00000400000012cb000003000000a6
:105b5c004ce5000002000000b02a0000020000002a
:105b6c00d796000001000000802400000100000016
:105b7c0025ce000000000000708e00000000000028
:105b8c0088600000000000003c40000000000000a5
:105b9c00192a000000000000691b00000000000032
:105bac002312000000000000da0c000000000000ce
:105bbc00ad0a000000000000360b000000000000e1
:105bcc00820e000000000000121500000000000012
:105bdc00dc1f00000000000054300000000000003a
:105bec007b48000000000000df6a0000000000009d
:105bfc00a29a00000000000063db0000000000001f
:105c0c00233100000100000005a00000010000008d
:105c1c00f92b0000020000004ed80000020000002a
:105c2c0029a7000003000000fe98000004000000fb
