:020000040000fa
:080000001003040000000000e1
:020000040000fa
:10000800440a0000380a00004e0a0000240a0000d2
:100018002e0a00004e0a00004e0a00004e0a000098
:100028004e0a00004e0a00004e0a00006008000058
:100038004e0a00004e0a00004e0a0000b2090000f5
:10004800ba0900004e0a00004e0a00005a060000d5
:10005800e20700000a0400004e0a00004e0a0000f1
:100068004e0a0000e80900004e0a00004e0a00008f
:1000780058090000ca0900004e0a00004e0a000094
:100088004e0a00004e0a00004e0a0000c209000095
:100098003e09000076090000000500001206000075
:1000a8004e0a00004e0a00004e0a00004e0a0000e8
:1000b8004e0a00004e0a00004e0a00004e0a0000d8
:1000c8004e0a00004e0a00004e0a00004e0a0000c8
:1000d8004e0a00004e0a00004e0a000046090000c1
:1000e8004e0a00004e0a0000060a00004e0a0000f0
:1000f8004e0a0000940900004e0a00004e0a000053
:100108004e0a00004e0a00004e0a00004e0a000087
:100118004e0a00004e0a00004e0a00004e0a000077
:100128004e0a00004e0a00004e0a00004e0a000067
:100138004e0a00004e0a00004e0a00004e0a000057
:100148004e0a00004e0a00004e0a00004e0a000047
:100158004e0a00004e0a00004e0a00004e0a000037
:100168004e0a00004e0a00004e0a00004e0a000027
:100178004e0a00004e0a00004e0a00004e0a000017
:100188004e0a00004e0a00004e0a00004e0a000007
:100198004e0a00004e0a00004e0a00004e0a0000f7
:1001a8004e0a00004e0a00004e0a00004e0a0000e7
:1001b8004e0a00004e0a00004e0a00004e0a0000d7
:1001c8004e0a00004e0a00004e0a00004e0a0000c7
:1001d8004e0a00004e0a00004e0a00004e0a0000b7
:1001e8004e0a00004e0a00004e0a00004e0a0000a7
:1001f8004e0a00004e0a00004e0a00004e0a000097
:100208004e0a00004e0a00004e0a00004e0a000086
:100218004e0a00004e0a00004e0a00004e0a000076
:100228004e0a00004e0a00004e0a00004e0a000066
:100238004e0a00004e0a00004e0a00004e0a000056
:100248004e0a00004e0a00004e0a00004e0a000046
:100258004e0a00004e0a00004e0a00004e0a000036
:020000040000fa
:100400000000fa00a06a220010407800e14f50007e
:1004100058003a00705781008157810000448900dc
:1004200011448900a0bc22009000900010007800c8
:100430002044890031448900606b2200104078001c
:10044000e14f50004b003a00406b22001040780012
:100450000080fb00e10f50003f003200e10f500030
:100460003f003c000000e00042003a00823681007c
:10047000933681000044810011448100800f5100b7
:10048000818f590026003c00f06c2200104078005b
:100490000004e00004003200f06c220010407800fc
:1004a000e24f500030003a00a2bc22006000b800c9
:1004b0000089be006000b8002044890031448900f2
:1004c0000000eb00c03589000000eb00d03589004a
:1004d0000000eb00e03589000000eb00f0358900fa
:1004e0006000b80030368900413689006000b800ed
:1004f0005036890061368900607122008040eb002f
:1005000001487800406b220011c0b3000148780018
:10051000e06c22008040eb000148780015003700b5
:10052000004481001144810060001000e080180048
:10053000c0438900d143890082368100933681000f
:10054000c0438100d1438100800f5100818f590049
:1005500007003c00070037000000000005003700de
:100560000000000003003700000000000100370019
:0c057000000000000080fa0000000600ff
:020000040000fa
:10057c000400fa00000f780011079800867502003d
:10058c0000000000fdff37000000fa000080fa00b8
:04059c000000060055
:020000040000fa
:100600004d530000485000004858000030300000b2
:020000040000fa
:08061000312e00003330000020
:020000040000fa
:08061800322e0000303000001a
:020000040000fa
:10062000af4c23000e2927000e01880000000000b7
:10063000000020000000e000020032000001200065
:100640002002880014000700960307000000e00065
:1006500003003a00407b2a0001002000020037001e
:100660000000200001002000810f70000100320016
:100670000f000700000020000000e0000200320030
:100680000000020000000000be02020000000000a6
:100690000040da000000fe00800b24000000e000b3
:1006a00002003200002020009001880000000600b7
:1006b000a1028800800478000000eb001f003700d2
:1006c000e284440054a0b4009905ba00e2844400d6
:1006d00054a0b4009906ba00e284440054a0b400c7
:1006e0000006eb00476fde00fd07b200ae01880098
:1006f000636ce10003003a000ad801000000eb003f
:100700000e003700606ce10008003a00004deb007d
:100710000a05e800020039003420ec000af0a000cd
:100720008b05e900f9ff3e00040037006168e10035
:10073000010032000086eb000b00070019c7ba0069
:100740000e04e0001905ba0003003a000a00e000b8
:10075000dbff3a0000000600fe07b200ae02880090
:100760008a047800f5ff37000cd0a300e20f4d009b
:100770001c003b0089027800354dba000a05e800ec
:10078000020039003420ec000af0a0008b05e900db
:100790000f003200254dba000a05e80002003900ba
:1007a0003420ec000af0a0008b05e90008003200bc
:1007b0000c00e0000600320015cdba000a05e80082
:1007c000020039003420ec000af0a0008b05e9009b
:1007d0008984e80054a0b4000b00e000e2ff3a0076
:1007e000000006009902ba00055d78008b05e9005b
:1007f000f7ff3200c82ade00055d78008b05e900ae
:10080000f3ff32000c00e000f1ff320019ddba0006
:10081000eeff37003600f800809fbe00829fbe00ca
:10082000849fbe00869fbe000000fa0020ba22000e
:10083000104078000004e00069003a0040ba22004d
:10084000104078000004e00019003a0040ba22008d
:10085000104078000080fb0002188000cf80de008e
:1008600062004000e08048000000400081804800b5
:1008700023ba2200030040000208780040ba220098
:1008800011c0b3000148780040ba2200104078003f
:100890000080fb00cf80de0022de2c000000410043
:1008a00010407800e6a60200000000004c0037006f
:1008b00040ba220010407800e14f500019003a0081
:1008c00040ba2200104078000080fb00021880002f
:1008d000cf80de0062004000e08048000000400061
:1008e0008180480023ba22000300400002087800fb
:1008f00040ba220021c0b3000148780040ba22006b
:10090000104078000080fb00cf80de0022de2c004b
:100910000000410010407800e6a602000000000040
:100920002f00370040ba220010407800e24f5000fc
:1009300019003a0040ba2200104078000080fb0005
:1009400002188000cf80de0062004000e080480096
:10095000000040008180480023ba220003004000cc
:100960000208780040ba220031c0b3000148780084
:1009700040ba2200104078000080fb00cf80de00eb
:1009800022de2c000000410010407800e6a60200a4
:10099000000000001200370040ba2200104078002a
:1009a0000080fb0002188000cf80de006200400063
:1009b000e0804800000040008180480023ba220007
:1009c000030040000208780040ba22008040eb009b
:1009d0000148780030ba220031c0b30001487800e5
:1009e00001a8a9000080fa004f03be004f02be001c
:1009f0004f01be004f00be003600f9000040060067
:100a0000809fbe00829fbe000000fa00107222008c
:100a1000104078000004e00060003a003080800060
:100a2000b1118000014178008000eb008002b0002d
:100a30000180b0000300210003004000024878005c
:100a400000002100104078000080fb00e10f500002
:100a500011003200e20f5000680032000000e00098
:100a600068003a008002210090407800b0c5b300d1
:100a700080cf500065003a001000200030808800d0
:100a80000000210011c0b3000148780010002000d0
:100a9000108088005e003700308080008000eb000e
:100aa0008002b0000180b00002002100020040007e
:100ab00090407800d0c5b30080cf50002b003200aa
:100ac000308080008000eb008002b0000180b00028
:100ad000020021000200400090407800b0c5b30041
:100ae00080cf50000e003a00308080008000eb0084
:100af0008002b0000180b00002002100020040002e
:100b00009040780080022100014878001000200009
:100b10003080880010002000108088003c003700e2
:100b200031808000e00f2000808f500007003e00e1
:100b3000308080000000e800308088001080800055
:100b40000000e8001080880031003700000021001c
:100b50008040eb00014878000000eb003080880006
:100b60000000eb0010808800290037000000210001
:100b700031c0b300014878000000eb0030808800ed
:100b8000108080000000e80010808800c031220042
:100b900021c0b300014878001d003700308080007c
:100ba000b1118000014178008000eb008002b000ac
:100bb0000180b000030021000300400002487800db
:100bc000308080000000e8003080880010808000c5
:100bd0000000e8001080880011808000004b200099
:100be000808f50000a0036000000eb001080880063
:100bf0000000eb0030808800050037000000000096
:100c00000300370000000000010037000000000072
:100c100003c8a9000080fa004f01be004f00be00cb
:100c200000400600809fbe00821f78000000fa008e
:100c300010722200104078000004e00018003a0012
:100c4000e0a680000000e800e0a68800e1a68000a1
:100c5000d0a68000808f50000a003100e0a68000fe
:100c60008000eb0066004000e0804800824d2100db
:100c700002004000104078000080fb00a0118800b6
:100c800007003700804d21008040eb0001487800cc
:100c90000000eb00e0a688000000eb00d0a6880072
:100ca00003e8a9000080fa004f0178004f00be0061
:100cb00000400600809fbe00829fbe000000fa0038
:100cc00010722200104078000004e00060003a003a
:100cd000a0cc800031118000014178008000eb0041
:100ce0008002b0000180b000e398210003004000c2
:100cf00002487800e0982100104078000080fb0056
:100d0000e10f500011003200e20f5000a10032004c
:100d10000000e000a1003a00609b210090407800b4
:100d2000b0c5b30080cf50009e003a0010002000f4
:100d3000a0cc8800e098210011c0b30001487800e1
:100d40001000200080cc880099003700a0cc8000e3
:100d50008000eb008002b0000180b000e29821002a
:100d60000200400090407800d0c5b30080cf500012
:100d70002b003200a0cc80008000eb008002b0008d
:100d80000180b000e298210002004000904078000d
:100d9000b0c5b30080cf50000e003a00a0cc800058
:100da0008000eb008002b0000180b000e2982100da
:100db0000200400090407800609b210001487800cc
:100dc00010002000a0cc88001000200080cc8800fb
:100dd00077003700a1cc8000e00f2000808f50000a
:100de00007003e00a0cc80000000e800a0cc8800f6
:100df00080cc80000000e80080cc88006c003700c8
:100e0000e09821008040eb00014878000000eb00f2
:100e1000a0cc88000000eb0080cc88006400370084
:100e2000e098210031c0b300014878000000eb00d9
:100e3000a0cc880080cc80000000e80080cc880036
:100e4000c031220011c0b3000148780058003700bb
:100e50003011800080407800303222000148780054
:100e600030322200104078000080fb00a011880082
:100e700020322200104078000080fb00e10f50007b
:100e800015003200e10f500003003c000000e000bc
:100e9000060032003b003700e20f50001d00320018
:100ea000e30f50002a0032003600370030322200b3
:100eb00090407800b0c2b30080cf50003b003a00b1
:100ec00020322200104078008040e80020322200ca
:100ed0000148780036003700303222009040780018
:100ee000d0c2b30080cf500006003a00203222006a
:100ef000104078008040e80020322200014878004d
:100f00002b003700203222008040eb00014878009f
:100f100027003700303222009040780030c2b30002
:100f200080cf500006003a002032220010407800a6
:100f30008040e80020322200014878001c00370081
:100f4000203222008040eb00014878001800370072
:100f50003032220090407800f0c3b30080cf5000c0
:100f600004003a004032220011c0b300014878006a
:100f70000f003700203222008040eb00014878004b
:100f80000b003700203222008040eb00014878003f
:100f900007003700000000000500370000000000d7
:100fa00003003700000000000100370000000000cf
:100fb0000168a9000080fa004f01be004f00be008a
:100fc00000400600809fbe00821f78000000fa00eb
:100fd00010722200104078000004e0001a003a006d
:100fe00050f380000000e80050f3880051f38000c7
:100ff00040f38000808f50000a00310050f38000e1
:101000008000eb0066004000e080480062e62100be
:1010100002004000104078000080fb002011880092
:101020002200370060e621008040eb000148780094
:101030000000eb0050f388000000eb0040f3880054
:10104000522ea9001900370050f380000000e8007c
:1010500050f3880051f3800040f38000808f5000ef
:101060000a00310050f380008000eb006600400071
:10107000e080480062e62100020040001040780055
:101080000080fb00201188000800370060e6210086
:101090008040eb00014878000000eb0050f388002e
:1010a0000000eb0040f38800522ea9000188a9003f
:1010b0000080fa004f0178004f00be00004006009b
:1010c000809fbe00829fbe00849fbe00861f780066
:1010d0000200fa00005d81000000e800005d890068
:1010e000015d8100703e2000808f500008003600b6
:1010f000703581008135810061004000e08048004a
:1011000070358900813589000000eb00005d8900a1
:101110000040eb00004f78004e0037001e80fb00bf
:10112000cf80de00e609b900e002b9008401780052
:1011300003014100630020000300b80001014100e9
:101140008200780064004000e080480022b5220060
:101150000200400010407800e14f50003c003a008f
:101160009e81fb006118b900e609b900e002b900f0
:1011700004014100640020000400b80001014100a6
:101180008200780022b5220002004000900090000a
:101190001000780061025000e08258006118b90028
:1011a000e609b900e003b9008601780003014100b7
:1011b000630020000300b8000101410082007800b4
:1011c00022b52200020040000488be001e80fb0001
:1011d000cf80de00e609b900e002b90084017800a2
:1011e00003014100630020000300b8000101410039
:1011f0008200780022b5220002004000900090009a
:1012000010007800e00f5000e08f580010003a0006
:101210001e80fb00cf80de00e609b900e003b900c4
:101220008601780003014100630020000300b8003c
:10123000010141008200780064004000e080480025
:1012400022b522000200400021c0b300014878000e
:101250001e4fe8001e407800ec4f5000afff3600f4
:101260000068a9000080fa004f0378004f02be001a
:101270004f01be004f00be00004006000000fa0013
:101280000388a9000080fa0000400600809fbe008d
:101290000000fa00f072220011c0b300014878008b
:1012a00005e8a9000080fa004f00be0000400600db
:1012b0003600f800809fbe00829fbe00849fbe0063
:1012c000869fbe000000fa005ea102000000000040
:1012d0000080fa004f03be004f02be004f01be0067
:1012e0004f00be003600f900004006003600f8004e
:1012f000809fbe00829fbe00849fbe00869fbe006e
:101300000000fa0022a20200000000000080fa00a3
:101310004f03be004f02be004f01be004f00be0093
:101320003600f900004006003600f800809fbe003d
:10133000829fbe00849fbe00869fbe000000fa0010
:101340006ca20200000000000080fa004f03be0003
:101350004f02be004f01be004f00be003600f90034
:10136000004006000000fa0000e8a9000080fa0032
:10137000004006000000fa000108a9000080fa0001
:10138000004006000000fa000368a9000080fa008f
:10139000004006003600f800809fbe00829fbe001d
:1013a000849fbe00869fbe000000fa00fea60200d9
:1013b000000000000080fa004f03be004f02be0094
:1013c0004f01be004f00be003600f900004006008d
:1013d0003600f800809fbe00829fbe00849fbe0042
:1013e000869fbe000000fa00ec9902000000000099
:1013f0000080fa004f03be004f02be004f01be0046
:101400004f00be003600f900004006003600f8002c
:10141000809fbe00829fbe00849fbe00869fbe004c
:101420000000fa00f4990200000000000080fa00b9
:101430004f03be004f02be004f01be004f00be0072
:101440003600f900004006000000fa00000000002d
:10145000000000000080fa00004006000000fa00d2
:1014600000000000000000000080fa0000400600bc
:101470000000fa000000000000000000c028ef009b
:101480000080fa00004006000000fa0000000000a2
:10149000000000000080fa00004006000040da0072
:1014a0000000fe0000000500839f68000100e000ce
:1014b00002003d0060001000e08018000300e00022
:1014c00002003d0060011100e081190005000700e5
:1014d0004f00e00002003b0060001000e0801800b8
:1014e000000006006022b800060220000000d000c4
:1014f0008180d2000482d2008582d2000000a00048
:101500000202520083825a000300310002024200ac
:1015100083824a000000a1000603e900f3ff3a00bd
:1015200000000600889fbe008a9fbe003004420073
:10153000b0844a0030054b0090854b006000b1003c
:101540000898be000a90be000440e10005c8e10012
:1015500006d0e10007d8e100020031006800400039
:101560001008e8004f05be004f04be000000060052
:10157000889fbe008a9fbe001004780090049000ef
:1015800020059000b00590000418540005985c00f8
:1015900006185d0007985d00110020000440e1007e
:1015a00005c8e10006d0e10007d8e10001003900dc
:1015b0008000eb00108810004f05be004f04be00f5
:1015c000000006001200fa00889fbe008a9fbe003d
:1015d0008c9fbe00e0b79f00f1b79f0082bf9f00c5
:1015e00093bf9f000605be000404be000000eb0090
:1015f000d0b79f00c0b79f00b0b79f00a0b79f00b3
:1016000090b79f00000678005fb19700cfb09700b9
:10161000820141003fb097000200e00004003d005d
:10162000370007007e805700beff07000300370029
:10163000330007007e805700cdff0700dfb697001c
:101640000d00e0000c0035006fb29700ffb297006c
:101650000fbb97009fbb97001000200001002000e7
:101660006011b800000272008182720002037300f0
:10167000838373001b0007000c06e80001042000b0
:10168000810f5600e0ff3a000d00e00004003d002d
:101690000802be000a03be007e805700a1ff0700bb
:1016a0005fa897000000e00005003a001fb2970015
:1016b000afb297003fb39700cfb397000900070080
:1016c0006fb09700ffb097000fb997009fb99700d0
:1016d0004f06be004f05be004f04be000080fa005a
:1016e000000006000100070000000600a4b79f00ec
:1016f000b5b79f00c6b79f00d7b79f000000060090
:101700004f09de0082817100b3b79f004f01de00f8
:101710008180400082807000a1b79f008fb0970049
:101720004f09de00000040000200700090b79f00eb
:101730007fa897004f01de0081804000828070000a
:1017400081b79f000d0007004f3ade000000400007
:1017500004007000f0af9f00080007000402420080
:1017600085824a0006034b0087834b00dfff07009a
:101770000802be000a03be00000006002fb2970058
:10178000bfb297004fb39700dfb397000000060089
:10179000881f780018002000881f780089ff070044
:1017a0008f87e9004f04780000000600801feb00df
:1017b00084ff07008f87e90000000600889fbe00b5
:1017c0008a9fbe00e00f5000e08f5800e00f5900e4
:1017d000e08f59000c003d006044b8006055b8002f
:1017e0000000540081805c0002015d0083815d0087
:1017f000180020001500070008003d001800070031
:101800000004eb00050037000004eb000f000700a8
:1018100002003d001200070018002000dcff070056
:101820000800e000060032006022b8006033b80013
:101830000000520081805a0002015b0083815b003e
:101840004f05be004f04be0000000600e00f52002e
:10185000e08f5a00e00f5b00e08f5b0000000600a5
:101860006044b8006055b8000402540085825c00f2
:1018700006035d0087835d0000000600889fbe00b0
:101880008a9fbe008c1f7800e00f5000e08f580048
:10189000e00f5900e08f59000d003d006044b80092
:1018a0006055b8000000540081805c0002015d00ba
:1018b00083815d001c0020000820e10009a8e100f0
:1018c0000ab0e1000bb8e1000d003d000800370050
:1018d0000006eb00e00f5200e08f5a00e00f5b00c3
:1018e000e08f5b0006003d006044b8006055b80022
:1018f0000402540085825c0006035d0087835d005e
:10190000aaff07000c00e000060032006022b800c9
:101910006033b8000000520081805a0002015b0071
:1019200083815b004f0678004f05be004f04be0068
:1019300000000600889fbe008a9fbe008c1f7800b2
:101940000006eb00e00f5000e08f5800e00f590058
:10195000e08f590007003d006044b8006055b800b2
:101960000000540081805c0002015d0083815d0005
:101970001c002000e00f5200e08f5a00e00f5b00d7
:10198000e08f5b0007003d006044b8006055b80080
:101990000402540085825c0006035d0087835d00bd
:1019a0000c00a2000c0007000c00e0000600320052
:1019b0006022b8006033b8000000520081805a00f5
:1019c00002015b0083815b004f0678004f05be007b
:1019d0004f04be0000000600889fbe008a9fbe0024
:1019e0008c9fbe000404b8000506b80089044600b8
:1019f00060854e000606b8000a054600e0854e00e8
:101a00000706b8008b054600040eb800890446009e
:101a10000a854e00e0854d00050eb8000a05460017
:101a20008b854e00060eb8008b0546000416b800e4
:101a30000a0546008b854e000516b8008b0546004a
:101a4000041eb8008b0546000800be000a01be0057
:101a50004f06be004f05be004f04be00000006004a
:020000040000fa
:101a600097030000000000001a06000000000000bc
:101a7000290a00000000000095100000000000008e
:101a8000891a0000000000009d29000000000000ed
:101a9000f83f00000000000064600000000000004b
:101aa0005e8e0000000000001cce00000000000060
:101ab0007b24000001000000d5960000010000001a
:101ac000af2a0000020000004ce500000200000008
:101ad00012cb000003000000e1de00000400000063
:101ae00052210000060000000a90000007000000dc
:101af0002725000009000000fbd600000a000000b6
:101b0000119800000c000000a95700000e00000012
:101b100098020000100000009384000011000000f3
:101b2000bec900001200000058c0000013000000f1
:101b3000555a000014000000b38e0000140000008d
:101b4000555a00001400000058c0000013000000a7
:101b5000bec90000120000009384000011000000c4
:101b60009802000010000000a95700000e000000bd
:101b7000119800000c000000fbd600000a000000d5
:101b800027250000090000000a900000070000005f
:101b90005321000006000000e1de00000400000008
:101ba00012cb0000030000004ce500000200000022
:101bb000b02a000002000000d796000001000000db
:101bc000802400000100000025ce0000000000007d
:101bd000708e00000000000088600000000000001f
:101be0003c40000000000000192a00000000000036
:101bf000691b00000000000023120000000000002c
:101c0000da0c000000000000ad0a00000000000037
:101c1000360b000000000000820e000000000000f3
:101c20001215000000000000dc1f00000000000092
:101c300054300000000000007b480000000000005d
:101c4000df6a000000000000a29a0000000000000f
:101c500063db0000000000002331000001000000f1
:101c600005a0000001000000f92b000002000000a8
:101c70004ed800000200000029a700000300000069
:101c8000fe9800000400000007ac00000500000002
:101c9000dedb0000060000003c2100000800000020
:101ca0000d72000009000000bfc100000a00000022
:101cb000f20100000c0000006e2300000d00000087
:101cc0004f1700000e00000042d000000e00000080
:101cd000c04300000f000000066b00000f00000072
:101ce000c04300000f00000042d000000e000000c2
:101cf0004f1700000e0000006e2300000d000000d2
:101d0000f20100000c000000bfc100000a0000004a
:101d10000d720000090000003c21000008000000d6
:101d2000dedb00000600000007ac0000050000003c
:101d3000fe9800000400000029a700000300000036
:101d40004ed8000002000000fa2b00000200000044
:101d500007a0000001000000263100000100000083
:101d600069db000000000000ad9a000000000000e8
:101d7000f36a0000000000009e4800000000000020
:101d800090300000000000003f2000000000000034
:101d9000b2150000000000007d0f000000000000f0
:101da000b30c000000000000de0c0000000000008a
:101db000f60f0000000000005c16000000000000ac
:101dc000dd20000000000000af3000000000000037
:101dd00073470000000000003267000000000000b0
:101de000509200000000000074cb000000000000d2
:101df0005c15000001000000a87200000100000056
:101e00008ae5000001000000716f00000200000080
:101e1000a91000000300000005c800000300000036
:101e200094920000040000007e6b0000050000009a
:101e3000094c000006000000d42b00000700000041
:101e40004c010000080000004ac200000800000029
:101e5000df640000090000002ce000000900000021
:101e60002b2d00000a000000594700000a00000066
:101e70002b2d00000a0000002ce0000009000000eb
:101e8000df640000090000004ac2000008000000f2
:101e90004c01000008000000d42b000007000000e7
:101ea000094c0000060000007e6b000005000000e9
:101eb000949200000400000005c800000300000028
:101ec000a910000003000000716f00000200000074
:101ed00089e5000001000000a77200000100000079
:101ee00059150000010000006ecb0000000000004a
:101ef00044920000000000001a670000000000008b
:101f000045470000000000005b30000000000000ba
:101f100047200000000000005315000000000000f2
:101f20002a0e000000000000d1090000000000009f
:101f30009f070000000000003207000000000000c2
:101f40006e08000000000000700b000000000000a0
:101f500094100000000000006c1800000000000059
:101f6000c5230000000000009f33000000000000b7
:101f70002b49000000000000bc65000000000000cc
:101f8000af8a00000000000054b90000000000000b
:101f9000c5f2000000000000b93700000100000099
:101fa000558800000100000003e40000010000006b
:101fb0004a49000002000000bfb500000200000016
:101fc0000426000003000000ea9500000300000062
:101fd000a6000000040000002561000004000000cd
:101fe00070b200000400000016f0000004000000c1
:101ff0009516000005000000ad230000050000005c
:10200000951600000500000016f000000400000016
:1020100070b2000004000000256100000400000010
:10202000a700000004000000ec9500000300000081
:102030000726000003000000c5b5000002000000f4
:10204000554900000200000017e4000001000000f4
:102050007a88000001000000fb370000010000004a
:1020600037f300000000000016ba00000000000076
:10207000f18b000000000000c867000000000000b5
:10208000704c000000000000ba38000000000000a2
:10209000962b000000000000252400000000000036
:1020a000ca210000000000002b24000000000000f6
:1020b000322b00000000000000370000000000008c
:1020c000e047000000000000305e0000000000005b
:1020d000487a000000000000619c00000000000041
:1020e00075c40000000000002bf20000000000009a
:1020f000bc24000001000000eb5a000001000000b9
:102100000893000001000000f8ca00000100000070
:1021100055000000020000009330000002000000a3
:1021200038590000020000000b7800000200000097
:102130004b8b000002000000d6910000020000005e
:102140004b8b0000020000000b7800000200000032
:102150003859000002000000923000000200000028
:102160005300000002000000f5ca0000010000005a
:102170000293000001000000df5a0000010000008f
:10218000a52400000100000001f200000000000092
:102190002ac4000000000000dc9b000000000000da
:1021a0006279000000000000a95c0000000000004f
:1021b0005645000000000000db3200000000000077
:1021c0008f24000000000000c31900000000000080
:1021d000cc110000000000000c0c0000000000000a
:1021e000ff070000000000003405000000000000b0
:1021f0005103000000000000130200000000000076
:102200004501000000000000c300000000000000c5
:102210007300000000000000420000000000000009
:102220002500000000000000150000000000000074
:102230000b0000000000000006000000000000008d
:102240000300000000000000020000000000000089
:10225000010000000000000000000000000000007d
:10226000000000000000000000000000000000006e
:10227000ca210000000000002b2400000000000024
:10228000322b0000000000000037000000000000ba
:10229000e047000000000000305e00000000000089
:1022a000487a000000000000619c0000000000006f
:1022b00075c40000000000002bf2000000000000c8
:1022c000bc24000001000000eb5a000001000000e7
:1022d0000893000001000000f8ca0000010000009f
:1022e00055000000020000009330000002000000d2
:1022f00038590000020000000b78000002000000c6
:102300004b8b000002000000d6910000020000008c
:102310004b8b0000020000000b7800000200000060
:102320003859000002000000923000000200000056
:102330005300000002000000f5ca00000100000088
:102340000293000001000000df5a000001000000bd
:10235000a52400000100000001f2000000000000c0
:102360002ac4000000000000dc9b00000000000008
:102370006279000000000000a95c0000000000007d
:102380005645000000000000db32000000000000a5
:102390008f24000000000000c319000000000000ae
:1023a000cc110000000000000c0c00000000000038
:1023b000ff070000000000003405000000000000de
:1023c00051030000000000001302000000000000a4
:1023d0004501000000000000c300000000000000f4
:1023e0007300000000000000420000000000000038
:1023f00025000000000000001500000000000000a3
:102400000b000000000000000600000000000000bb
:1024100003000000000000000200000000000000b7
:1024200001000000000000000000000000000000ab
:10243000000000000000000000000000000000009c
:102440000000000000000000450100000000000046
:10245000c300000000000000730000000000000046
:102460004200000000000000250000000000000005
:1024700015000000000000000b000000000000003c
:102480000600000000000000030000000000000043
:102490000200000000000000010000000000000039
:1024a000000000000000000000000000000000002c
:1024b0000000000000000000ca2100000000000031
:1024c0002b24000000000000322b00000000000060
:1024d0000037000000000000e0470000000000009e
:1024e000305e000000000000487a0000000000009c
:1024f000619c00000000000075c4000000000000a6
:102500002bf2000000000000bc24000001000000cd
:10251000eb5a0000010000000893000001000000d9
:10252000f8ca000001000000550000000200000091
:102530009330000002000000385900000200000043
:102540000b780000020000004b8b0000020000002e
:10255000d6910000020000004b8b0000020000003a
:102560000b78000002000000385900000200000053
:102570009230000002000000530000000200000042
:10258000f5ca0000010000000293000001000000f5
:10259000df5a000001000000a52400000100000037
:1025a00001f20000000000002ac40000000000004a
:1025b000dc9b0000000000006279000000000000c9
:1025c000a95c00000000000056450000000000006b
:1025d000db320000000000008f240000000000003b
:1025e000c319000000000000cc1100000000000032
:1025f0000c0c000000000000ff07000000000000bd
:10260000340500000000000051030000000000003d
:10261000130200000000000045010000000000005f
:10262000c300000000000000730000000000000074
:102630004200000000000000250000000000000033
:1026400015000000000000000b000000000000006a
:102650000600000000000000030000000000000071
:102660000200000000000000010000000000000067
:10267000000000000000000000000000000000005a
:10268000000000000000000000000000000000004a
:10269000000000000000000000000000000000003a
:1026a00000000000000000004501000000000000e4
:1026b000c3000000000000007300000000000000e4
:1026c00042000000000000002500000000000000a3
:1026d00015000000000000000b00000000000000da
:1026e00006000000000000000300000000000000e1
:1026f00002000000000000000100000000000000d7
:1027000000000000000000000000000000000000c9
:102710000000000000000000ca21000000000000ce
:102720002b24000000000000322b000000000000fd
:102730000037000000000000e0470000000000003b
:10274000305e000000000000487a00000000000039
:10275000619c00000000000075c400000000000043
:102760002bf2000000000000bc240000010000006b
:10277000eb5a000001000000089300000100000077
:10278000f8ca00000100000055000000020000002f
:1027900093300000020000003859000002000000e1
:1027a0000b780000020000004b8b000002000000cc
:1027b000d6910000020000004b8b000002000000d8
:1027c0000b780000020000003859000002000000f1
:1027d00092300000020000005300000002000000e0
:1027e000f5ca000001000000029300000100000093
:1027f000df5a000001000000a524000001000000d5
:1028000001f20000000000002ac4000000000000e7
:10281000dc9b000000000000627900000000000066
:10282000a95c000000000000564500000000000008
:10283000db320000000000008f24000000000000d8
:10284000c319000000000000cc11000000000000cf
:102850000c0c000000000000ff070000000000005a
:1028600034050000000000005103000000000000db
:1028700013020000000000004501000000000000fd
:10288000c300000000000000730000000000000012
:1028900042000000000000002500000000000000d1
:1028a00015000000000000000b0000000000000008
:1028b000060000000000000003000000000000000f
:1028c0000200000000000000010000000000000005
:1028d00000000000000000000000000000000000f8
:1028e00000000000000000000000000000000000e8
:1028f00000000000000000000000000000000000d8
:102900000000000000000000450100000000000081
:10291000c300000000000000730000000000000081
:102920004200000000000000250000000000000040
:1029300015000000000000000b0000000000000077
:10294000060000000000000003000000000000007e
:102950000200000000000000010000000000000074
:102960000000000000000000000000000000000067
:102970000000000000000000ca210000000000006c
:102980002b24000000000000322b0000000000009b
:102990000037000000000000e047000000000000d9
:1029a000305e000000000000487a000000000000d7
:1029b000619c00000000000075c4000000000000e1
:1029c0002bf2000000000000bc2400000100000009
:1029d000eb5a000001000000089300000100000015
:1029e000f8ca0000010000005500000002000000cd
:1029f000933000000200000038590000020000007f
:102a00000b780000020000004b8b00000200000069
:102a1000d6910000020000004b8b00000200000075
:102a20000b7800000200000038590000020000008e
:102a3000923000000200000053000000020000007d
:102a4000f5ca000001000000029300000100000030
:102a5000df5a000001000000a52400000100000072
:102a600001f20000000000002ac400000000000085
:102a7000dc9b000000000000627900000000000004
:102a8000a95c0000000000005645000000000000a6
:102a9000db320000000000008f2400000000000076
:102aa000c319000000000000cc110000000000006d
:102ab0000c0c000000000000ff07000000000000f8
:102ac0003405000000000000510300000000000079
:102ad000130200000000000045010000000000009b
:102ae000c3000000000000007300000000000000b0
:102af000420000000000000025000000000000006f
:102b000015000000000000000b00000000000000a5
:102b100006000000000000000300000000000000ac
:102b200002000000000000000100000000000000a2
:102b30000000000000000000000000000000000095
:102b40000000000000000000000000000000000085
:102b50000000000000000000000000000000000075
:102b6000000000000000000045010000000000001f
:102b7000c30000000000000073000000000000001f
:102b800042000000000000002500000000000000de
:102b900015000000000000000b0000000000000015
:102ba000060000000000000003000000000000001c
:102bb0000200000000000000010000000000000012
:102bc0000000000000000000000000000000000005
:102bd0000000000000000000ca210000000000000a
:102be0002b24000000000000322b00000000000039
:102bf0000037000000000000e04700000000000077
:102c0000305e000000000000487a00000000000074
:102c1000619c00000000000075c40000000000007e
:102c20002bf2000000000000bc24000001000000a6
:102c3000eb5a0000010000000893000001000000b2
:102c4000f8ca00000100000055000000020000006a
:102c5000933000000200000038590000020000001c
:102c60000b780000020000004b8b00000200000007
:102c7000d6910000020000004b8b00000200000013
:102c80000b7800000200000038590000020000002c
:102c9000923000000200000053000000020000001b
:102ca000f5ca0000010000000293000001000000ce
:102cb000df5a000001000000a52400000100000010
:102cc00001f20000000000002ac400000000000023
:102cd000dc9b0000000000006279000000000000a2
:102ce000a95c000000000000564500000000000044
:102cf000db320000000000008f2400000000000014
:102d0000c319000000000000cc110000000000000a
:102d10000c0c000000000000ff0700000000000095
:102d20003405000000000000510300000000000016
:102d30001302000000000000450100000000000038
:102d4000c30000000000000073000000000000004d
:102d5000420000000000000025000000000000000c
:102d600015000000000000000b0000000000000043
:102d7000060000000000000003000000000000004a
:102d80000200000000000000010000000000000040
:102d90000000000000000000000000000000000033
:102da0000000000000000000000000000000000023
:102db0000000000000000000000000000000000013
:102dc00000000000000000004501000000000000bd
:102dd000c3000000000000007300000000000000bd
:102de000420000000000000025000000000000007c
:102df00015000000000000000b00000000000000b3
:102e000006000000000000000300000000000000b9
:102e100002000000000000000100000000000000af
:102e200000000000000000000000000000000000a2
:102e30000000000000000000ca21000000000000a7
:102e40002b24000000000000322b000000000000d6
:102e50000037000000000000e04700000000000014
:102e6000305e000000000000487a00000000000012
:102e7000619c00000000000075c40000000000001c
:102e80002bf2000000000000bc2400000100000044
:102e9000eb5a000001000000089300000100000050
:102ea000f8ca000001000000550000000200000008
:102eb00093300000020000003859000002000000ba
:102ec0000b780000020000004b8b000002000000a5
:102ed000d6910000020000004b8b000002000000b1
:102ee0000b780000020000003859000002000000ca
:102ef00092300000020000005300000002000000b9
:102f0000f5ca00000100000002930000010000006b
:102f1000df5a000001000000a524000001000000ad
:102f200001f20000000000002ac4000000000000c0
:102f3000dc9b00000000000062790000000000003f
:102f4000a95c0000000000005645000000000000e1
:102f5000db320000000000008f24000000000000b1
:102f6000c319000000000000cc11000000000000a8
:102f70000c0c000000000000ff0700000000000033
:102f800034050000000000005103000000000000b4
:102f900013020000000000004501000000000000d6
:102fa000c3000000000000007300000000000000eb
:102fb00042000000000000002500000000000000aa
:102fc00015000000000000000b00000000000000e1
:102fd00006000000000000000300000000000000e8
:102fe00002000000000000000100000000000000de
:102ff00000000000000000000000000000000000d1
:1030000000000000000000000000000000000000c0
:1030100000000000000000000b00000000000000a5
:103020000600000000000000030000000000000097
:10303000020000000000000001000000000000008d
:103040000000000000000000000000000000000080
:103050000000000000000000ca2100000000000085
:103060002b24000000000000322b000000000000b4
:103070000037000000000000e047000000000000f2
:10308000305e000000000000487a000000000000f0
:10309000619c00000000000075c4000000000000fa
:1030a0002bf2000000000000bc2400000100000022
:1030b000eb5a00000100000008930000010000002e
:1030c000f8ca0000010000005500000002000000e6
:1030d0009330000002000000385900000200000098
:1030e0000b780000020000004b8b00000200000083
:1030f000d6910000020000004b8b0000020000008f
:103100000b780000020000003859000002000000a7
:103110009230000002000000530000000200000096
:10312000f5ca000001000000029300000100000049
:10313000df5a000001000000a5240000010000008b
:1031400001f20000000000002ac40000000000009e
:10315000dc9b00000000000062790000000000001d
:10316000a95c0000000000005645000000000000bf
:10317000db320000000000008f240000000000008f
:10318000c319000000000000cc1100000000000086
:103190000c0c000000000000ff0700000000000011
:1031a0003405000000000000510300000000000092
:1031b00013020000000000004501000000000000b4
:1031c000c3000000000000007300000000000000c9
:1031d0004200000000000000250000000000000088
:1031e00015000000000000000b00000000000000bf
:1031f00006000000000000000300000000000000c6
:1032000002000000000000000100000000000000bb
:1032100000000000000000000000000000000000ae
:10322000000000000000000000000000000000009e
:1032300000000000000000000b0000000000000083
:103240000600000000000000030000000000000075
:10325000020000000000000001000000000000006b
:10326000000000000000000000000000000000005e
:103270000000000000000000ca2100000000000063
:103280002b24000000000000322b00000000000092
:103290000037000000000000e047000000000000d0
:1032a000305e000000000000487a000000000000ce
:1032b000619c00000000000075c4000000000000d8
:1032c0002bf2000000000000bc2400000100000000
:1032d000eb5a00000100000008930000010000000c
:1032e000f8ca0000010000005500000002000000c4
:1032f0009330000002000000385900000200000076
:103300000b780000020000004b8b00000200000060
:10331000d6910000020000004b8b0000020000006c
:103320000b78000002000000385900000200000085
:103330009230000002000000530000000200000074
:10334000f5ca000001000000029300000100000027
:10335000df5a000001000000a52400000100000069
:1033600001f20000000000002ac40000000000007c
:10337000dc9b0000000000006279000000000000fb
:10338000a95c00000000000056450000000000009d
:10339000db320000000000008f240000000000006d
:1033a000c319000000000000cc1100000000000064
:1033b0000c0c000000000000ff07000000000000ef
:1033c0003405000000000000510300000000000070
:1033d0001302000000000000450100000000000092
:1033e000c3000000000000007300000000000000a7
:1033f0004200000000000000250000000000000066
:1034000015000000000000000b000000000000009c
:1034100006000000000000000300000000000000a3
:103420000200000000000000010000000000000099
:10343000000000000000000000000000000000008c
:10344000000000000000000000000000000000007c
:1034500000000000000000000b0000000000000061
:103460000600000000000000030000000000000053
:103470000200000000000000010000000000000049
:10348000000000000000000000000000000000003c
:103490000000000000000000ca2100000000000041
:1034a0002b24000000000000322b00000000000070
:1034b0000037000000000000e047000000000000ae
:1034c000305e000000000000487a000000000000ac
:1034d000619c00000000000075c4000000000000b6
:1034e0002bf2000000000000bc24000001000000de
:1034f000eb5a0000010000000893000001000000ea
:10350000f8ca0000010000005500000002000000a1
:103510009330000002000000385900000200000053
:103520000b780000020000004b8b0000020000003e
:10353000d6910000020000004b8b0000020000004a
:103540000b78000002000000385900000200000063
:103550009230000002000000530000000200000052
:10356000f5ca000001000000029300000100000005
:10357000df5a000001000000a52400000100000047
:1035800001f20000000000002ac40000000000005a
:10359000dc9b0000000000006279000000000000d9
:1035a000a95c00000000000056450000000000007b
:1035b000db320000000000008f240000000000004b
:1035c000c319000000000000cc1100000000000042
:1035d0000c0c000000000000ff07000000000000cd
:1035e000340500000000000051030000000000004e
:1035f0001302000000000000450100000000000070
:10360000c300000000000000730000000000000084
:103610004200000000000000250000000000000043
:1036200015000000000000000b000000000000007a
:103630000600000000000000030000000000000081
:103640000200000000000000010000000000000077
:10365000000000000000000000000000000000006a
:10366000000000000000000000000000000000005a
:1036700000000000000000000b000000000000003f
:103680000600000000000000030000000000000031
:103690000200000000000000010000000000000027
:1036a000000000000000000000000000000000001a
:1036b0000000000000000000ca210000000000001f
:1036c0002b24000000000000322b0000000000004e
:1036d0000037000000000000e0470000000000008c
:1036e000305e000000000000487a0000000000008a
:1036f000619c00000000000075c400000000000094
:103700002bf2000000000000bc24000001000000bb
:10371000eb5a0000010000000893000001000000c7
:10372000f8ca00000100000055000000020000007f
:103730009330000002000000385900000200000031
:103740000b780000020000004b8b0000020000001c
:10375000d6910000020000004b8b00000200000028
:103760000b78000002000000385900000200000041
:103770009230000002000000530000000200000030
:10378000f5ca0000010000000293000001000000e3
:10379000df5a000001000000a52400000100000025
:1037a00001f20000000000002ac400000000000038
:1037b000dc9b0000000000006279000000000000b7
:1037c000a95c000000000000564500000000000059
:1037d000db320000000000008f2400000000000029
:1037e000c319000000000000cc1100000000000020
:1037f0000c0c000000000000ff07000000000000ab
:10380000340500000000000051030000000000002b
:10381000130200000000000045010000000000004d
:10382000c300000000000000730000000000000062
:103830004200000000000000250000000000000021
:1038400015000000000000000b0000000000000058
:10385000060000000000000003000000000000005f
:103860000200000000000000010000000000000055
:103870000000000000000000000000000000000048
:103880000000000000000000000000000000000038
:10389000000000000000000097030000000000008e
:1038a0001a06000000000000290a000000000000c5
:1038b0009510000000000000891a000000000000c0
:1038c0009d29000000000000f83f000000000000fb
:1038d00064600000000000005e8e00000000000038
:1038e0001cce0000000000007b240000010000004e
:1038f000d596000001000000af2a00000200000081
:103900004ce500000200000012cb000003000000a4
:10391000e1de00000400000052210000060000006b
:103920000a900000070000002725000009000000a1
:10393000fbd600000a000000119800000c000000f7
:10394000a95700000e0000009802000010000000bf
:103950009384000011000000bec9000012000000a6
:1039600058c0000013000000555a00001400000069
:10397000b38e000014000000555a0000140000002f
:1039800058c0000013000000bec900001200000073
:103990009384000011000000980200001000000055
:1039a000a95700000e000000119800000c00000054
:1039b000fbd600000a0000002725000009000000d7
:1039c0000a900000070000005321000006000000dc
:1039d000e1de00000400000012cb00000300000044
:1039e0004ce5000002000000b02a000002000000c8
:1039f000d7960000010000008024000001000000b4
:103a000025ce000000000000708e000000000000c5
:103a100088600000000000003c4000000000000042
:103a2000192a000000000000691b000000000000cf
:103a30002312000000000000da0c0000000000006b
:103a4000ad0a000000000000360b0000000000007e
:103a5000820e0000000000001215000000000000af
:103a6000dc1f0000000000005430000000000000d7
:103a70007b48000000000000df6a0000000000003a
:103a8000a29a00000000000063db000000000000bc
:103a9000233100000100000005a00000010000002b
:103aa000f92b0000020000004ed8000002000000c8
:103ab00029a7000003000000fe9800000400000099
:103ac00007ac000005000000dedb0000060000007f
:103ad0003c210000080000000d72000009000000f9
:103ae000bfc100000a000000f20100000c0000004d
:103af0006e2300000d0000004f1700000e000000b4
:103b000042d000000e000000c04300000f00000083
:103b1000066b00000f000000c04300000f00000013
:103b200042d000000e0000004f1700000e00000001
:103b30006e2300000d000000f20100000c000000e8
:103b4000bfc100000a0000000d7200000900000063
:103b50003c21000008000000dedb00000600000041
:103b600007ac000005000000fe9800000400000003
:103b700029a70000030000004ed80000020000004a
:103b8000fa2b00000200000007a000000100000066
:103b9000263100000100000069db00000000000089
:103ba000ad9a000000000000f36a00000000000071
:103bb0009e4800000000000090300000000000005f
:103bc0003f20000000000000b215000000000000cf
:103bd0007d0f000000000000b30c0000000000009a
:103be000de0c000000000000f60f000000000000e6
:103bf0005c16000000000000dd2000000000000056
:103c0000af3000000000000073470000000000001b
:103c10003267000000000000509200000000000029
:103c200074cb0000000000005c15000001000000e3
:103c3000a8720000010000008ae5000001000000f9
:103c4000716f000002000000a910000003000000d6
:103c500005c800000300000094920000040000006a
:103c60007e6b000005000000094c0000060000000b
:103c7000d42b0000070000004c01000008000000e9
:103c80004ac2000008000000df64000009000000d4
:103c90002ce00000090000002b2d00000a000000ad
:103ca000594700000a0000002b2d00000a00000008
:103cb0002ce0000009000000df64000009000000a3
:103cc0004ac20000080000004c010000080000008b
:103cd000d42b000007000000094c00000600000083
:103ce0007e6b0000050000009492000004000000bc
:103cf00005c8000003000000a91000000300000038
:103d0000716f00000200000089e500000100000062
:103d1000a77200000100000059150000010000001a
:103d20006ecb000000000000449200000000000084
:103d30001a67000000000000454700000000000076
:103d40005b30000000000000472000000000000081
:103d500053150000000000002a0e000000000000c3
:103d6000d1090000000000009f07000000000000d3
:103d700032070000000000006e0800000000000094
:103d8000700b000000000000941000000000000014
:103d90006c18000000000000c523000000000000b7
:103da0009f330000000000002b49000000000000cd
:103db000bc65000000000000af8a000000000000a9
:103dc00054b9000000000000c5f20000000000002f
:103dd000b937000001000000558800000100000014
:103de00003e40000010000004a4900000200000056
:103df000bfb5000002000000042600000300000020
:103e0000ea95000003000000a60000000400000086
:103e1000256100000400000070b2000004000000f2
:103e200016f00000040000009516000005000000d8
:103e3000ad230000050000009516000005000000fd
:103e400016f000000400000070b200000400000042
:103e50002561000004000000a7000000040000002d
:103e6000ec9500000300000007260000030000009e
:103e7000c5b5000002000000554900000200000026
:103e800017e40000010000007a8800000100000033
:103e9000fb3700000100000037f3000000000000c5
:103ea00016ba000000000000f18b000000000000c6
:103eb000c867000000000000704c00000000000017
:103ec000ba38000000000000962b0000000000003f
:103ed0002524000000000000ca21000000000000ae
:103ee0002b24000000000000322b00000000000026
:103ef0000037000000000000e04700000000000064
:103f0000305e000000000000487a00000000000061
:103f1000619c00000000000075c40000000000006b
:103f20002bf2000000000000bc2400000100000093
:103f3000eb5a00000100000008930000010000009f
:103f4000f8ca000001000000550000000200000057
:103f50009330000002000000385900000200000009
:103f60000b780000020000004b8b000002000000f4
:103f7000d6910000020000004b8b00000200000000
:103f80000b78000002000000385900000200000019
:103f90009230000002000000530000000200000008
:103fa00097030000000000001a0600000000000057
:103fb000290a000000000000951000000000000029
:103fc000891a0000000000009d2900000000000088
:103fd000f83f0000000000006460000000000000e6
:103fe0005e8e0000000000001cce000000000000fb
:103ff0007b24000001000000d596000001000000b5
:10400000af2a0000020000004ce5000002000000a2
:1040100012cb000003000000e1de000004000000fd
:1040200052210000060000000a9000000700000076
:104030002725000009000000fbd600000a00000050
:10404000119800000c000000a95700000e000000ad
:10405000980200001000000093840000110000008e
:10406000bec900001200000058c00000130000008c
:10407000555a000014000000b48e00001400000027
:10408000555a00001400000058c000001300000042
:10409000bec900001200000093840000110000005f
:1040a0009802000010000000a95700000e00000058
:1040b000119800000c000000fbd600000a00000070
:1040c00027250000090000000a90000007000000fa
:1040d0005321000006000000e1de000004000000a3
:1040e00012cb0000030000004ce5000002000000bd
:1040f000b02a000002000000d79600000100000076
:10410000802400000100000025ce00000000000017
:10411000708e0000000000008860000000000000b9
:104120003c40000000000000192a000000000000d0
:10413000691b0000000000002312000000000000c6
:10414000da0c000000000000ad0a000000000000d2
:10415000360b000000000000820e0000000000008e
:104160001215000000000000dc1f0000000000002d
:1041700054300000000000007b48000000000000f8
:10418000df6a000000000000a29a000000000000aa
:1041900063db00000000000023310000010000008c
:1041a00005a0000001000000f92b00000200000043
:1041b0004ed800000200000029a700000300000004
:1041c000fe9800000400000007ac0000050000009d
:1041d000dedb0000060000003c21000008000000bb
:1041e0000d72000009000000bfc100000a000000bd
:1041f000f20100000c0000006e2300000d00000022
:104200004f1700000e00000042d000000e0000001a
:10421000c04300000f000000066b00000f0000000c
:10422000c04300000f00000042d000000e0000005c
:104230004f1700000e0000006e2300000d0000006c
:10424000f20100000c000000bfc100000a000000e5
:104250000d720000090000003c2100000800000071
:10426000dedb00000600000007ac000005000000d7
:10427000fe9800000400000029a7000003000000d1
:104280004ed8000002000000fa2b000002000000df
:1042900007a000000100000026310000010000001e
:1042a00069db000000000000ad9a00000000000083
:1042b000f36a0000000000009e48000000000000bb
:1042c00090300000000000003f20000000000000cf
:1042d000b2150000000000007d0f0000000000008b
:1042e000b30c000000000000de0c00000000000025
:1042f000f60f0000000000005c1600000000000047
:10430000dd20000000000000af30000000000000d1
:10431000734700000000000032670000000000004a
:10432000509200000000000074cb0000000000006c
:104330005c15000001000000a872000001000000f0
:104340008ae5000001000000716f0000020000001b
:10435000a91000000300000005c8000003000000d1
:1043600094920000040000007e6b00000500000035
:10437000094c000006000000d42b000007000000dc
:104380004c010000080000004ac2000008000000c4
:10439000df640000090000002ce0000009000000bc
:1043a0002b2d00000a000000594700000a00000001
:1043b0002b2d00000a0000002ce000000900000086
:1043c000df640000090000004ac20000080000008d
:1043d0004c01000008000000d42b00000700000082
:1043e000094c0000060000007e6b00000500000084
:1043f000949200000400000005c8000003000000c3
:10440000a910000003000000716f0000020000000e
:1044100089e5000001000000a77200000100000013
:1044200059150000010000006ecb000000000000e4
:1044300044920000000000001a6700000000000025
:1044400045470000000000005b3000000000000055
:10445000472000000000000053150000000000008d
:104460002a0e000000000000d1090000000000003a
:104470009f0700000000000032070000000000005d
:104480006e08000000000000700b0000000000003b
:1044900094100000000000006c18000000000000f4
:1044a000c5230000000000009f3300000000000052
:1044b0002b49000000000000bc6500000000000067
:1044c000af8a00000000000054b9000000000000a6
:1044d000c5f2000000000000b93700000100000034
:1044e000558800000100000003e400000100000006
:1044f0004a49000002000000bfb5000002000000b1
:104500000426000003000000ea95000003000000fc
:10451000a600000004000000256100000400000067
:1045200070b200000400000016f00000040000005b
:104530009516000005000000ad23000005000000f6
:10454000951600000500000016f0000004000000b1
:1045500070b20000040000002561000004000000ab
:10456000a700000004000000ec950000030000001c
:104570000726000003000000c5b50000020000008f
:10458000554900000200000017e40000010000008f
:104590007a88000001000000fb37000001000000e5
:1045a00037f300000000000016ba00000000000011
:1045b000f18b000000000000c86700000000000050
:1045c000704c000000000000ba380000000000003d
:1045d000962b0000000000002524000000000000d1
:1045e000ca210000000000002b2400000000000091
:1045f000322b000000000000003700000000000027
:10460000e047000000000000305e000000000000f5
:10461000487a000000000000619c000000000000db
:1046200075c40000000000002bf200000000000034
:10463000bc24000001000000eb5a00000100000053
:104640000893000001000000f8ca0000010000000b
:10465000550000000200000093300000020000003e
:1046600038590000020000000b7800000200000032
:104670004b8b000002000000d691000002000000f9
:104680004b8b0000020000000b78000002000000cd
:1046900038590000020000009230000002000000c3
:1046a0005300000002000000f5ca000001000000f5
:1046b0000293000001000000df5a0000010000002a
:1046c000a52400000100000001f20000000000002d
:1046d0002ac4000000000000dc9b00000000000075
:1046e0006279000000000000a95c000000000000ea
:1046f0005645000000000000db3200000000000012
:104700008f24000000000000c3190000000000001a
:10471000cc110000000000000c0c000000000000a4
:10472000ff0700000000000034050000000000004a
:104730005103000000000000130200000000000010
:104740004501000000000000c30000000000000060
:1047500073000000000000004200000000000000a4
:10476000250000000000000015000000000000000f
:104770000b00000000000000060000000000000028
:104780000300000000000000020000000000000024
:104790000100000000000000000000000000000018
:1047a0000000000000000000000000000000000009
:1047b000ca210000000000002b24000000000000bf
:1047c000322b000000000000003700000000000055
:1047d000e047000000000000305e00000000000024
:1047e000487a000000000000619c0000000000000a
:1047f00075c40000000000002bf200000000000063
:10480000bc24000001000000eb5a00000100000081
:104810000893000001000000f8ca00000100000039
:10482000550000000200000093300000020000006c
:1048300038590000020000000b7800000200000060
:104840004b8b000002000000d69100000200000027
:104850004b8b0000020000000b78000002000000fb
:1048600038590000020000009230000002000000f1
:104870005300000002000000f5ca00000100000023
:104880000293000001000000df5a00000100000058
:10489000a52400000100000001f20000000000005b
:1048a0002ac4000000000000dc9b000000000000a3
:1048b0006279000000000000a95c00000000000018
:1048c0005645000000000000db3200000000000040
:1048d0008f24000000000000c31900000000000049
:1048e000cc110000000000000c0c000000000000d3
:1048f000ff07000000000000340500000000000079
:10490000510300000000000013020000000000003e
:104910004501000000000000c3000000000000008e
:1049200073000000000000004200000000000000d2
:10493000250000000000000015000000000000003d
:104940000b00000000000000060000000000000056
:104950000300000000000000020000000000000052
:104960000100000000000000000000000000000046
:104970000000000000000000000000000000000037
:1049800000000000000000004501000000000000e1
:10499000c3000000000000007300000000000000e1
:1049a00042000000000000002500000000000000a0
:1049b00015000000000000000b00000000000000d7
:1049c00006000000000000000300000000000000de
:1049d00002000000000000000100000000000000d4
:1049e00000000000000000000000000000000000c7
:1049f0000000000000000000ca21000000000000cc
:104a00002b24000000000000322b000000000000fa
:104a10000037000000000000e04700000000000038
:104a2000305e000000000000487a00000000000036
:104a3000619c00000000000075c400000000000040
:104a40002bf2000000000000bc2400000100000068
:104a5000eb5a000001000000089300000100000074
:104a6000f8ca00000100000055000000020000002c
:104a700093300000020000003859000002000000de
:104a80000b780000020000004b8b000002000000c9
:104a9000d6910000020000004b8b000002000000d5
:104aa0000b780000020000003859000002000000ee
:104ab00092300000020000005300000002000000dd
:104ac000f5ca000001000000029300000100000090
:104ad000df5a000001000000a524000001000000d2
:104ae00001f20000000000002ac4000000000000e5
:104af000dc9b000000000000627900000000000064
:104b0000a95c000000000000564500000000000005
:104b1000db320000000000008f24000000000000d5
:104b2000c319000000000000cc11000000000000cc
:104b30000c0c000000000000ff0700000000000057
:104b400034050000000000005103000000000000d8
:104b500013020000000000004501000000000000fa
:104b6000c30000000000000073000000000000000f
:104b700042000000000000002500000000000000ce
:104b800015000000000000000b0000000000000005
:104b9000060000000000000003000000000000000c
:104ba0000200000000000000010000000000000002
:104bb00000000000000000000000000000000000f5
:104bc00000000000000000000000000000000000e5
:104bd00000000000000000000000000000000000d5
:104be000000000000000000045010000000000007f
:104bf000c30000000000000073000000000000007f
:104c0000420000000000000025000000000000003d
:104c100015000000000000000b0000000000000074
:104c2000060000000000000003000000000000007b
:104c30000200000000000000010000000000000071
:104c40000000000000000000000000000000000064
:104c50000000000000000000ca2100000000000069
:104c60002b24000000000000322b00000000000098
:104c70000037000000000000e047000000000000d6
:104c8000305e000000000000487a000000000000d4
:104c9000619c00000000000075c4000000000000de
:104ca0002bf2000000000000bc2400000100000006
:104cb000eb5a000001000000089300000100000012
:104cc000f8ca0000010000005500000002000000ca
:104cd000933000000200000038590000020000007c
:104ce0000b780000020000004b8b00000200000067
:104cf000d6910000020000004b8b00000200000073
:104d00000b7800000200000038590000020000008b
:104d1000923000000200000053000000020000007a
:104d2000f5ca00000100000002930000010000002d
:104d3000df5a000001000000a5240000010000006f
:104d400001f20000000000002ac400000000000082
:104d5000dc9b000000000000627900000000000001
:104d6000a95c0000000000005645000000000000a3
:104d7000db320000000000008f2400000000000073
:104d8000c319000000000000cc110000000000006a
:104d90000c0c000000000000ff07000000000000f5
:104da0003405000000000000510300000000000076
:104db0001302000000000000450100000000000098
:104dc000c3000000000000007300000000000000ad
:104dd000420000000000000025000000000000006c
:104de00015000000000000000b00000000000000a3
:104df00006000000000000000300000000000000aa
:104e0000020000000000000001000000000000009f
:104e10000000000000000000000000000000000092
:104e20000000000000000000000000000000000082
:104e30000000000000000000000000000000000072
:104e4000000000000000000045010000000000001c
:104e5000c30000000000000073000000000000001c
:104e600042000000000000002500000000000000db
:104e700015000000000000000b0000000000000012
:104e80000600000000000000030000000000000019
:104e9000020000000000000001000000000000000f
:104ea0000000000000000000000000000000000002
:104eb0000000000000000000ca2100000000000007
:104ec0002b24000000000000322b00000000000036
:104ed0000037000000000000e04700000000000074
:104ee000305e000000000000487a00000000000072
:104ef000619c00000000000075c40000000000007c
:104f00002bf2000000000000bc24000001000000a3
:104f1000eb5a0000010000000893000001000000af
:104f2000f8ca000001000000550000000200000067
:104f30009330000002000000385900000200000019
:104f40000b780000020000004b8b00000200000004
:104f5000d6910000020000004b8b00000200000010
:104f60000b78000002000000385900000200000029
:104f70009230000002000000530000000200000018
:104f8000f5ca0000010000000293000001000000cb
:104f9000df5a000001000000a5240000010000000d
:104fa00001f20000000000002ac400000000000020
:104fb000dc9b00000000000062790000000000009f
:104fc000a95c000000000000564500000000000041
:104fd000db320000000000008f2400000000000011
:104fe000c319000000000000cc1100000000000008
:104ff0000c0c000000000000ff0700000000000093
:105000003405000000000000510300000000000013
:105010001302000000000000450100000000000035
:10502000c30000000000000073000000000000004a
:105030004200000000000000250000000000000009
:1050400015000000000000000b0000000000000040
:105050000600000000000000030000000000000047
:10506000020000000000000001000000000000003d
:105070000000000000000000000000000000000030
:105080000000000000000000000000000000000020
:105090000000000000000000000000000000000010
:1050a00000000000000000004501000000000000ba
:1050b000c3000000000000007300000000000000ba
:1050c0004200000000000000250000000000000079
:1050d00015000000000000000b00000000000000b0
:1050e00006000000000000000300000000000000b7
:1050f00002000000000000000100000000000000ad
:10510000000000000000000000000000000000009f
:105110000000000000000000ca21000000000000a4
:105120002b24000000000000322b000000000000d3
:105130000037000000000000e04700000000000011
:10514000305e000000000000487a0000000000000f
:10515000619c00000000000075c400000000000019
:105160002bf2000000000000bc2400000100000041
:10517000eb5a00000100000008930000010000004d
:10518000f8ca000001000000550000000200000005
:1051900093300000020000003859000002000000b7
:1051a0000b780000020000004b8b000002000000a2
:1051b000d6910000020000004b8b000002000000ae
:1051c0000b780000020000003859000002000000c7
:1051d00092300000020000005300000002000000b6
:1051e000f5ca000001000000029300000100000069
:1051f000df5a000001000000a524000001000000ab
:1052000001f20000000000002ac4000000000000bd
:10521000dc9b00000000000062790000000000003c
:10522000a95c0000000000005645000000000000de
:10523000db320000000000008f24000000000000ae
:10524000c319000000000000cc11000000000000a5
:105250000c0c000000000000ff0700000000000030
:1052600034050000000000005103000000000000b1
:1052700013020000000000004501000000000000d3
:10528000c3000000000000007300000000000000e8
:1052900042000000000000002500000000000000a7
:1052a00015000000000000000b00000000000000de
:1052b00006000000000000000300000000000000e5
:1052c00002000000000000000100000000000000db
:1052d00000000000000000000000000000000000ce
:1052e00000000000000000000000000000000000be
:1052f00000000000000000000000000000000000ae
:105300000000000000000000450100000000000057
:10531000c300000000000000730000000000000057
:105320004200000000000000250000000000000016
:1053300015000000000000000b000000000000004d
:105340000600000000000000030000000000000054
:10535000020000000000000001000000000000004a
:10536000000000000000000000000000000000003d
:105370000000000000000000ca2100000000000042
:105380002b24000000000000322b00000000000071
:105390000037000000000000e047000000000000af
:1053a000305e000000000000487a000000000000ad
:1053b000619c00000000000075c4000000000000b7
:1053c0002bf2000000000000bc24000001000000df
:1053d000eb5a0000010000000893000001000000eb
:1053e000f8ca0000010000005500000002000000a3
:1053f0009330000002000000385900000200000055
:105400000b780000020000004b8b0000020000003f
:10541000d6910000020000004b8b0000020000004b
:105420000b78000002000000385900000200000064
:105430009230000002000000530000000200000053
:10544000f5ca000001000000029300000100000006
:10545000df5a000001000000a52400000100000048
:1054600001f20000000000002ac40000000000005b
:10547000dc9b0000000000006279000000000000da
:10548000a95c00000000000056450000000000007c
:10549000db320000000000008f240000000000004c
:1054a000c319000000000000cc1100000000000043
:1054b0000c0c000000000000ff07000000000000ce
:1054c000340500000000000051030000000000004f
:1054d0001302000000000000450100000000000071
:1054e000c300000000000000730000000000000086
:1054f0004200000000000000250000000000000045
:1055000015000000000000000b000000000000007b
:105510000600000000000000030000000000000082
:105520000200000000000000010000000000000078
:10553000000000000000000000000000000000006b
:10554000000000000000000000000000000000005b
:1055500000000000000000000b0000000000000040
:105560000600000000000000030000000000000032
:105570000200000000000000010000000000000028
:10558000000000000000000000000000000000001b
:105590000000000000000000ca2100000000000020
:1055a0002b24000000000000322b0000000000004f
:1055b0000037000000000000e0470000000000008d
:1055c000305e000000000000487a0000000000008b
:1055d000619c00000000000075c400000000000095
:1055e0002bf2000000000000bc24000001000000bd
:1055f000eb5a0000010000000893000001000000c9
:10560000f8ca000001000000550000000200000080
:105610009330000002000000385900000200000032
:105620000b780000020000004b8b0000020000001d
:10563000d6910000020000004b8b00000200000029
:105640000b78000002000000385900000200000042
:105650009230000002000000530000000200000031
:10566000f5ca0000010000000293000001000000e4
:10567000df5a000001000000a52400000100000026
:1056800001f20000000000002ac400000000000039
:10569000dc9b0000000000006279000000000000b8
:1056a000a95c00000000000056450000000000005a
:1056b000db320000000000008f240000000000002a
:1056c000c319000000000000cc1100000000000021
:1056d0000c0c000000000000ff07000000000000ac
:1056e000340500000000000051030000000000002d
:1056f000130200000000000045010000000000004f
:10570000c300000000000000730000000000000063
:105710004200000000000000250000000000000022
:1057200015000000000000000b0000000000000059
:105730000600000000000000030000000000000060
:105740000200000000000000010000000000000056
:105750000000000000000000000000000000000049
:105760000000000000000000000000000000000039
:1057700000000000000000000b000000000000001e
:105780000600000000000000030000000000000010
:105790000200000000000000010000000000000006
:1057a00000000000000000000000000000000000f9
:1057b0000000000000000000ca21000000000000fe
:1057c0002b24000000000000322b0000000000002d
:1057d0000037000000000000e0470000000000006b
:1057e000305e000000000000487a00000000000069
:1057f000619c00000000000075c400000000000073
:105800002bf2000000000000bc240000010000009a
:10581000eb5a0000010000000893000001000000a6
:10582000f8ca00000100000055000000020000005e
:105830009330000002000000385900000200000010
:105840000b780000020000004b8b000002000000fb
:10585000d6910000020000004b8b00000200000007
:105860000b78000002000000385900000200000020
:10587000923000000200000053000000020000000f
:10588000f5ca0000010000000293000001000000c2
:10589000df5a000001000000a52400000100000004
:1058a00001f20000000000002ac400000000000017
:1058b000dc9b000000000000627900000000000096
:1058c000a95c000000000000564500000000000038
:1058d000db320000000000008f2400000000000008
:1058e000c319000000000000cc11000000000000ff
:1058f0000c0c000000000000ff070000000000008a
:10590000340500000000000051030000000000000a
:10591000130200000000000045010000000000002c
:10592000c300000000000000730000000000000041
:105930004200000000000000250000000000000000
:1059400015000000000000000b0000000000000037
:10595000060000000000000003000000000000003e
:105960000200000000000000010000000000000034
:105970000000000000000000000000000000000027
:105980000000000000000000000000000000000017
:1059900000000000000000000b00000000000000fc
:1059a00006000000000000000300000000000000ee
:1059b00002000000000000000100000000000000e4
:1059c00000000000000000000000000000000000d7
:1059d0000000000000000000ca21000000000000dc
:1059e0002b24000000000000322b0000000000000b
:1059f0000037000000000000e04700000000000049
:105a0000305e000000000000487a00000000000046
:105a1000619c00000000000075c400000000000050
:105a20002bf2000000000000bc2400000100000078
:105a3000eb5a000001000000089300000100000084
:105a4000f8ca00000100000055000000020000003c
:105a500093300000020000003859000002000000ee
:105a60000b780000020000004b8b000002000000d9
:105a7000d6910000020000004b8b000002000000e5
:105a80000b780000020000003859000002000000fe
:105a900092300000020000005300000002000000ed
:105aa000f5ca0000010000000293000001000000a0
:105ab000df5a000001000000a524000001000000e2
:105ac00001f20000000000002ac4000000000000f5
:105ad000dc9b000000000000627900000000000074
:105ae000a95c000000000000564500000000000016
:105af000db320000000000008f24000000000000e6
:105b0000c319000000000000cc11000000000000dc
:105b10000c0c000000000000ff0700000000000067
:105b200034050000000000005103000000000000e8
:105b3000130200000000000045010000000000000a
:105b4000c30000000000000073000000000000001f
:105b500042000000000000002500000000000000de
:105b600015000000000000000b0000000000000015
:105b7000060000000000000003000000000000001c
:105b80000200000000000000010000000000000012
:105b90000000000000000000000000000000000005
:105ba00000000000000000000000000000000000f5
:105bb00000000000000000000b00000000000000da
:105bc00006000000000000000300000000000000cc
:105bd00002000000000000000100000000000000c2
:105be00000000000000000000000000000000000b5
:105bf0000000000000000000ca21000000000000ba
:105c00002b24000000000000322b000000000000e8
:105c10000037000000000000e04700000000000026
:105c2000305e000000000000487a00000000000024
:105c3000619c00000000000075c40000000000002e
:105c40002bf2000000000000bc2400000100000056
:105c5000eb5a000001000000089300000100000062
:105c6000f8ca00000100000055000000020000001a
:105c700093300000020000003859000002000000cc
:105c80000b780000020000004b8b000002000000b7
:105c9000d6910000020000004b8b000002000000c3
