:020000040000fa
:080000001003040000000000e1
:020000040000fa
:1000080064090000580900006e0900004409000056
:100018004e0900006e0900006e0900006e0900001c
:100028006e0900006e0900006e090000de0700007e
:100038006e0900006e0900006e090000d808000073
:10004800e00800006e0900006e0900001a060000b2
:10005800700700000a0400006e0900006e09000025
:100068006e0900000c0900006e0900006e0900000e
:1000780084080000f00800006e0900006e09000006
:100088006e0900006e0900006e090000e808000013
:100098006a080000a0080000dc040000da0500007f
:1000a8006e0900006e0900006e0900006e0900006c
:1000b8006e0900006e0900006e0900006e0900005c
:1000c8006e0900006e0900006e0900006e0900004c
:1000d8006e0900006e0900006e0900007208000039
:1000e8006e0900006e090000280900006e09000072
:1000f8006e090000bc0800006e0900006e090000cf
:100108006e0900006e0900006e0900006e0900000b
:100118006e0900006e0900006e0900006e090000fb
:100128006e0900006e0900006e0900006e090000eb
:100138006e0900006e0900006e0900006e090000db
:100148006e0900006e0900006e0900006e090000cb
:100158006e0900006e0900006e0900006e090000bb
:100168006e0900006e0900006e0900006e090000ab
:100178006e0900006e0900006e0900006e0900009b
:100188006e0900006e0900006e0900006e0900008b
:100198006e0900006e0900006e0900006e0900007b
:1001a8006e0900006e0900006e0900006e0900006b
:1001b8006e0900006e0900006e0900006e0900005b
:1001c8006e0900006e0900006e0900006e0900004b
:1001d8006e0900006e0900006e0900006e0900003b
:1001e8006e0900006e0900006e0900006e0900002b
:1001f8006e0900006e0900006e0900006e0900001b
:100208006e0900006e0900006e0900006e0900000a
:100218006e0900006e0900006e0900006e090000fa
:100228006e0900006e0900006e0900006e090000ea
:100238006e0900006e0900006e0900006e090000da
:100248006e0900006e0900006e0900006e090000ca
:100258006e0900006e0900006e0900006e090000ba
:020000040000fa
:100400000000fa000042210010407800e14f500047
:1004100057003a005082800061828000e0808800ae
:10042000f1808800a0092100900090001000780061
:100430000081880011818800c042210010407800ae
:10044000e14f50004a003a00a042210010407800dd
:100450000080fb00e10f50003e003200e10f500031
:100460003e003c000000e00041003a0032a2800063
:1004700043a28000e0808000f1808000800f510066
:10048000818f590025003c00504421001040780025
:100490000004e000040032005044210010407800c5
:1004a000e24f50002f003a00a20921006000b8007e
:1004b0000089be002030ef002230ef000000eb008a
:1004c00070a188000000eb0080a188000000eb0014
:1004d00090a188000000eb00a0a188006000b80097
:1004e000e0a18800f1a188006000b80000a28800a7
:1004f00011a28800c04821008040eb00014878002c
:10050000a042210011c0b3000148780040442100fe
:100510008040eb000148780015003700e080800043
:10052000f180800060001000e0801800708088007a
:100530008180880032a2800043a280007080800009
:1005400081808000800f5100818f590007003c009e
:100550000700370000000000050037000000000021
:100560000300370000000000010037000000000019
:080570000080fa000000060003
:020000040000fa
:100578000000fa0010002000203a88004004200003
:10058800303a88003200200080072000a1092000ae
:1005980033742000804978008149780082497800c6
:1005a800120420006004200071052000237420003c
:1005b800804978008149780082497800000000006d
:1005c800113a8000000027008080600000002300ae
:1005d800808f5000faff3a0000000000113a8000b6
:1005e80000022000008060000000e000fbff3200f5
:0805f8000080fa00000006007b
:020000040000fa
:100600004d530000485000004858000030310000b1
:020000040000fa
:08061000312e0000343200001d
:020000040000fa
:08061800322e0000303000001a
:020000040000fa
:10062000cfcc27000eff27000e018800000000003d
:10063000000020000000e000020032000001200065
:100640002002880014000700260307000000e000d5
:1006500003003a0060132700010020000200370069
:100660000000200001002000810f70000100320016
:100670000f000700000020000000e0000200320030
:1006800000000200000000005c7202000000000098
:100690000040da000000fe00001420000000e0002e
:1006a00002003200002020009001880000000600b7
:1006b000a1028800800478000000eb001f003700d2
:1006c000e284440054a0b4009905ba00e2844400d6
:1006d00054a0b4009906ba00e284440054a0b400c7
:1006e0000006eb00476fde00fd07b200ae01880098
:1006f000636ce10003003a000ad801000000eb003f
:100700000e003700606ce10008003a00004deb007d
:100710000a05e800020039003420ec000af0a000cd
:100720008b05e900f9ff3e00040037006168e10035
:10073000010032000086eb000b00070019c7ba0069
:100740000e04e0001905ba0003003a000a00e000b8
:10075000dbff3a0000000600fe07b200ae02880090
:100760008a047800f5ff37000cd0a300e20f4d009b
:100770001c003b0089027800354dba000a05e800ec
:10078000020039003420ec000af0a0008b05e900db
:100790000f003200254dba000a05e80002003900ba
:1007a0003420ec000af0a0008b05e90008003200bc
:1007b0000c00e0000600320015cdba000a05e80082
:1007c000020039003420ec000af0a0008b05e9009b
:1007d0008984e80054a0b4000b00e000e2ff3a0076
:1007e000000006009902ba00055d78008b05e9005b
:1007f000f7ff3200c82ade00055d78008b05e900ae
:10080000f3ff32000c00e000f1ff320019ddba0006
:10081000eeff37003600f800809fbe00829fbe00ca
:10082000849fbe00869fbe000000fa0040ca2700d9
:10083000104078000004e00057003a0060ca27002a
:10084000104078000004e00014003a0060ca27005d
:10085000104078000080fb00011880000080e80054
:100860000001400040ca2700000041000108780054
:1008700060ca270011c0b3000148780060ca270091
:10088000104078000080fb000188290000804000b3
:10089000104078003f3607003f00370060ca27004d
:1008a00010407800e14f500014003a0060ca270061
:1008b000104078000080fb00011880000080e800f4
:1008c0000001400040ca27000000410001087800f4
:1008d00060ca270021c0b3000148780060ca270021
:1008e000104078000080fb00018829000080400053
:1008f00010407800273607002700370060ca27001d
:1009000010407800e24f500014003a0060ca2700ff
:10091000104078000080fb00011880000080e80093
:100920000001400040ca2700000041000108780093
:1009300060ca270031c0b3000148780060ca2700b0
:10094000104078000080fb000188290000804000f2
:10095000104078000f3607000f00370060ca2700ec
:10096000104078000080fb00011880000080e80043
:100970000001400040ca2700000041000108780043
:1009800060ca27008040eb000148780050ca270069
:1009900031c0b3000148780001a8a9000080fa0026
:1009a0004f03be004f02be004f01be004f00be000d
:1009b0003600f90000400600809fbe00821f7800cc
:1009c0000000fa0070492100104078000004e000a7
:1009d00059003a0072498300b011800080407800cd
:1009e0000095260000004100014878008092260012
:1009f000104078000080fb00e10f50001100320031
:100a0000e20f5000610032000000e00061003a0097
:100a10000095260090407800b0c5b30080cf50000c
:100a20005e003a001000200070498b008092260082
:100a300011c0b300014878001000200050498b001d
:100a400057003700704983008102200080804000f9
:100a5000809226000080400090407800d0c5b3000e
:100a600080cf5000290032007049830081022000ad
:100a700080804000809226000080400090407800f6
:100a8000b0c5b30080cf50000d003a00704983001c
:100a9000810220008080400080922600008040007b
:100aa0009040780000952600014878001000200052
:100ab00070498b001000200050498b00380037002f
:100ac00071498300e00f2000808f500007003e0036
:100ad000704983000000e80070498b005049830092
:100ae0000000e80050498b002d003700809226005e
:100af0008040eb00014878000000eb0070498b005b
:100b00000000eb0050498b00250037008092260042
:100b100031c0b300014878000000eb0070498b0041
:100b2000504983000000e80050498b0020c0b3000a
:100b3000a2f0b7001a00370072498300b01180009c
:100b400080407800009526000000410001487800b0
:100b5000704983000000e80070498b005049830011
:100b60000000e80050498b0051498300004b2000f1
:100b7000808f50000a0036000000eb0050498b00c7
:100b80000000eb0070498b000500370000000000fa
:100b900003003700000000000100370000000000e3
:100ba00003c8a9000080fa004f0178004f00be0082
:100bb00000400600809fbe000000fa00704921003e
:100bc000104078000004e00016003a002070830016
:100bd0000000e80020708b002170830010708300fb
:100be000808f50000800310020708300e600400034
:100bf00000e0260000804000104078000080fb00ec
:100c0000a01188000700370000e026008040eb00bc
:100c1000014878000000eb0020708b000000eb0022
:100c200010708b0003e8a9000080fa004f00be009e
:100c300000400600809fbe00821f78000000fa007e
:100c400070492100104078000004e00059003a008b
:100c5000e29583003011800080407800e02d27006d
:100c60000000410001487800602b27001040780008
:100c70000080fb00e10f500011003200e20f500035
:100c80008b0032000000e0008b003a00e02d2700ce
:100c900090407800b0c5b30080cf500088003a0083
:100ca00010002000e0958b00602b270011c0b300de
:100cb0000148780010002000c0958b0083003700a9
:100cc000e09583008102200080804000602b270097
:100cd0000080400090407800d0c5b30080cf500025
:100ce00029003200e09583008102200080804000ce
:100cf000602b27000080400090407800b0c5b30012
:100d000080cf50000d003a00e09583008102200062
:100d100080804000602b27000080400090407800d9
:100d2000e02d27000148780010002000e0958b009e
:100d300010002000c0958b0064003700e19583000f
:100d4000e00f2000808f500007003e00e0958300f8
:100d50000000e800e0958b00c09583000000e800eb
:100d6000c0958b0059003700602b27008040eb00b6
:100d7000014878000000eb00e0958b000000eb00dc
:100d8000c0958b0051003700602b270031c0b300a5
:100d9000014878000000eb00e0958b00c0958300cf
:100da0000000e800c0958b0010c0b300a2f0b700af
:100db000460037003011800000407800a4f0b700f2
:100dc000a4d0bf000080fb00a0118800a3d0bf000a
:100dd0000080fb00e10f500013003200e10f5000d3
:100de00003003c000000e000060032002e00370047
:100df000e20f500017003200e30f500020003200d5
:100e000029003700410a210091407800b0c2b300a8
:100e100080cf50002c003a00a3d0bf000040e80073
:100e2000a3f0b70029003700410a21009140780063
:100e3000d0c2b30080cf500004003a00a3d0bf005e
:100e40000040e800a3f0b70020003700a370ef00d7
:100e50001e003700410a21009140780030c2b300e3
:100e600080cf500004003a00a3d0bf000040e8004b
:100e7000a3f0b70015003700a370ef001300370090
:100e8000410a210091407800f0c3b30080cf5000a8
:100e900003003a0010c0b300a5f0b7000b00370004
:100ea000a370ef0009003700a370ef0007003700c0
:100eb00000000000050037000000000003003700bc
:100ec0000000000001003700000000000168a900d8
:100ed0000080fa004f0178004f00be00004006007d
:100ee000809fbe000000fa00704921001040780089
:100ef0000004e00017003a0090bc83000000e80006
:100f000090bc8b0091bc830080bc8300808f50001c
:100f10000800310090bc8300e6004000e078270024
:100f200000804000104078000080fb002011880005
:100f30001e003700e07827008040eb000148780071
:100f40000000eb0090bc8b000000eb0080bc8b002d
:100f50001600370090bc83000000e80090bc8b00b6
:100f600091bc830080bc8300808f5000080031005a
:100f700090bc8300e6004000e0782700008040003d
:100f8000104078000080fb00201188000700370027
:100f9000e07827008040eb00014878000000eb007b
:100fa00090bc8b000000eb0080bc8b000188a90086
:100fb0000080fa004f00be0000400600809fbe0087
:100fc000829fbe00841f78000200fa0050858000d6
:100fd0000000e8005085880051858000703e2000a8
:100fe000808f50000700360020a1800031a18000d2
:100ff00061004000e080480020a1880031a1880005
:10100000aa30ef000040eb00004f780028003700c6
:101010001e80fb00e600b900e4004000c08a210009
:101020000080400010407800e14f50001f003a005f
:101030001e81fb00e612b90084007800c08a2100fe
:101040000080400090009000100078006100500087
:10105000e0805800e611b90082017800c28a2100c0
:10106000028141000089be001e80fb00e600b9003d
:1010700080007800c08a210000804000900090002d
:1010800010007800e00f5000e08f580007003a0091
:101090001e80fb00e600b90080007800008b210074
:1010a0000080400021c0b300014878001e4fe800d6
:1010b0001e407800ec4f5000d5ff36000068a900b4
:1010c0000080fa004f0278004f01be004f00be00c2
:1010d000004006000000fa000388a9000080fa0022
:1010e00000400600809fbe000000fa00504a210028
:1010f00011c0b3000148780005e8a9000080fa009b
:101100004f00be00004006003600f800809fbe0081
:10111000829fbe00849fbe00869fbe000000fa0032
:10112000f72807000080fa004f03be004f02be0000
:101130004f01be004f00be003600f900004006001f
:101140003600f800809fbe00829fbe00849fbe00d4
:10115000869fbe000000fa009b3107000080fa0065
:101160004f03be004f02be004f01be004f00be0045
:101170003600f900004006003600f800809fbe00ef
:10118000829fbe00849fbe00869fbe000000fa00c2
:10119000b23107000080fa004f03be004f02be00cc
:1011a0004f01be004f00be003600f90000400600af
:1011b0000000fa0000e8a9000080fa0000400600e4
:1011c0000000fa000108a9000080fa0000400600b3
:1011d0000000fa000368a9000080fa000040060041
:1011e0003600f800809fbe00829fbe00849fbe0034
:1011f000869fbe000000fa00f23307000080fa006c
:101200004f03be004f02be004f01be004f00be00a4
:101210003600f900004006003600f800809fbe004e
:10122000829fbe00849fbe00869fbe000000fa0021
:10123000592e07000080fa004f03be004f02be0087
:101240004f01be004f00be003600f900004006000e
:101250003600f800809fbe00829fbe00849fbe00c3
:10126000869fbe000000fa004f2e07000080fa00a3
:101270004f03be004f02be004f01be004f00be0034
:101280003600f900004006000000fa0000000000ef
:10129000000000000080fa00004006000000fa0094
:1012a00000000000000000000080fa00004006007e
:1012b0000000fa000000000000000000c028ef005d
:1012c0000080fa00004006000000fa000000000064
:1012d000000000000080fa00004006000040da0034
:1012e0000000fe0000000500839f68000100e00090
:1012f00002003d0060001000e08018000300e000e4
:1013000002003d0060011100e08119004400070067
:101310004f00e00002003b0060001000e080180079
:101320000000060014002000cf043700f4ff2f0057
:10133000cd0437000001be00240007000470a700a0
:1013400003f0a1006509b100160032000d00350060
:101350006828e10006003500f0ff2f00f1ff2700ac
:101360000300e00013003b0001002800000005001e
:1013700000004000818048008502e900fcff3a003f
:1013800008003700f88f420002003c008000eb00ac
:10139000000005008100d1000080d3008502e80034
:1013a000fcff3a000300e00002003b006000100078
:1013b000e0801800000006004f89de0082017800fe
:1013c000c40437006011b800d2043700c70ade0039
:1013d000f107b200f50fb20008003200e1cf420081
:1013e000020032000170a00024000500810f70008f
:1013f000010032000408050044000500810f700060
:1014000002003a00140005008502e90000004000d7
:1014100081c04800fcff3b000170a00024000500d3
:101420006022b800060220000000d0008180d200b7
:101430000482d2008582d2000000a0000202520085
:1014400083825a00030031000202420083824a0074
:101450000000a1000603e900f3ff3a0000000600c7
:1014600007f82700078361000638e10004003a000e
:10147000f7072000878361008703710001003a00ad
:1014800003f0a200889fbe008a9fbe008c9fbe0012
:10149000470ade000480a100c71ade000580a10013
:1014a000070028000785600087856100f70f20008e
:1014b0000720e1009e0032000728e1009c00320076
:1014c000010678000400e000b4003200f7072000b5
:1014d000878060000170a0000500e000c0003200bd
:1014e000f7072000878161000370a0000506520005
:1014f0000f003a000b50e1000b0032000308e1003e
:1015000002003a000200e1007e00320002045000b6
:1015100083845800040031000001fd008101fd00ba
:101520008402fd008a05fd006044b80021003700f8
:101530000520e10005003d000001fd008101fd00e6
:101540008402fd008a05fd00050652007a60e10074
:10155000050035000170a1004722dd008480700085
:101560008a807000630037006044b800ef026600b4
:1015700007ff2f00070666000500e00006003400a4
:10158000f08312008714dd000511de00071bdd006b
:10159000060171008519de007060e100050035006c
:1015a0000904780082047800030178008001eb00d0
:1015b000700656000b50e10003003a0002004000a4
:1015c000838048000400370060041400e0841c009d
:1015d00002005800838058000188a30006003200f2
:1015e0008100d1000080d3008984d3000884d30017
:1015f0000402e800270037000178a30025003a0024
:101600000100e000030032008186cf0069865600a9
:101610000a0037008c0020000000e00004003a00bf
:1016200009007800880478000004eb007002520082
:101630008086cf000d0646000c06e9007060e100d0
:1016400006003500800078000900780088047800e2
:101650000004eb0070065600700252000c00e0001f
:101660000c0034008c08dd00f00316000703de00d8
:10167000868070000c00dd00074bde000600700065
:101680008c4cdd000743de00868474000c44dd00d2
:101690000c0252006120e100200035006101600071
:1016a0000700280087816400f7ff27008783640014
:1016b000070374000300e000060032008203730099
:1016c000040032000000e800e08048000188a30028
:1016d0000e003a00f70f20000720e1004a003d000d
:1016e0000170a1004722dd00810072008a80700035
:1016f0000000be004f06be004f05be004f04be00f6
:10170000000006006000b800faff37008100d10039
:101710000080d3000402e800eeff370004017800e7
:1017200089017400a10107008a807000f1ff370071
:10173000f7010700070278000001fd008101fd00ac
:10174000f301070087027800850372000778a30081
:10175000040032000001fd008101fd0006020700c7
:10176000e4ff3700850362000768a3000800320029
:101770000b50e10003003200f0ff2f00f1ff2700c3
:10178000dcff37000001fd008101fd00d9ff3700bb
:101790000468a300d7ff3200faff3700f8ff2700e4
:1017a000888360000b003a000000e00009003a0066
:1017b0008303640082837300020032000200be00d3
:1017c000ccff37000b50e100ceff3a000200be0014
:1017d000c8ff370014002000810064003eff37007e
:1017e000f8ff27008883610004003a000200e0004f
:1017f00002003a008c007800beff37001500200080
:101800008301640039ff370001f827000000200041
:1018100081007500b7ff3700889fbe008a9fbe0019
:101820008c9fbe001b0020000202be0005866800df
:1018300006002800060666004709de00f20fb20027
:10184000820032000243e80080003200c729de0037
:10185000f30fb2007d0032000343e8007b0032004a
:10186000f107b2000170a000f507b2000570a000fa
:10187000c708dd004903de00868070004700dd00f8
:10188000c72add004923de00868272004722dd0080
:101890000305510004035000858358000300310004
:1018a00000004000818048000a05e9008c1f780094
:1018b0008a9fbe0004005000858058000402420048
:1018c00085824a0000004000818048000005eb004e
:1018d0000004be006033b8000406be000d48e100fd
:1018e00056003100110009004dccd8000c01b800a1
:1018f0000d02b8008481410060824a008283530057
:1019000003045c0084845c0060055d000a00e00064
:1019100025003a00800578000d40e10049003100c3
:101920008800780007007800110009004d88d80071
:101930000c01b8000d02b8008481410060824a00a9
:101940006003110083835b0004045c00e0845c009e
:101950000900e00021003a004f01be000300e00052
:101960002b003200e3016000070673008c817100d8
:1019700001003200640070004200de004e5edd00b7
:101980000c007000c258de0001e0a00083010700d7
:10199000cf017800818071004f06be004f05be0068
:1019a0004f04be00000006008c8343000d044c0071
:1019b000e0844c0060054d000000e9000a00e000f2
:1019c000d4ff32008c8343000d044c00e0844c00b3
:1019d00060054d000000e900ceff37000c03430016
:1019e0008d834b0060044c00e0844c000000e90053
:1019f0000900e000d8ff32000c0343008d834b0048
:101a000060044c00e0844c000000e900d2ff370085
:101a10004200de004e5edd000c007000c258de00a9
:101a200001e0a000cf0178000300e000daff3200ff
:101a300060001000e0801800d7ff3700f0ff2f0093
:101a4000aaff3700f0ff2f00b9ff37000404be00e3
:101a50002f010700870678000004fd008104fd00c7
:101a60002b010700078366000678a30003003200fd
:101a70000960a7000800be002c0037000d78a30005
:101a8000020032000800be00280037000778a300db
:101a900026003a0001f0a10009f0a1000668a300a9
:101aa00003003200f1ff2700f0ff2f00baff3700dc
:101ab0000d68a300030032000800be008c80700097
:101ac000b5ff37000768a30007003a000648a300e7
:101ad00003003200f1ff2700f0ff2f00aeff3700b8
:101ae0000d48a300030032006000b8008c80700035
:101af000a9ff37000748a3000400320001f82700bf
:101b0000000020008c807000a3ff370076010700e2
:101b10000004fd008104fd00020578007201070049
:101b20000802be008a01780059ff37000160a0005a
:101b3000120220006285880097ff37000100e00054
:101b4000120032000500e00010003200889fbe0045
:101b50008a9fbe008c9fbe000006eb0001f8a30028
:101b60000300320060001000e08018000cf0a000bc
:101b700005f8a3000300320060021200e0821a00a0
:101b80000cf0a2008005eb0041ff37006000b800b8
:101b900002000500038368000700280007036300b4
:101ba000470ade000480a100c71ade000580a100fc
:101bb000f70f20000720e100420032000728e10073
:101bc00040003200889fbe008a9fbe008c1f7800b4
:101bd000f107b200f307b2000400e0006400320035
:101be0000170a0000500e000680032000370a00052
:101bf00085054200eb07b1000204b8000302b800fb
:101c00008484440060854a00020ab8008484440049
:101c10000a854a00030ab8000405450004003300a1
:101c20000804d0008984d2000a85d2008b05e9001f
:101c30006158e1003d0035000210200009016100fb
:101c40000308200089816100f70720008783640072
:101c500008867300c84cde00c853dd00878474001a
:101c60004855de000300e0000600320082037600e3
:101c7000040032008904e80060054d000a88a300d2
:101c80000c003a00f70f20000758e10044003d0027
:101c90000a70a100c75ddd000a8575008a00730027
:101ca000090078004f0678004f05be004f04be00c3
:101cb000000006000a05d1008984d3008b05e800e6
:101cc000f0ff3700881f78000604780090000700b6
:101cd000070278000001fd008101fd008c00070073
:101ce00087027800850372000778a30005003200a0
:101cf0000001fd008101fd009f0007004f047800f6
:101d000000000600850372000748a30003003200ac
:101d1000f0ff2f00f1ff2700f8ff37000000200040
:101d200001f8270088807000f4ff370088017800f0
:101d30004848dd00808171004848de00c850dd0061
:101d400001007000c850de00060478000b01780026
:101d50001600070088807000d2ff37000500e00001
:101d600005003200170020003a0007009dff3700f1
:101d700081037000f9ff3a00860078004f06780072
:101d80004f05be004f04be00000005008303710034
:101d9000f9ff3200270020002e00070094ff3700d3
:101da00001f8270086807000f4ff37000100e00092
:101db00026003200610111007810e10023003c0090
:101dc0006022b8007010e100040035008002780045
:101dd000010078008000eb00700151000200e0007b
:101de0000900340070031100062add00822ade009b
:101df0008603dd00878272000200de00860bdd00b4
:101e0000070070008208de0084817100f4ff270063
:101e100004826200848171000400280084826200d0
:101e20006102600005f0a600000006000482710057
:101e3000070032000000e800e080480000000600d3
:101e40000002be006000b800efff37006000b8007d
:101e500000000600889fbe000004eb006138e1002e
:101e600016003a000100e00008003a00c800de0059
:101e70004800dd00880020000100e00003003a0077
:101e8000c800de004800dd00680444008184cf0003
:101e9000e9845400060034008908dd00f083140052
:101ea0008703de00878070000900dd00090444001c
:101eb000610214004f04be00000006000300e000b1
:101ec00008003a00c811de004811dd00880020003b
:101ed0000300e00003003a00c811de004811dd00f5
:101ee000680444008384cf00e98454000600340071
:101ef0008919dd00f08314008713de0087817100eb
:101f00000911dd0009044400e1021400e9ff370073
:101f10002700200001f0a70017002000470bde007b
:101f2000f60fb200040032000643e8000a00320057
:101f30004702b3000000060001037800f607b20074
:101f40000603700002003a000703b3000000060019
:101f50008702b3000000060001037800f607b20014
:101f600006037000020032000770a00000000600a7
:101f70000760a000000006000478a30004003200ff
:101f80000578a300030032000168a30001003a00b5
:101f90000200be000160a000000006008101700088
:101fa000270032008002eb0001f8a300030032009a
:101fb00060001000e080180015002000f4072000e9
:101fc0000202420020003400f70320008703600073
:101fd00006042000000363000208200000016100e5
:101fe0004700de00c909dd0000807100c708de007f
:101ff0000600e0000800320087037100060032008e
:102000001000b0000180b0000188a300020032007f
:10201000c108de000402e800f107b200f30f20005f
:102020000320e10003003d004722dd008100720033
:102030002900370001f827000000eb0026003700d8
:102040006000b80000000600680212007f20e10076
:10205000020034006000b8001f0037006011b800b3
:102060007020e10004003500800178000100780054
:102070008000eb00700252000400e0000900340010
:10208000f00312000719dd008419de000703dd00ec
:10209000868171000400de00070bdd000600700081
:1020a0008408de00f7ff2700838363008703710045
:1020b0000600280003036300070032000700e00069
:1020c00003003a00610160000281730002003200e7
:1020d0001000b0000180b0000500a600000006005e
:1020e00001f0a000000006004f0ade004709de00f4
:1020f000f107b200f20fb2000b003200f207b1009c
:102100000170a000c708dd00c901de0083807000f7
:102110004700dd000400a60000000600600010007b
:10212000e080180000000600810f700001003a00f6
:10213000000006008182cf000500e00010003e0094
:102140008082cf00ee8242007028e1000400390056
:1021500007003e00800078000000eb000e00370012
:10216000708312008600de000500dd000a003700e3
:10217000708352008600dd000000eb00060037008f
:10218000e28252008508dd00708312000603de0043
:10219000868070000500dd007507b0000501ea00cb
:1021a0000400a6000000060060001000e080180097
:1021b00000000600889fbe008a9fbe0030044200d7
:1021c000b0844a0030054b0090854b006000b100a0
:1021d0000898be000a90be000440e10005c8e10076
:1021e00006d0e10007d8e10002003100680040009d
:1021f0001008e8004f05be004f04be0000000600b6
:10220000889fbe008a9fbe00100478009004900052
:1022100020059000b00590000418540005985c005b
:1022200006185d0007985d00110020000440e100e1
:1022300005c8e10006d0e10007d8e100010039003f
:102240008000eb00108810004f05be004f04be0058
:10225000000006001200fa00889fbe008a9fbe00a0
:102260008c9fbe00e0b79f00f1b79f0082bf9f0028
:1022700093bf9f000605be000404be000000eb00f3
:10228000d0b79f00c0b79f00b0b79f00a0b79f0016
:1022900090b79f00000678005fb19700cfb097001d
:1022a000820141003fb097000200e00004003d00c1
:1022b000370007007e805700beff0700030037008d
:1022c000330007007e805700cdff0700dfb6970080
:1022d0000d00e0000c0035006fb29700ffb29700d0
:1022e0000fbb97009fbb970010002000010020004b
:1022f0006011b80000027200818272000203730054
:10230000838373001b0007000c06e8000104200013
:10231000810f5600e0ff3a000d00e00004003d0090
:102320000802be000a03be007e805700a1ff07001e
:102330005fa897000000e00005003a001fb2970078
:10234000afb297003fb39700cfb3970009000700e3
:102350006fb09700ffb097000fb997009fb9970033
:102360004f06be004f05be004f04be000080fa00bd
:10237000000006000100070000000600a4b79f004f
:10238000b5b79f00c6b79f00d7b79f0000000600f3
:102390004f09de0082817100b3b79f004f01de005c
:1023a0008180400082807000a1b79f008fb09700ad
:1023b0004f09de00000040000200700090b79f004f
:1023c0007fa897004f01de0081804000828070006e
:1023d00081b79f000d0007004f3ade00000040006b
:1023e00004007000f0af9f000800070004024200e4
:1023f00085824a0006034b0087834b00dfff0700fe
:102400000802be000a03be00000006002fb29700bb
:10241000bfb297004fb39700dfb3970000000600ec
:10242000881f780018002000881f780089ff0700a7
:102430008f87e9004f04780000000600801feb0042
:1024400084ff07008f87e90000000600889fbe0018
:102450008a9fbe00e00f5000e08f5800e00f590047
:10246000e08f59000c003d006044b8006055b80092
:102470000000540081805c0002015d0083815d00ea
:10248000180020001500070008003d001800070094
:102490000004eb00050037000004eb000f0007000c
:1024a00002003d001200070018002000dcff0700ba
:1024b0000800e000060032006022b8006033b80077
:1024c0000000520081805a0002015b0083815b00a2
:1024d0004f05be004f04be0000000600e00f520092
:1024e000e08f5a00e00f5b00e08f5b000000060009
:1024f0006044b8006055b8000402540085825c0056
:1025000006035d0087835d0000000600889fbe0013
:102510008a9fbe008c1f7800e00f5000e08f5800ab
:10252000e00f5900e08f59000d003d006044b800f5
:102530006055b8000000540081805c0002015d001d
:1025400083815d001c0020000820e10009a8e10053
:102550000ab0e1000bb8e1000d003d0008003700b3
:102560000006eb00e00f5200e08f5a00e00f5b0026
:10257000e08f5b0006003d006044b8006055b80085
:102580000402540085825c0006035d0087835d00c1
:10259000aaff07000c00e000060032006022b8002d
:1025a0006033b8000000520081805a0002015b00d5
:1025b00083815b004f0678004f05be004f04be00cc
:1025c00000000600889fbe008a9fbe008c1f780016
:1025d0000006eb00e00f5000e08f5800e00f5900bc
:1025e000e08f590007003d006044b8006055b80016
:1025f0000000540081805c0002015d0083815d0069
:102600001c002000e00f5200e08f5a00e00f5b003a
:10261000e08f5b0007003d006044b8006055b800e3
:102620000402540085825c0006035d0087835d0020
:102630000c00a200940007000c00e000060032002d
:102640006022b8006033b8000000520081805a0058
:1026500002015b0083815b004f0678004f05be00de
:102660004f04be0000000600889fbe008a9fbe0087
:10267000841f78007c0007004f00780011003300b1
:10268000f0ff2f00838f6c0006003b0004056500ff
:102690000a00a7000800370009f0a600100020007b
:1026a00008003700820f5400838f5c00030039005c
:1026b0001000200001003e000000200009f0a700eb
:1026c0000000ea004f05be004f04be000000e0001d
:1026d00000000600881f7800030478000300e00073
:1026e00007003d0060001000e08018006001190044
:1026f000e081190002003b0001f02d0003003700cb
:102700000400070008f0a70001f0a0004f047800c3
:1027100000000600889fbe008a9fbe0000827000f5
:102720000402710004827100260032000004be0021
:102730000200be006011b8006b0920009502200065
:102740000182cf000a0039000541b1000082cf00ac
:10275000070039000541b1000982cf0004003900ab
:102760000541b1000882cf00010039000541b100e8
:1027700005425200120032000a003b0082817100c3
:10278000610164008100d1000080d3008984d300fe
:102790000884d3008b05e8000442e800f7ff3a0004
:1027a000070037000804440089844c0000004800fa
:1027b000818048008b05e9000442e900f9ff3a00f6
:1027c000030007004f05be004f04be0000000600d6
:1027d00081002000618055000b003d000b002000af
:1027e00061fe2f000100e1001d00340082817100b4
:1027f000610164008904d1000884d3000000e8006e
:10280000faff3a00710020006100640003007000cc
:10281000020060000900320061044400e0844c00c2
:102820000988a500050032008b05e8006808e10072
:1028300002003a008904d1000884d300f20f20007e
:102840000258e10005003d00c75ddd00f907b20058
:102850008980750008007800000006000bf827004a
:102860008b007800000005000004be00d7fa0700c6
:102870000003be000405be000200be00d3fa07003c
:10288000844f750000000600889fbe008a9fbe002e
:102890008c9fbe000404b8000506b80089044600f9
:1028a00060854e000606b8000a054600e0854e0029
:1028b0000706b8008b054600040eb80089044600e0
:1028c0000a854e00e0854d00050eb8000a05460059
:1028d0008b854e00060eb8008b0546000416b80026
:1028e0000a0546008b854e000516b8008b0546008c
:1028f000041eb8008b0546000800be000a01be0099
:102900004f06be004f05be004f04be00000006008b
:102910000800fa00889fbe000004be000001be004f
:102920008300780001f0a10008007800a4fd2000d9
:1029300095f42300840f5000858f580019003e0045
:10294000f2ff2f00f3972300820f5000838f58006f
:1029500011003e00f2ff2f00f3072000820f50000d
:10296000838f580005003e0002002000033820003d
:102970000800be0087fc07000400370002002000aa
:1029800003b827000800be00befa0700c0bf9f00c2
:10299000d1bf9f00540037000001eb000800be00cb
:1029a0004f0037004f49de0003002000143d250092
:1029b000b5072400840f5000858f580015003e0095
:1029c00034be2c0065012400840f5000858f580010
:1029d00008003e000200e00003003200b2fd2000cb
:1029e00093fc230019003700b2fd200093fc230064
:1029f0001b0037000200e00003003200b2fd20009f
:102a0000930424001e003700b2fd2000930424002c
:102a100020003700541d2300250e2400840f500091
:102a2000858f58001f003e00f4dd2e00f50a2400bb
:102a3000840f5000858f58000d003e000200e0001a
:102a40000500320042be2c00630924000800be00cd
:102a50008cfa07000400370042be2c0063092400f2
:102a60000800be007efa0700120020001c0037009c
:102a70000200e00005003200b2fd2000930c2400ab
:102a80000800be007ffa070004003700b2fd2000f6
:102a9000930c24000800be0071fa07000001eb004f
:102aa0000f003700f2ff2f00f3f72700820f5000ce
:102ab000838f5800040036000801be000800be00e5
:102ac00067fa0700070037006c8157000800be0056
:102ad00009000700610160002fb89700bfb8970098
:102ae0005e0007000004be000800be004f04be00e8
:102af0000080fa00000006000800fa00889fbe006f
:102b00008a9fbe008c9fbe000005be0002047800b4
:102b10000001be008300780001f0a1000a007800e7
:102b2000a2fd200093dc2400820f5000838f580008
:102b30001d003e0032982f0023f223000a00be0041
:102b400014fc07000200200003b424004dfa070023
:102b50000200200003b4240041fa07000006be0072
:102b6000f4f9070080047800a2fd200093fc230004
:102b70000c00be0007fc07000001be000a00be00fa
:102b800037fa07000005be00325a280083282300c8
:102b90000c00be00fffb07000001be000a00be00e3
:102ba0002ffa070026003700f2ff2f00f3f7270067
:102bb000820f5000838f5800060036000a01be00c5
:102bc0000a00be0026fa0700008cbe008004eb005d
:102bd0001c0037000a00be00770007000005be0099
:102be00032982f0023f22300eafb070002002000a6
:102bf00003f0230023fa07007b0007000203be0056
:102c00000002be00e4b79f00f5b79f0086bf9f009b
:102c100097bf9f00affe070032982f0023f22300da
:102c2000fdfa07000001be000a00be000cfa070012
:102c30006000b8002004980031049800efb49700b9
:102c4000008cbe00090078004f06be004f05be0094
:102c50004f04be000080fa0000000600ee87470027
:102c6000889fbe008a9fbe008c9fbe008e1f78008a
:102c70000005be00020778000001be00c5fb07008a
:102c80000004be000001be00c2fb0700b0b79f00f9
:102c9000c1b79f000a01be000800be00bdfb0700cf
:102ca0000006be003fb19700cfb19700b9fb070007
:102cb0000003be00d2f92e0083cc23000800be0022
:102cc000d6b79f00e7b79f00b2fb070092642a00c7
:102cd000a3d52300ebf907000002be00e25c21004f
:102ce000b3c123000800be00f4b79f0085bf9f005a
:102cf000a8fb070002d72e0023b42300e1f9070048
:102d00000001be003fb09700cfb09700a1fb0700c5
:102d10000001be007fb297008fba97000400be008a
:102d2000d8f907000001be005fb39700efb397002a
:102d30000600be0097fb07000002be00a27e29002d
:102d400083e023000800be00f4b79f0085bf9f000a
:102d500090fb0700a2a62a00a3ea2300c9f90700f6
:102d60000001be000c00be008afb07000001be008f
:102d70000a00be00c3f907007fb297008fba970020
:102d80000401be00bff907000e00e000040032009d
:102d90000001be000000200001f82b009efa070091
:102da0004f0778004f06be004f05be004f04be001f
:102db000ef00b100000006006022b8006033b800e8
:102dc0000002be00f0ff2f00f1ff2f00f2ff2f00e6
:102dd000f3ff2700000062008180620002016300af
:102de00083816300000006000003be0077f907003e
:102df0006011b8000470a70007f0a1006509b100d8
:102e00001b00320012003500860220000628e10077
:102e100008003500f3ff2700f2ff2f006110b90012
:102e20000700e00018003b00030028006000b80025
:102e300002000500000040008180480002014900b6
:102e4000838149008502e900faff3a000800370053
:102e5000f88f420002003c008000eb0000000500fb
:102e60008100d1000080d3008502e800fcff3a0019
:102e70000700e00004003b0060001000e080180044
:0c2e800060011900e0811900000006004c
:020000040000fa
:102e8c00005e0000bce20000613f0000dd8300003a
:102e9c00c29c00007e200000a3fd00001f4100002a
:102eac009dc30000217f0000fca20000401e00001a
:102ebc005f010000e3bd00003e60000082dc00000a
:102ecc00237d00009fc10000421c0000fea00000fa
:102edc00e1bf00005d03000080de00003c620000ea
:102eec00bee00000025c0000df810000633d0000da
:102efc007c220000c09e00001d430000a1ff0000ca
:102f0c0046180000faa40000277900009bc50000b9
:102f1c0084da000038660000e5bb000059070000a9
:102f2c00db85000067390000bae400000658000099
:102f3c0019470000a5fb000078260000c49a000089
:102f4c00653b0000d9870000045a0000b8e6000079
:102f5c00a7f900001b450000c69800007a24000069
:102f6c00f8a60000441a000099c70000257b000059
:102f7c003a64000086d800005b050000e7b9000049
:102f8c008cd20000306e0000edb30000510f000039
:102f9c004e100000f2ac00002f71000093cd000029
:102fac00114f0000adf30000702e0000cc92000019
:102fbc00d38d00006f310000b2ec00000e50000009
:102fcc00aff10000134d0000ce900000722c0000f9
:102fdc006d330000d18f00000c520000b0ee0000e9
:102fec00326c00008ed00000530d0000efb10000d9
:102ffc00f0ae00004c12000091cf00002d730000c9
:10300c00ca94000076280000abf5000017490000b8
:10301c0008560000b4ea000069370000d58b0000a8
:10302c0057090000ebb50000366800008ad4000098
:10303c0095cb000029770000f4aa00004816000088
:10304c00e9b70000550b000088d60000346a000078
:10305c002b75000097c900004a140000f6a8000068
:10306c00742a0000c8960000154b0000a9f7000058
:10307c00b6e800000a540000d78900006b35000048
:10308c0032300000313600003039000030300000a2
:10309c0000500000484f0000454e00004958000009
:1030ac005f540000524100004e5300004455000094
:1030bc0043450000525f00004d530000484900009a
:1030cc004d4900005a5500005f5800005859000047
:1030dc005900000030300000303000003230000069
:1030ec00003000003100000049540000494200004b
:1030fc0000000000010d00000f03000000000000a4
:020000040000fa
:10310c000600fa0010079800210798008064200040
:10311c00108088004c26ef004e26ef000000eb00dc
:10312c00000f7800180037000132800000082000e2
:10313c00008060000000e00006003a001080800073
:10314c009e0090009e8040009140780001487800dd
:10315c000c0037004086a8000000000001328000ff
:10316c0000082000008060000000e000fbff3a0037
:10317c00108080009e0090009e804000914078005e
:10318c00014878001e0fe8002e0090009e00780089
:10319c00808f5000e4ff39000132800000082000cd
:1031ac00008060000000e000070032004086a800ac
:1031bc000000000001328000000820000080600048
:1031cc000000e000fbff3a00108080008040eb0024
:1031dc00014878004086a8000000000040408000b4
:1031ec00680060000000e000fcff32000868a900e5
:1031fc004086a900603280000040780004f0b700df
:10320c000080fa00000006000600fa002047980033
:10321c0021079800ae409000014f78001e80fb0003
:10322c004400de00004f78001e407800e94f50004b
:10323c0003003e0001c3b3001ecf40000200370064
:10324c0071c3b3001ecf40002e0090001e487800c2
:10325c002e0090000000e80020079800ae4090007f
:10326c00014f78009e4078006fcf60001e407800c0
:10327c00e94f500003003e0001c3b3001ecf4000d5
:10328c000200370071c3b3001ecf40002e00900027
:10329c001e4878000080fa00000006000400fa00c6
:1032ac00100798000040eb00104798001e0090009b
:1032bc00104f7800f0c2b3009e40780080cf5000d1
:1032cc000800360090c3b3009e40780080cf5000b9
:1032dc0004003e0000cdb3001e4040001047980093
:1032ec000b00370000c4b3009e40780080cf500024
:1032fc000700360060c4b3009e40780080cf5000b9
:10330c0003003e0090ccb3001e40400010479800d4
:10331c001e0090000000e800100798001e009000ae
:10332c00104f7800f0c2b3009e40780080cf500060
:10333c000700360090c3b3009e40780080cf500049
:10334c0003003e0000cdb3001e4f40000a003700c2
:10335c0000c4b3009e40780080cf500006003600b9
:10336c0060c4b3009e40780080cf500002003e0045
:10337c0090ccb3001e4f40001e4090000080fb001c
:10338c004400dd00104798001e4090001e40700065
:10339c000080fa00000006000600fa0010079800f2
:1033ac0021079800a2d0bf00e14f50005f003a0007
:1033bc00e0782700104078000004e00004003200a0
:1033cc00e078270010407800e24f5000b7003a0038
:1033dc00e07827008040eb00014878004079270016
:1033ec00b1c5b30001487800a0cc2700104078008c
:1033fc005179270084ff070090cc270010407800fb
:10340c007179270080ff070080cc270010407800de
:10341c00917927007cff070070cc270010407800c2
:10342c00b179270078ff070060cc270010407800a6
:10343c00d179270074ff070050cc2700104078008a
:10344c00f179270070ff07000830ef000c003700ff
:10345c00408080006d014000408080009e00900004
:10346c000080400090407800407927000000410027
:10347c0001487800408080000000e800408088000f
:10348c00418080002e009000808f5000f0ff3900aa
:10349c002e009000ef004000407927000080400093
:1034ac00d1c5b300014878002e0090006c0040009c
:1034bc00800078005079270011ff07002e00900043
:1034cc00ed004000407927008080400004d0bf0010
:1034dc004dff07000000eb0090bc8b002e0090000d
:1034ec007000400080bc8b001f2a07008042210026
:1034fc0051c0b30001487800904221001040780080
:10350c000004e00069003a009042210011c0b300b1
:10351c000148780011c0b3002203200003002000f2
:10352c0020c0b3004c28070060003700a2d0bf00b9
:10353c00e24f50005d003a0000e026001040780099
:10354c000004e0000400320000e026001040780087
:10355c00e24f500055003a0000e026008040eb009e
:10356c000148780060e02600b1c5b300014878003e
:10357c00a0cc27001040780071e0260022ff070045
:10358c0090cc27001040780091e026001eff070029
:10359c0080cc270010407800b1e026001aff07000d
:1035ac0070cc270010407800d1e0260016ff0700f1
:1035bc0060cc270010407800f1e0260012ff0700d5
:1035cc0050cc27001040780011e126000eff0700b8
:1035dc000040eb00004f78000a0037001e80fb0013
:1035ec006d0140001e80fb009e009000008040009a
:1035fc009040780060e0260000004100014878000f
:10360c001e4fe8009e80fb002e009000808f500023
:10361c00f2ff39002e009000ef00400060e0260021
:10362c0000804000d1c5b300014878002e00900006
:10363c006c0040008000780070e02600b0fe0700af
:10364c002e009000ed00400060e0260080804000dd
:10365c0004d0bf00ecfe07000000eb0020708b00d4
:10366c002e0090007000400010708b00ab290700fa
:10367c008042210051c0b3000148780090422100e3
:10368c00104078000004e00008003a00904221004d
:10369c0011c0b3000148780011c0b3002203200010
:1036ac000300200020c0b300eb2707000080fa00c5
:1036bc00000006000200fa00000f7800a2d0bf0044
:1036cc00e14f500057003a00e07827001040780096
:1036dc000004e00004003200e0782700104078007d
:1036ec00e24f5000a4003a00e07827008040eb0045
:1036fc000148780040792700b1c5b3000148780033
:10370c00a0cc27001040780051792700befe07009e
:10371c00604a21001040780051792700bafe07005a
:10372c0090cc27001040780071792700b6fe070076
:10373c0080cc27001040780091792700b2fe07005a
:10374c0070cc270010407800b1792700aefe07003e
:10375c0060cc270010407800d1792700aafe070022
:10376c0050cc270010407800f1792700a6fe070006
:10377c00107a270071c4b30001487800207a270022
:10378c0041c4b300014878001e017800f1004100eb
:10379c004079270000804000d1c5b3000148780073
:1037ac009e0078006e8040008000780050792700e1
:1037bc0053fe07001e017800ef00410040792700fe
:1037cc008080400004d0bf008ffe07000000eb009b
:1037dc0090bc8b009e0078007280400080bc8b00f7
:1037ec00612907008042210051c0b30001487800d4
:1037fc0090422100104078000004e0005e003a0086
:10380c009042210011c0b3000148780011c0b300f0
:10381c00220320000300200020c0b3008e270700e5
:10382c0055003700a2d0bf00e24f500052003a00c2
:10383c0000e02600104078000004e0000400320094
:10384c0000e0260010407800e24f50004a003a0099
:10385c0000e026008040eb000148780060e0260084
:10386c00b1c5b30001487800a0cc27001040780007
:10387c0071e0260064fe070090cc27001040780011
:10388c0091e0260060fe070080cc270010407800f5
:10389c00b1e026005cfe070070cc270010407800d9
:1038ac00d1e0260058fe070060cc270010407800bd
:1038bc00f1e0260054fe070050cc270010407800a1
:1038cc0011e1260050fe070030e1260071c4b30060
:1038dc000148780040e1260041c4b300014878005b
:1038ec001e017800f100410060e0260000804000dd
:1038fc00d1c5b300014878009e0078006e8040006e
:10390c008000780070e02600fdfd07001e017800a5
:10391c00ef00410060e026008080400004d0bf0032
:10392c0039fe07000000eb0020708b009e00780031
:10393c007280400010708b00f82807008042210034
:10394c0051c0b3000148780090422100104078002b
:10395c000004e00008003a009042210011c0b300be
:10396c000148780011c0b30022032000030020009e
:10397c0020c0b300382707000080fa0000000600c2
:10398c008800fa00889fbe008a9fbe008c9fbe00f4
:10399c000040eb0040479800a2d0bf00e14f500020
:1039ac0014003a000040eb00004f78000d00370087
:1039bc001e81fb001e80fb008102200080804000e5
:1039cc00602b270000804000904078000095260076
:1039dc000000410001487800c095830050498b00dd
:1039ec001e4fe8009e80fb00c0958300808f500026
:1039fc00efff3900504983006400500080007800cc
:103a0c0010952600befd070050498300e3005000ce
:103a1c00009526000080400020fe070005f0b7004e
:103a2c00410021009140780005d0bf0080cf5000ac
:103a3c009a0d3a00c2c0b300c15d2100109526005a
:103a4c00f00d0700e14f500006003200c2c0b30079
:103a5c00815e210010952600ea0d0700e14f500011
:103a6c00100d3a00e2a08000f3a08000803e200000
:103a7c008098b90080007800e010b9008080400088
:103a8c00803e20000011b800838040008101780046
:103a9c0011c0b30060c0b300ef26070081422100c3
:103aac0050c0b3008048780090422100104078004c
:103abc000004e00008003a009142210010c0b3005d
:103acc008048780011c0b3002203200003002000be
:103adc0020c0b300e0260700d095260010407800e7
:103aec000080fb004800dd0030079800e0952600c0
:103afc00104078008080fb003e0090000080700039
:103b0c0030079800be00900070052500808f500093
:103b1c003f07320070052500808f500031003e00b9
:103b2c0010742400808f5000af01320010742400f8
:103b3c00808f500014003e0070352400808f5000a0
:103b4c00b908320070352400808f500007003e0009
:103b5c0020352400808f5000ac0b3200303524000f
:103b6c00808f50003b0b3200cb0c3700904424006c
:103b7c00808f50001f05320030452400808f50008c
:103b8c0038023200c40c370080752400808f50003e
:103b9c00530c320080752400808f500007003e00cb
:103bac0030742400808f5000f40b320040742400d9
:103bbc00808f50007d043200b70c370010e42400d5
:103bcc00808f5000e005320020052500808f5000ca
:103bdc003008320030c52400808f50003b03320087
:103bec00ad0c370030752500808f5000e902320093
:103bfc0030752500808f500014003e0030342500b5
:103c0c00808f5000a30b320030342500808f500081
:103c1c0007003e0030242500808f50006b073200d7
:103c2c0010342500808f5000fb0532009a0c3700b1
:103c3c00f0342500808f5000070c32001045250011
:103c4c00808f500018003200930c3700d084250070
:103c5c00808f5000100a3200d0842500808f5000d5
:103c6c0007003e0020842500808f5000890a320016
:103c7c0030842500808f50009a093200860c370062
:103c8c0040852500808f5000c40a3200f0a4250026
:103c9c00808f50007300320030852500808f5000db
:103cac003d0a32007c0c370050498300f20f500063
:103cbc0069003a005282800063828000d0818000cb
:103ccc00e18180000000510081805900400798007c
:103cdc0051079800e00f210041c5b300014878005e
:103cec00f00f210011c5b300014878004e00900080
:103cfc00de0090004889de00020f9800cf89de00bc
:103d0c00130f98000e50900005f0b70005d0bf00bf
:103d1c00011021003cfd07004e009000de009000d9
:103d2c004089de00220f9800cf89de00330f980007
:103d3c004e50900005f0b70005d0bf0021102100b7
:103d4c0031fd07004e009000de009000c809dd0038
:103d5c004801de0002817100420f98004889de00a4
:103d6c00520f98000e58900005f0b70005d0bf0018
:103d7c004110210024fd07004e0090000040780007
:103d8c0005f0b70005d0bf00611021001efd070033
:103d9c00a00921009000900010007800c889de0076
:103dac00630f98004f89de00720f98004e589000f8
:103dbc0005f0b70005d0bf008110210012fd0700ef
:103dcc00a00921009000900010007800c089de004e
:103ddc00031798004f89de00121798000e609000b0
:103dec0005f0b70005d0bf00a110210006fd0700ab
:103dfc00a009210090009000100078004809dd0017
:103e0c00c801de008301710023179800c889de0009
:103e1c00331798004e60900005f0b70005d0bf0036
:103e2c00c1102100f8fc0700a009210090009000af
:103e3c00100078000040780005f0b70005d0bf00f6
:103e4c00e1102100f0fc070021012000e00f21000f
:103e5c0051fd0700a20c370020c0b300404798006a
:103e6c009f0c370050498300f40f5000db003a00e0
:103e7c00f09526009040780000c3b30080cf50002e
:103e8c0005003200f09526009040780010c3b30076
:103e9c0080cf5000ce003a0000962600904078006b
:103eac0000c3b30080cf50000500320000962600fe
:103ebc009040780010c3b30080cf5000c0003a008f
:103ecc00f09526009040780010c3b30080cf5000ce
:103edc0051003a000041210010407800e14f5000a1
:103eec004d00320011c0b300a200200003002000de
:103efc000040eb00d8250700440221006000b80008
:103f0c006011b800009abe000292be000040eb00a7
:103f1c0010479800200037000060fe0001003700b9
:103f2c00000000000040eb00e1250700e14f5000cd
:103f3c00f9ff320050828000618280000002be00d6
:103f4c004fabde0086037800400221009000900009
:103f5c0020019000b0019000100078000000420099
:103f6c0081804a0002014b0083814b0044022100f6
:103f7c00009abe000292be0011c0b300a200200045
:103f8c00030020000040eb00b32507001e4090000a
:103f9c000040e800104798001e409000f34f50007e
:103fac00dfff3600400221009000900020019000bd
:103fbc00b0019000100078004401200005002000a2
:103fcc006033b8001ef9070044022100009abe00bd
:103fdc000292be004002210090009000200190004f
:103fec00b0019000100078000000be00d081880065
:103ffc00e1818800d0818000e18180000001be0059
:10400c00c0e7210085230700c0e72100af2307008c
:10401c00d0818800e18188000096260090407800cd
:10402c0010c3b30080cf500003003a00a209210056
:10403c006000b8000089be00e00f2100a1c5b300ec
:10404c0001487800f00f2100f1c4b300014878005a
:10405c00d0818000e18180004889de004217980001
:10406c00cf89de00531798000e68900005f0b7005a
:10407c0005d0bf000110210063fc0700d081800037
:10408c00e18180004089de0062179800cf89de0054
:10409c00731798004e68900005f0b70005d0bf006c
:1040ac002110210058fc0700d0818000e1818000a4
:1040bc00c809dd004801de0002817100021f980072
:1040cc004889de00121f98000e70900005f0b700b2
:1040dc0005d0bf00411021004bfc0700d0818000af
:1040ec00e18180000040780005f0b70005d0bf00ea
:1040fc006110210044fc0700a009210090009000f1
:10410c0010007800c889de00231f98004f89de005c
:10411c00321f98004e70900005f0b70005d0bf001c
:10412c008110210038fc0700a009210090009000ac
:10413c0010007800c089de00431f98004f89de0014
:10414c00521f98000e78900005f0b70005d0bf0004
:10415c00a11021002cfc0700a00921009000900068
:10416c00100078004809dd00c801de0083017100f1
:10417c00631f9800c889de00731f98004e7890006a
:10418c0005f0b70005d0bf00c11021001efc0700d0
:10419c00a0092100900090001000780000407800e9
:1041ac0005f0b70005d0bf00e110210016fc070098
:1041bc0021012000e00f210077fc070002003700ee
:1041cc0020c0b3004047980000000000c40b37002b
:1041dc0020c0b30040479800c10b370020c0b3008b
:1041ec0040479800be0b370050498300f20f500037
:1041fc0099003a00c042210010407800e14f500075
:10420c0092003a00e00f210071c4b300014878001d
:10421c00f00f210011c4b3000148780030a28000d7
:10422c0041a280004889de0002279800cf89de0079
:10423c00132798000ec0900005f0b70005d0bf0002
:10424c0001102100f0fb070030a2800041a2800089
:10425c004089de0022279800cf89de0033279800a2
:10426c004ec0900005f0b70005d0bf002110210012
:10427c00e5fb070030a2800041a28000c809dd00e8
:10428c004801de0002817100422798004889de0057
:10429c00522798000ec8900005f0b70005d0bf005b
:1042ac0041102100d8fb070030a2800041a2800001
:1042bc000040780005f0b70005d0bf006110210068
:1042cc00d1fb070050a2800061a28000488ede0066
:1042dc00cf8ede000c40780005f0b70005d0bf0093
:1042ec0081102100c8fb070050a2800061a2800051
:1042fc00408dde00cf8dde000a40780005f0b7005f
:10430c0005d0bf00a1102100bffb070050a2800008
:10431c0061a28000c809dd004804de000884710039
:10432c00c88cde000840780005f0b70005d0bf004f
:10433c00c1102100b4fb070050a2800061a28000d4
:10434c000040780005f0b70005d0bf00e110210057
:10435c00adfb070090a28000a1a280004809dd00ff
:10436c004800de0000007100c808de000040780044
:10437c0005f0b70005d0bf0001112100a2fb07001a
:10438c0090a28000a1a280000040780005f0b70048
:10439c0005d0bf00211121009bfb0700d04221005a
:1043ac00104078000080fb004880de000040780060
:1043bc0005f0b70005d0bf004111210092fb0700aa
:1043cc00d04221001040780005f0b70005d0bf00a6
:1043dc00611121008cfb0700b0a280004800de00b8
:1043ec000040780005f0b70005d0bf008111210016
:1043fc0085fb0700b0a280000040780005f0b700f4
:10440c0005d0bf00a11121007ffb0700c0112100c6
:10441c0001c3b30001487800d011210001c3b300df
:10442c0001487800e011210001c3b3000148780075
:10443c00f011210001c3b3000148780021022000d3
:10444c00e00f2100d4fb0700250b370040c0b30060
:10445c0040479800220b370020c0b300404798001b
:10446c001f0b370050498300f20f5000c6003a0072
:10447c00e00f210041c4b30001487800f00f210087
:10448c0031c5b30001487800f0402100104078009d
:10449c0005f0b70005d0bf00011021005afb070042
:1044ac00004121001040780005f0b70005d0bf0096
:1044bc002110210054fb070090a080004800de0072
:1044cc000040780005f0b70005d0bf004110210076
:1044dc004dfb070090a080000040780005f0b7006d
:1044ec0005d0bf006110210047fb0700a2d0bf0020
:1044fc00e14f500004003a004041210011c0b300cc
:10450c000148780006003700a2d0bf00e24f5000ef
:10451c0003003a00404121008040eb000148780044
:10452c00404121001040780005f0b70005d0bf00d5
:10453c008110210034fb070050412100104078000d
:10454c0005f0b70005d0bf00a11021002efb07001d
:10455c00604121001040780005f0b70005d0bf0085
:10456c00c110210028fb07000042210010407800f8
:10457c0005f0b70005d0bf00e110210022fb0700b9
:10458c00104221001040780005f0b70005d0bf00a4
:10459c00011121001cfb0700c0a080004800de00b8
:1045ac000040780005f0b70005d0bf0021112100b4
:1045bc0015fb0700c0a080000040780005f0b70094
:1045cc0005d0bf00411121000ffb0700e0a08000c7
:1045dc00f1a08000c809dd004800de0000807100f9
:1045ec00c808de000040780005f0b70005d0bf0019
:1045fc006111210004fb0700e0a08000f1a0800005
:10460c000040780005f0b70005d0bf0081112100f3
:10461c00fdfa070010a180004800de000040780081
:10462c0005f0b70005d0bf00a1112100f6fa070074
:10463c0010a180000040780005f0b70005d0bf0045
:10464c00c1112100f0fa070020a1800031a18000e7
:10465c004808de000040780005f0b70005d0bf0028
:10466c00e1112100e8fa070020a1800031a18000af
:10467c004008de000040780005f0b70005d0bf0010
:10468c0001122100e0fa070020a1800031a1800076
:10469c004809dd004800de0000007100c808de009b
:1046ac000040780005f0b70005d0bf0021122100b2
:1046bc00d5fa070020a1800031a1800000407800cd
:1046cc0005f0b70005d0bf0041122100cefa07005b
:1046dc00d0818000e1818000c889de0063279800ca
:1046ec004f89de00722798004ec8900005f0b70085
:1046fc0005d0bf0061122100c3fa0700d0818000f1
:10470c00e1818000c089de00032f98004f89de0014
:10471c00122f98000ed0900005f0b70005d0bf0006
:10472c0081122100b8fa0700d0818000e18180005d
:10473c004809dd00c801de0083017100232f9800b9
:10474c00c889de00332f98004ed0900005f0b700da
:10475c0005d0bf00a1122100abfa0700d081800068
:10476c00e18180000040780005f0b70005d0bf0063
:10477c00c1122100a4fa070001032000e00f210060
:10478c0005fb0700560a370020c0b30040479800cd
:10479c00530a37005149830060022000808f50007b
:1047ac0047003a00f0952600d10b0700100798003f
:1047bc001e0090000000e000070032001e00900078
:1047cc00fd0f50003b0034009e00900000e12000e3
:1047dc00808f500037003c001e0090000000e0006d
:1047ec000b003a006000b800e0a08800f1a088003f
:1047fc0060c0b3007a230700e2a08000f3a0800021
:10480c0011c0b30060c0b300932307001900370038
:10481c001e009000cf80de004007980051079800e2
:10482c004e019000de01900040e721007b21070043
:10483c0040e72100a5210700e0a08800f1a0880036
:10484c00e0a08000f1a08000823e2000828ab900a6
:10485c00e001b90002024200823e20000201b800d1
:10486c00030242008401780011c0b30060c0b300a1
:10487c0079230700e00f210071c5b30001487800cf
:10488c00f00f210031c5b30001487800e00f210082
:10489c0001c3b30001487800f00f210001c3b3003d
:1048ac000148780041002000e00f2100bafa07000f
:1048bc000b0a370020c0b30040479800080a3700a5
:1048cc0020c0b30040479800050a370050498300c8
:1048dc00f20f500032013a00c04221001040780023
:1048ec00e14f50002b013a00e10f2100c0c4b3008e
:1048fc0080487800f10f210030c5b3008048780063
:10490c00a04221001040780005f0b70005d0bf0090
:10491c00011021003cfa07004044210010407800af
:10492c0005f0b70005d0bf002110210036fa0700b2
:10493c0070a180000000e9004800de000040780013
:10494c0005f0b70005d0bf00411021002efa07007a
:10495c0070a18000004078000040e90005f0b7002d
:10496c0005d0bf006110210027fa0700a0a180002c
:10497c004800de000040780005f0b70005d0bf000d
:10498c008110210020fa0700a0a1800000407800cf
:10499c0005f0b70005d0bf00a11021001afa0700de
:1049ac006049210010407800e34f50006f003a003e
:1049bc00b0a180004800de000040780005f0b70090
:1049cc0005d0bf00c11021000ffa0700b0a1800074
:1049dc000040780005f0b70005d0bf00e1102100c1
:1049ec0009fa070090a180004800de000040780022
:1049fc0005f0b70005d0bf000111210002fa070035
:104a0c0090a180000040780005f0b70005d0bf00f1
:104a1c0021112100fcf90700c0a18000d1a1800068
:104a2c004889de00422f9800cf89de00532f980072
:104a3c000ed8900005f0b70005d0bf004111210041
:104a4c00f1f90700c0a18000d1a180004089de00ef
:104a5c00622f9800cf89de00732f98004ed89000fb
:104a6c0005f0b70005d0bf0061112100e6f9070081
:104a7c00c0a18000d1a18000c809dd004801de0082
:104a8c0002817100023798004889de0012379800c5
:104a9c000ee0900005f0b70005d0bf008111210099
:104aac00d9f90700c0a18000d1a180000040780096
:104abc0005f0b70005d0bf00a1112100d2f9070005
:104acc0000a2800011a28000c889de002337980064
:104adc004f89de00323798004ee0900005f0b700a9
:104aec0005d0bf00c1112100c7f9070000a280004a
:104afc0011a28000c089de00433798004f89de0088
:104b0c00523798000ee8900005f0b70005d0bf00b2
:104b1c00e1112100bcf9070000a2800011a2800065
:104b2c004809dd00c801de0083017100633798007d
:104b3c00c889de00733798004ee8900005f0b70086
:104b4c0005d0bf0001122100aff9070000a28000c0
:104b5c0011a280000040780005f0b70005d0bf001e
:104b6c0021122100a8f907006e00370080a18000f7
:104b7c004800de000040780005f0b70005d0bf000b
:104b8c00c1102100a0f9070080a18000004078002e
:104b9c0005f0b70005d0bf00e11021009af907001d
:104bac0090a180004800de000040780005f0b700be
:104bbc0005d0bf000111210093f9070090a18000de
:104bcc000040780005f0b70005d0bf00211121008e
:104bdc008df90700e0a18000f1a180004889de007a
:104bec00023f9800cf89de00133f98000ef0900032
:104bfc0005f0b70005d0bf004111210082f9070074
:104c0c00e0a18000f1a180004089de00223f9800e5
:104c1c00cf89de00333f98004ef0900005f0b700ce
:104c2c0005d0bf006111210077f90700e0a18000d9
:104c3c00f1a18000c809dd004801de00028171008d
:104c4c00423f98004889de00523f98000ef89000d1
:104c5c0005f0b70005d0bf00811121006af90700eb
:104c6c00e0a18000f1a180000040780005f0b700c1
:104c7c0005d0bf00a111210063f9070000a280003c
:104c8c0011a28000c889de00633f98004f89de00c6
:104c9c00723f98004ef8900005f0b70005d0bf00a9
:104cac00c111210058f9070000a2800011a2800058
:104cbc00c089de00038798004f89de0012879800b8
:104ccc000e40910005f0b70005d0bf00e1112100a6
:104cdc004df9070000a2800011a280004809dd00f8
:104cec00c801de008301710023879800c889de00ab
:104cfc00338798004e40910005f0b70005d0bf00f7
:104d0c000112210040f9070000a2800011a28000ce
:104d1c000040780005f0b70005d0bf00211221003b
:104d2c0039f907004012210001c3b3000148780093
:104d3c005012210001c3b300014878006012210019
:104d4c0001c3b300014878007012210001c3b30005
:104d5c00014878008012210001c3b300014878009b
:104d6c009012210001c3b30001487800a012210069
:104d7c0001c3b30001487800b012210001c3b30095
:104d8c0001487800e1022000e00f210082f90700c1
:104d9c00d308370040c0b30040479800d008370014
:104dac0020c0b30040479800cd083700504983001d
:104dbc00fa0f50008c003a00c042210010407800dd
:104dcc00e14f500004003200a04221001040780056
:104ddc000004e00081003200f0952600440a070030
:104dec00100798009e00900030132200808f500016
:104dfc0077003c001e009000b0848800309626009e
:104e0c0026f90700404f98004e4890000004e0003f
:104e1c006c003200ce48900040c6b30080cf5000ea
:104e2c0068003e004e4990008109210082487800bc
:104e3c005096260019f90700404f98004e489000f4
:104e4c000004e0005c0032008109210091407800f0
:104e5c004e48900080cf5000570039004e489000cb
:104e6c000040e90099f0b700a2d0bf00e14f50001c
:104e7c0027003a000040eb00004f78001c00370080
:104e8c001e4078000004e0000a003a001e80fb007f
:104e9c00e500b900ef004000407927008080400019
:104eac00b28480001e80fb0000004100e00b070074
:104ebc000e0037001e80fb00e500b900ef0040003b
:104ecc004079270080804000b28480001e80fb0067
:104edc000001410099d0bf008081fb001e80fb00c7
:104eec008098b90000004100d10b07001e4fe8006c
:104efc0098d0bf009e4f5000e1ff3e0098d0bf00fd
:104f0c000080fb00e500b900eaf9070074083700df
:104f1c00a2d0bf00e24f500070083a000040eb00f6
:104f2c00004f78001c0037001e4078000004e000a1
:104f3c000a003a001e80fb00e500b900ef004000bb
:104f4c0060e0260080804000b28480001e80fb0060
:104f5c0000004100b60b07000e0037001e80fb005e
:104f6c00e500b900ef00400060e0260080804000c2
:104f7c00b28480001e80fb000001410099d0bf006c
:104f8c008081fb001e80fb008098b900000041006e
:104f9c00a70b07001e4fe80098d0bf009e4f500093
:104fac00e1ff3e0098d0bf000080fb00e500b90097
:104fbc00c0f907004a08370020c0b30040479800ea
:104fcc004708370020c0b30040479800440837001a
:104fdc0020c0b300404798004108370040c0b300e0
:104fec00404798003e08370020c0b3004047980067
:104ffc003b08370050498300f20f5000cf003a00b5
:10500c00e00f210041c4b30001487800f00f2100eb
:10501c0091c4b300014878000040eb00004f7800c9
:10502c000b0037001e80fb000080e8009e80fb0018
:10503c0074814000c13b21008100410091409000ef
:10504c00e20f210000004100014878001e4fe800eb
:10505c001e407800e74f5000f2ff36000040eb0096
:10506c00004f78000b0037001e80fb006a004000e8
:10507c009e80fb007e814000c13b210081004100ed
:10508c0091407800e20f21000000410001487800b7
:10509c001e4fe8001e407800ff4f5000f2ff360014
:1050ac000040eb00004f78000c0037001e80fb0026
:1050bc00a002b0009e80fb00e20320000101410031
:1050cc00c13b21008100410091409000e20f210082
:1050dc0000004100014878001e4fe8001e40780097
:1050ec00e34f5000f1ff36000040eb00004f78001a
:1050fc000c0037001e80fb00e002b0009e80fb001d
:10510c004204200001014100c13b2100810041000b
:10511c0091407800e20f2100000041000148780026
:10512c001e4fe8001e407800e34f5000f1ff3600a0
:10513c000040eb00004f78000c0037001e80fb0095
:10514c002003b0009e80fb0082042000010141007e
:10515c00c13b21008100410091409000e20f2100f1
:10516c0000004100014878001e4fe8001e40780006
:10517c00e14f5000f1ff36000040eb00004f78008b
:10518c000c0037001e80fb004003b0009e80fb002b
:10519c00c204200001014100c13b210081004100fb
:1051ac0091407800e20f2100000041000148780096
:1051bc001e4fe8001e407800e54f5000f1ff36000e
:1051cc0010c2b30005f0b70005d0bf008113210059
:1051dc000df8070040c3b30005f0b70005d0bf00c1
:1051ec00a113210008f80700f0a2800001a38000a1
:1051fc004808de000040780005f0b70005d0bf007d
:10520c00c113210000f80700f0a2800001a3800068
:10521c004008de000040780005f0b70005d0bf0064
:10522c00e1132100f8f70700f0a2800001a3800031
:10523c00c809dd004800de0000807100c808de00ef
:10524c000040780005f0b70005d0bf000114210024
:10525c00edf70700f0a2800001a380000040780069
:10526c0005f0b70005d0bf0021142100e6f70700b8
:10527c0010a3800021a380004808de0000407800c5
:10528c0005f0b70005d0bf0041142100def7070080
:10529c0010a3800021a380004008de0000407800ad
:1052ac0005f0b70005d0bf0061142100d6f7070048
:1052bc0010a3800021a380004809dd004800de0017
:1052cc0000007100c808de000040780005f0b7004f
:1052dc0005d0bf0081142100cbf7070010a380007c
:1052ec0021a380000040780005f0b70005d0bf0076
:1052fc00a1142100c4f707000040eb00004f780018
:10530c00070037001e80fb00e004b000e10f210015
:10531c000080400001c3b300014878001e4fe80034
:10532c001e407800e74f5000f6ff36006105200064
:10533c00e00f210018f807006907370020c0b30000
:10534c00404798006607370050498300f20f500021
:10535c002e003a00c042210010407800e14f50006e
:10536c0027003a00a04221008040eb000148780061
:10537c000000eb0070a188000000eb0080a1880009
:10538c00404421008040eb00014878000000eb0015
:10539c00a0a188000000eb0090a188006000b8007c
:1053ac00e0a18800f1a18800404a21008040eb0078
:1053bc00014878008049210011c0b30001487800f1
:1053cc00e00f2100e1c4b30001487800f00f210088
:1053dc0011c4b300014878000010210001c3b300d0
:1053ec00014878001010210001c3b3000148780077
:1053fc0041002000e00f2100e7f7070038073700d5
:10540c0040c0b300404798003507370020c0b300b8
:10541c004047980032073700514983002003200091
:10542c00808f5000f7003a00f09526006d080700b9
:10543c0040079800510798004e009000de00900045
:10544c00e00f5000e08f5800eb0035004e0190004b
:10545c00de019000f0ff2f00f1072000800f5100bb
:10546c00818f5900e4003c004e019000de01900059
:10547c0092a98800a3a988007096260059080700f5
:10548c0040079800510798004e009000de009000f5
:10549c00e00f5000e08f5800d40035004e01900012
:1054ac00de019000f0ff2f00f1072000800f51006b
:1054bc00818f5900cd003c004e019000de01900020
:1054cc00b2a98800c3a98800f096260088080700b6
:1054dc00100798001e009000e90f5000c000340027
:1054ec009e00900000712200808f5000bc003c0098
:1054fc001e009000cf80de00f0a9880001aa880071
:10550c00309726007a080700100798001e009000bc
:10551c000000e000af0034009e0090004006200028
:10552c00808f5000ab003c001e0090008040780043
:10553c009051210001487800709726006c080700f4
:10554c00100798009e00900080382100808f50003a
:10555c0002003400007d2000100798009e0090008f
:10556c0030062000808f5000970034009e00900081
:10557c0080382100808f500093003c001e0090006a
:10558c0010aa880010aa80008000eb008aef0700a8
:10559c00c0c08800d1c08800c0c08000d1c08000cd
:1055ac0004120700b09726003cf70700504f9800f4
:1055bc005e4890000004e000060032005e48900057
:1055cc00e14f5000030032005e489000e24f500063
:1055dc007a003a0010532100de499000034878000d
:1055ec00d09726002df70700504f98005e4890008a
:1055fc000004e000180032005e489000e14f5000bb
:10560c00150032005e489000e24f5000120032004c
:10561c005e489000e34f50000f0032005e4890004f
:10562c00e44f50000c0032005e489000e54f5000f3
:10563c00090032005e489000e64f50000600320030
:10564c005e489000e74f5000030032005e48900027
:10565c00e84f500056003a0020582100de489000d8
:10566c0001487800a0422100104078000004e000be
:10567c0004003200a042210010407800e34f50009b
:10568c0048003a0010aa8000b0a2880010532100f4
:10569c00904078005044210001487800905121003e
:1056ac0090407800d042210001487800f0a9800099
:1056bc0001aa800090a28800a1a28800b0a9800055
:1056cc00c1a9800050a2880061a2880090a9800026
:1056dc00a1a9800030a2880041a288002058210096
:1056ec00904078006049210001487800a0422100d8
:1056fc008040eb00014878000000eb0070a18800ae
:10570c000000eb0080a18800404421008040eb00a9
:10571c00014878000000eb00a0a18800c0422100e5
:10572c0011c0b300014878000000eb0090a1880084
:10573c006000b800e0a18800f1a188006049210058
:10574c0010407800e54f500002003a0000e22400bf
:10575c0010aa8800e51607008049210011c0b3008b
:10576c0001487800e00f210031c5b30001487800f2
:10577c00f00f210011c4b300014878000010210083
:10578c0001c3b300014878001010210001c3b3001d
:10579c000148780041002000e00f2100fef60700d0
:1057ac004f06370040c0b300404798004c06370006
:1057bc0020c0b300404798004906370020c0b30012
:1057cc00404798004606370020c0b3004047980079
:1057dc004306370020c0b30040479800400637000e
:1057ec0020c0b300404798003d06370020c0b300ee
:1057fc00404798003a06370020c0b3004047980055
:10580c003706370020c0b3004047980034063700f5
:10581c0030962600a1f60700504f98005e48900085
:10582c000080fb006c00400000407800004040000d
:10583c00504f9800514983005e4890000080fb0057
:10584c00808f50005e003a00f095260093f607001a
:10585c00e10f210080487800109626008ff6070093
:10586c00f10f210080487800e00f210010407800f3
:10587c000080fb004800dd0040808800f00f210014
:10588c00104078008080fb00408080000100700098
:10589c004080880041808000b0e02100808f500063
:1058ac0044003e00309626007cf60700504f9800ce
:1058bc005e4890000004e0003b003200de4890009f
:1058cc0000c4b30080cf500037003e005e4890000b
:1058dc008080fb0040808000008040000000e900d8
:1058ec0070079800fe009000b0e02100808f5000ff
:1058fc0029003e000040eb001047980012003700d2
:10590c001e4090000080fb0000004000f5004000ad
:10591c00009526000080400060f6070005f0b700f7
:10592c0051002100914078001e4090000081fb0046
:10593c0040808000000041009c1c07001e4090002d
:10594c000040e800104798009e4090005e48900090
:10595c0080cf5000eaff3900e00f210001c5b300f1
:10596c0001487800f00f210071c5b30001487800a0
:10597c000010210001c3b300014878001010210071
:10598c0001c3b3000148780041002000e00f210062
:10599c0081f607000200370020c0b3004047980092
:1059ac0000000000ce05370020c0b300404798002f
:1059bc00cb05370020c0b30040479800c80537001e
:1059cc0020c0b30040479800c505370050498300fc
:1059dc00f20f5000ac003a00c0e521003b1d07005f
:1059ec0000a4880011a4880040e62100371d0700a0
:1059fc0020a4880031a48800c0e62100331d0700d4
:105a0c0040a4880051a48800e00f210021c5b300f8
:105a1c0001487800f00f210031c4b3000148780030
:105a2c0000a4800011a480004808de00004078002b
:105a3c0005f0b70005d0bf0001102100f2f50700fa
:105a4c0000a4800011a480004008de000040780013
:105a5c0005f0b70005d0bf0021102100eaf50700c2
:105a6c0000a4800011a480004809dd004800de007d
:105a7c0000007100c808de000040780005f0b70097
:105a8c0005d0bf0041102100dff5070000a4800005
:105a9c0011a480000040780005f0b70005d0bf00cd
:105aac0061102100d8f5070020a4800031a48000eb
:105abc004808de000040780005f0b70005d0bf00b4
:105acc0081102100d0f5070020a4800031a48000b3
:105adc004008de000040780005f0b70005d0bf009c
:105aec00a1102100c8f5070020a4800031a480007b
:105afc00c809dd004800de0000807100c808de0027
:105b0c000040780005f0b70005d0bf00c11021009f
:105b1c00bdf5070020a4800031a48000004078006f
:105b2c0005f0b70005d0bf00e1102100b6f5070065
:105b3c0040a4800051a480004808de00004078009a
:105b4c0005f0b70005d0bf0001112100aef507002c
:105b5c0040a4800051a480004008de000040780082
:105b6c0005f0b70005d0bf0021112100a6f50700f4
:105b7c0040a4800051a480004809dd004800de00ec
:105b8c0000007100c808de000040780005f0b70086
:105b9c0005d0bf00411121009bf5070040a48000f7
:105bac0051a480000040780005f0b70005d0bf007c
:105bbc006111210094f507008011210001c3b3008d
:105bcc00014878009011210001c3b300014878000e
:105bdc00a011210001c3b30001487800b0112100cd
:105bec0001c3b30001487800c011210001c3b30008
:105bfc0001487800d011210001c3b300014878009e
:105c0c00e011210001c3b30001487800f01121001c
:105c1c0001c3b300014878000012210001c3b30096
